:040C000053EF06F0B8
:0E0C08004082FACF12F0FBCF13F07BEF09F021
:100C18004080D8CF01F0E8CF02F0E0CF03F0FACF60
:100C280004F0FBCF05F0E9CF06F0EACF07F0E1CFFB
:100C380008F0E2CF09F0D9CF0AF0DACF0BF0F3CF02
:100C48000CF0F4CF0DF0F6CF0EF0F7CF0FF0F8CF91
:100C580010F0F5CF11F011C0F5FF10C0F8FF0FC06C
:100C6800F7FF0EC0F6FF0DC0F4FF0CC0F3FF0BC07A
:100C7800DAFF0AC0D9FF09C0E2FF08C0E1FF07C0D8
:100C8800EAFF06C0E9FF05C0FBFF04C0FAFF03C086
:100C9800E0FF02C0E8FF01C0D8FF4090100031EF2C
:020CA8000AF050
:100D00000001020408102040800102040810204065
:100D100080010204081020408001020408102040D5
:100D2000800102040801010101010101010000002C
:100D3000000000000002020202020202020303039A
:100D4000030303030304040404127A000090D00395
:100D50000020A1070040420F0080841E0000093DD2
:100D60000000127A000024F40006030201010101D0
:100D70000100226EA0D02050D8B40DD02250010D19
:100D8000010EF324F66E0D0EF420F76E0800F550F8
:100D90009210926E12002250010D010EF324F66E95
:100DA0000D0EF420F76E0800F5500008216E2104A6
:100DB0009214926E12002050D8B40DD02250010D22
:100DC000010EF324F66E0D0EF420F76E0800F550B8
:100DD0009310936E12002250010D010EF324F66E53
:100DE0000D0EF420F76E0800F5500008216E210466
:100DF0009314936E12002050D8B40DD02250010DE0
:100E0000010EF324F66E0D0EF420F76E0800F55077
:100E10009410946E12002250010D010EF324F66E10
:100E20000D0EF420F76E0800F5500008216E210425
:100E30009414946E12002050D8B40DD02250010D9D
:100E4000010EF324F66E0D0EF420F76E0800F55037
:100E50009510956E12002250010D010EF324F66ECE
:100E60000D0EF420F76E0800F5500008216E2104E5
:100E70009514956E12002050D8B40DD02250010D5B
:100E8000010EF324F66E0D0EF420F76E0800F550F7
:100E90009610966E12002250010D010EF324F66E8C
:100EA0000D0EF420F76E0800F5500008216E2104A5
:100EB0009614966E12002250010D250EF324F66E44
:100EC0000D0EF420F76E0800F550000AD8B453D781
:100ED000010AD8B470D7030AD8B48DD7010AD8B4A0
:100EE000AAD7070AD8A41200C6D7226EA0D02050D5
:100EF000D8B40DD02250010D010EF324F66E0D0E64
:100F0000F420F76E0800F5508910896E1200225007
:100F1000010D010EF324F66E0D0EF420F76E08009D
:100F2000F5500008216E21048914896E12002050AA
:100F3000D8B40DD02250010D010EF324F66E0D0E23
:100F4000F420F76E0800F5508A108A6E12002250C5
:100F5000010D010EF324F66E0D0EF420F76E08005D
:100F6000F5500008216E21048A148A6E1200205068
:100F7000D8B40DD02250010D010EF324F66E0D0EE3
:100F8000F420F76E0800F5508B108B6E1200225083
:100F9000010D010EF324F66E0D0EF420F76E08001D
:100FA000F5500008216E21048B148B6E1200205026
:100FB000D8B40DD02250010D010EF324F66E0D0EA3
:100FC000F420F76E0800F5508C108C6E1200225041
:100FD000010D010EF324F66E0D0EF420F76E0800DD
:100FE000F5500008216E21048C148C6E12002050E4
:100FF000D8B40DD02250010D010EF324F66E0D0E63
:10100000F420F76E0800F5508D108D6E12002250FE
:10101000010D010EF324F66E0D0EF420F76E08009C
:10102000F5500008216E21048D148D6E120022509F
:10103000010D250EF324F66E0D0EF420F76E080058
:10104000F550000AD8B453D7010AD8B470D7030AB0
:10105000D8B48DD7010AD8B4AAD7070AD8A41200E9
:10106000C6D7206E5AD02050010D010EF324F66E23
:101070000D0EF420F76E0800F55080140009D8B466
:1010800002D0010E1200000E12002050010D010EC0
:10109000F324F66E0D0EF420F76E0800F55081145F
:1010A0000009D8B402D0010E1200000E1200205028
:1010B000010D010EF324F66E0D0EF420F76E0800FC
:1010C000F55082140009D8B402D0010E1200000EAF
:1010D00012002050010D010EF324F66E0D0EF420C7
:1010E000F76E0800F55083140009D8B402D0010E41
:1010F0001200000E12002050010D010EF324F66EB6
:101100000D0EF420F76E0800F55084140009D8B4D1
:1011100002D0010E1200000E12002050010D250E0B
:10112000F324F66E0D0EF420F76E0800F550000A59
:10113000D8B499D7010AD8B4A8D7030AD8B4B7D776
:10114000010AD8B4C6D7070AD8B4D5D7000E120002
:10115000D350030B0009D8A414D0D2B809D0000E84
:10116000286E120E296E7A0E2A6E000E2B6E120059
:10117000000E286E6C0E296EDC0E2A6E020E2B6E8F
:101180001200D350030BE806D8A409D0000E286E35
:10119000800E296E000E2A6E000E2B6E1200D350A8
:1011A000030B2C6E010E2C6418D0D338070B2C6E59
:1011B0002C50040D490EF324F66E0D0EF420F76E3C
:1011C0000900F5CF28F00900F5CF29F00900F5CF87
:1011D0002AF00A00F5CF2BF01200000E286E000E48
:1011E000296E000E2A6E000E2B6E1200000E0001FA
:1011F000606F000E616F000E626F000E636F325001
:10120000331034103510D8B42FD0010E0001646FA4
:1012100007D0D89032363336343635360001642B59
:1012200035AEF7D70001D890603761376237633742
:1012300032502E5C33502F5834503058355031587E
:10124000D8A00AD032502E5E33502F5A3450305A24
:101250003550315A00016081D89035323432333202
:1012600032320001642FDED760C02EF061C02FF053
:1012700062C030F063C031F01200F29EF29C080EA2
:10128000D56EA8EC08F0030E05D0D8902B322A3288
:1012900029322832E82EF9D728C02EF029C02FF0A5
:1012A0002AC030F02BC031F0E80E326E030E336EE0
:1012B000000E346E000E356EF6EC08F02E1E2F1E5A
:1012C0002E4A2F2AFF0E2E243E6EFF0E2F203F6E39
:1012D0003F50D76E3EC0D6FFF184F294F28AD58E8D
:1012E000F28EF28C000E3A6E000E3B6E000E3C6EDB
:1012F000000E3D6E1200E9CF14F0EACF15F0E1CFF9
:1013000016F0E2CF17F0D9CF18F0DACF19F0F3CFFB
:101310001AF0F4CF1BF0F6CF1CF0F7CF1DF0F8CF8A
:101320001EF0F5CF1FF075EC0AF01FC0F5FF1EC0D0
:10133000F8FF1DC0F7FF1CC0F6FF1BC0F4FF1AC06A
:10134000F3FF19C0DAFF18C0D9FF17C0E2FF16C0BB
:10135000E1FF15C0EAFF14C0E9FF13C0FBFF12C094
:10136000FAFF40921100020E0001676F580E666F7F
:10137000D0B202D0930ED012D350030B0001656F90
:10138000010E0001656502D0D3A4FED7D2889B8EE2
:1013900000016607D8A0670700016629F9E100018E
:1013A0006729D8A4F5D7DEEC09F057EC0AF03DEC3C
:1013B00009F08FEC0AF067EC0AF0FDD7000E896E99
:1013C000000E8A6E000E8B6E000E8C6E000E8D6EFF
:1013D000000E926E000E936E949094929494949C4E
:1013E000949E000E956E000E966E000E806E000E9E
:1013F000816E000E826E000E836E000E846E1200EF
:1014000044EC0AF0285020242C6E295021202D6E07
:101410002A5022202E6E2B5023202F6E44EC0AF0EF
:101420002C50205C2D5021582E5022582F502358DC
:10143000D8B01200F3D722C0F8FF21C0F7FF20C0B8
:10144000F6FF0900F5CF27F00900F5CF26F026506A
:10145000256E246A27502424206E000E2520216E3C
:10146000120000EE36F00A0EEE6AE806FDE105EE27
:1014700000F0010EEE6AE806FDE140904092000E99
:10148000F86E0001B3EF09F0F29A3AC024F03BC0C5
:1014900025F03CC026F03DC027F0F28A24C020F0A1
:1014A00025C021F026C022F027C023F01200000E34
:1014B0000F015B6F000E0F015C6F000E0F015D6F7F
:1014C000000E0F015E6F000E0F015F6F12000C0E19
:1014D00083EC0AF0F40E286E010E296E000E2A6EBF
:1014E000000E2B6E00EC0AF01200F2A41200F2942F
:1014F0003F50D76E3EC0D6FF010E3A26000E3B226B
:101500003C223D221200246E245031EC08F0236E60
:101510002350010A206E245075EC07F01200000ED3
:0A152000206E0C0EB9EC06F012006C
:00000001FF
