:020000040000FA
:100C000002EF06F018EEFFF028EEFFF0F86AA68E6D
:100C1000A69CBF0EE96E0E0EEA6E0068ED6A0050EB
:100C2000FDE1620EF66E0E0EF76E000EF86E090014
:100C3000F5CF05F00900F5CF06F034D00900F5CF67
:100C400000F00900F5CF01F00900F5CF02F009002E
:100C50000900F5CFE9FF0900F5CFEAFF0900090017
:100C60000900F5CF03F00900F5CF04F009000900F1
:100C7000F6CF07F0F7CF08F0F8CF09F000C0F6FF85
:100C800001C0F7FF02C0F8FF03D00900F5CFEEFF67
:100C90000306FBE20406F9E207C0F6FF08C0F7FF0F
:100CA00009C0F8FF0506CAE20606C8E2EDEC06F048
:100CB000FFD7D9CFE5FFE1CFD9FF00C0E5FF01C0E5
:100CC000E5FF02C0E5FF03C0E5FF020EDBCF00F049
:100CD000030EDBCF01F0026A036A0150035C02E1FC
:100CE0000050025C06E20C0ECEEC06F0024A032A2B
:100CF000F4D7E4CF03F0E4CF02F0E4CF01F0E4CF87
:100D000000F0E4CFD9FF1200D9CFE5FFE1CFD9FF42
:100D100000C0E5FF01C0E5FF02C0E5FF03C0E5FF3D
:100D2000020EDBCF00F0030EDBCF01F0026A036A94
:100D30000150035C02E10050025C03E2024A032A14
:100D4000F7D7E4CF03F0E4CF02F0E4CF01F0E4CF33
:100D500000F0E4CFD9FF1200550EA76EAA0EA76EC1
:100D60000E01FF91040E0E01F66F050E0E01C96F04
:100D7000060E0E01FB6F0A0E0E01CB6F090E0E015F
:100D8000CA6F0E0E0E01D16F120E0E01D26F550EEC
:100D9000A76EAA0EA76E0E01FF811200E806E56E8F
:100DA000630EE1EC06F0E4500BE000D0E56E630E5C
:100DB000E1EC06F000D000D00000E450E82EF6D7B9
:100DC0001200E8060000E85007E000D000D000D094
:100DD00000D00000E82EFAD712009B8C580E006E4F
:100DE000020E016E00C002F001C003F0FF0E0026EB
:100DF000012202500310F6E1D08EF29EF29C1CEC10
:100E000007F027EC07F0ACEC06F038EC07F00BEC41
:100E100007F0FDD712008B94E56A320EE56E59ECAF
:100E200006F0E652E6528B84E56A320EE56E59EC26
:100E300006F0E652E6521200896A8A6A8B6A926A62
:100E4000936A949094929494949C949E12000F01AF
:100E500048691F0E0F01496FD26AD16A0F01536BA7
:100E600012000100740E0000000E000001000000DE
:060E700094941200000042
:00000001FF
