:100C000000EF1EF00001020408102040800102FFE6
:100C1000081020102040800202020202020202009C
:0A0C200000FF0000000101010100C7
:103B48001200006CDC0201000000000E016E020E83
:103B58008AEC1FF01200020EB9EC1DF0010E0F6E78
:103B6800F40E0E6EA9EC1EF01200056E05505CEC0A
:103B78001EF0046E0450010A016E055014EC1FF08B
:103B8800120001500302F3CF05F0F4CF06F0015004
:103B98000402F350062602500302F350062605C01D
:103BA80001F006C002F01200000E896E000E8A6E47
:103BB800000E926E000E936E949094929494949C3E
:103BC800949E000E806E000E816E000E826E1200B2
:103BD800D08ED0B202D0D082D080D3909B8C000EF1
:103BE8007E6E000E7F6ED8EC1DF0A4EC1DF0A9ECE3
:103BF8001DF0AFEC1DF0FDD74A0EF66E3B0EF76ECA
:103C0800000EF86E00EE1AF010EE08F00900F5CF7D
:103C1800EEFFE550E150FAE105EE00F0010EEE6A24
:103C2800E806FDE1000EF86E0001ECEF1DF0000E55
:103C3800096E000E0A6E000E0B6E000E0C6E05501B
:103C4800061007100810D8B42AD0010E0D6E06D041
:103C5800D89005360636073608360D2A08A6F8D74E
:103C6800D89009360A360B360C360550015C0650DA
:103C780002580750035808500458D8A009D00550D6
:103C8800015E0650025A0750035A0850045A098028
:103C9800D89008320732063205320D2EE1D709C016
:103CA80001F00AC002F00BC003F00CC004F01200CF
:103CB800016E36D00150010D050EF324F66E0C0E80
:103CC800F420F76E0800F55080140009D8B402D02B
:103CD800010E1200000E12000150010D050EF32412
:103CE800F66E0C0EF420F76E0800F55081140009EA
:103CF800D8B402D0010E1200000E12000150010DBE
:103D0800050EF324F66E0C0EF420F76E0800F5503D
:103D180082140009D8B402D0010E1200000E12005D
:103D28000150010D170EF324F66E0C0EF420F76EF9
:103D38000800F550000AD8B4BDD7010AD8B4CCD7CA
:103D4800030AD8B4DBD7000E12001AC001F01BC05A
:103D580002F01CC003F01DC004F0A00E056E0F0E8B
:103D6800066E000E076E000E086E1BEC1EF001C0FA
:103D780018F002C019F0500E1824186EF70E19200A
:103D8800196E18C001F019C002F0036A046A050E22
:103D9800056E030E066E000E076E000E086E1BEC15
:103DA8001EF00150176E17C001F0026A030E046E70
:103DB800050E036EC5EC1DF0011E021E014A022A03
:103DC80018500124126E19500220136E050E122489
:103DD800106E000E1320116E10C001F011C002F019
:103DE800036A046A030E056E000E066E000E076E67
:103DF800000E086E1BEC1EF00150146E09D014283A
:103E0800156E1728166E02D0152EFED7162EFCD763
:103E18000E06D8A00F060E500F10D8B41200EFD718
:103E2800036E60D00150D8B40DD00350010D050EBB
:103E3800F324F66E0C0EF420F76E0800F550891086
:103E4800896E12000350010D050EF324F66E0C0E58
:103E5800F420F76E0800F5500008026E0204891479
:103E6800896E12000150D8B40DD00350010D050E13
:103E7800F324F66E0C0EF420F76E0800F5508A1045
:103E88008A6E12000350010D050EF324F66E0C0E17
:103E9800F420F76E0800F5500008026E02048A1438
:103EA8008A6E12000150D8B40DD00350010D050ED2
:103EB800F324F66E0C0EF420F76E0800F5508B1004
:103EC8008B6E12000350010D050EF324F66E0C0ED6
:103ED800F420F76E0800F5500008026E02048B14F7
:103EE8008B6E12000350010D170EF324F66E0C0EA4
:103EF800F420F76E0800F550000AD8B493D7010AE9
:103F0800D8B4B0D7030AD8A41200CCD7036E60D0B7
:103F18000150D8B40DD00350010D050EF324F66EF0
:103F28000C0EF420F76E0800F5509210926E1200F5
:103F38000350010D050EF324F66E0C0EF420F76EF7
:103F48000800F5500008026E02049214926E1200E6
:103F58000150D8B40DD00350010D050EF324F66EB0
:103F68000C0EF420F76E0800F5509310936E1200B3
:103F78000350010D050EF324F66E0C0EF420F76EB7
:103F88000800F5500008026E02049314936E1200A4
:103F98000150D8B40DD00350010D050EF324F66E70
:103FA8000C0EF420F76E0800F5509410946E120071
:103FB8000350010D050EF324F66E0C0EF420F76E77
:103FC8000800F5500008026E02049414946E120062
:103FD8000350010D170EF324F66E0C0EF420F76E45
:103FE8000800F550000AD8B493D7010AD8B4B0D75E
:083FF800030AD8A41200CCD783
:00000001FF
