:020000040000FA
:100C00009DEF1CF0629C1200F1EF20F00F0148698B
:100C10001F0E0F01496F120016EF21F0D9CFE5FF2B
:100C2000E1CFD9FF00C0E5FF01C0E5FF02C0E5FF4D
:100C300003C0E5FF04C0E5FF05C0E5FF06C0E5FF12
:100C400007C0E5FF08C0E5FF09C0E5FF0AC0E5FFF2
:100C50000BC0E5FF0CC0E5FF0DC0E5FF0EC0E5FFD2
:100C60000FC0E5FF10C0E5FF11C0E5FF12C0E5FFB2
:100C700013C0E5FF14C0E5FF15C0E5FF16C0E5FF92
:100C800017C0E5FF18C0E5FF19C0E5FF020EDBCF76
:100C900000F0030EDBCF01F0040EDBCF02F0050EF7
:100CA000DBCF03F0060EDBCF04F0070EDBCF05F041
:100CB000080EDBCF06F0090EDBCF07F00A0EDBCF04
:100CC00008F0096A020E0A6E03C0E9FF04C0F3FFD0
:100CD0000550F6EC22F00B6E0B5002E1D4EF0AF057
:100CE0000C6A0B50250A02E0BBEF0AF00B6A0D6A92
:100CF000032A02E3044A052A03C0E9FF04C0F3FF04
:100D00000550F6EC22F00E6E0E50D8B4D4EF0AF077
:100D10000E50250A02E1BBEF0AF00E502D0A06E143
:100D2000032A02E3044A052A010E0B6E03C00EF0EB
:100D300004C00FF005C010F00EC0E9FF0FC0F3FFB4
:100D40001050F6EC22F0300A06E10E2A02E30F4AB8
:100D5000102A0B82F1D70EC0E9FF0FC0F3FF10502D
:100D6000F6EC22F0116E300E115C13E33A0E115CBA
:100D700010E20D500A0DF3CF0DF0D00E11260D50DC
:100D8000126E115012240D6E0E2A02E30F4A102A21
:100D9000E2D70EC003F00FC004F010C005F00EC083
:100DA000E9FF0FC0F3FF1050F6EC22F02E0A34E1F9
:100DB0000E50010F036E000E0F20046E000E102067
:100DC000056E0A6A03C00EF004C00FF005C010F0F3
:100DD0000EC0E9FF0FC0F3FF1050F6EC22F0116EC9
:100DE000300E115C13E33A0E115C10E20A500A0D4A
:100DF000F3CF0AF0D00E11260A50126E11501224B1
:100E00000A6E0E2A02E30F4A102AE2D70EC003F040
:100E10000FC004F010C005F003C0E9FF04C0F3FFE9
:100E20000550F6EC22F00E6E660A01E040D0065046
:100E3000040F0F6E000E0720106E000E0820116EBA
:100E40000FC006F010C007F011C008F0FC0E0F260E
:100E5000FF0E102211220FC0E9FF10C0F3FF115046
:100E600029EC22F00F6EF3CF10F0F4CF11F0E9CFA0
:100E700012F00A50E56EE56A0B50E56E0D50E56E16
:100E80001250E56E1150E56E1050E56E0F50E56E94
:100E90000250E56E0150E56E0050E56E24EC0BF05B
:100EA0000F6E0B0EE1260F500926CEEF0AF00E5002
:100EB000730A01E045D00650030F0F6E000E0720A5
:100EC000106E000E0820116E0FC006F010C007F063
:100ED00011C008F0FD0E0F26FF0E102211220FC0C8
:100EE000E9FF10C0F3FF115049EC22F00F6EF3CF71
:100EF00010F0F4CF11F01010111006E1000E116E79
:100F0000280E106E2C0E0F6E0B50E56E0D50E56E18
:100F10001150E56E1050E56E0F50E56E0250E56E13
:100F20000150E56E0050E56E8DEC10F00F6E080E6E
:100F3000E1260950106E0F501024096ECEEF0AF012
:100F40000E506C0A06E1032A02E3044A052A010E48
:100F50000C6E03C0E9FF04C0F3FF0550F6EC22F06D
:100F60000E6E750A01E06CD00C5023E00650040FA1
:100F70000F6E000E0720106E000E0820116E0FC0BD
:100F800006F010C007F011C008F0FC0E0F26FF0E8F
:100F9000102211220FC0E9FF10C0F3FF115029ECFD
:100FA00022F00F6EF3CF10F0F4CF11F0E9CF12F072
:100FB00024D00650020F136E000E0720146E000E90
:100FC0000820156E13C006F014C007F015C008F015
:100FD000FE0E1326FF0E1422152213C0E9FF14C0C3
:100FE000F3FF1550A9EC22F0136EF3CF14F013C0E9
:100FF0000FF014C010F0116A126A610EE56EE56A16
:101000000B50E56E0D50E56EE56A0A0EE56E0C506C
:10101000E56E1250E56E1150E56E1050E56E0F5002
:10102000E56E0250E56E0150E56E0050E56EF9EC9C
:101030000DF0136E0E0EE12613500926CEEF0AF0C6
:101040000E50640A04E00E50690A01E075D00C509D
:1010500023E00650040F136E000E0720146E000EDE
:101060000820156E13C006F014C007F015C008F074
:10107000FC0E1326FF0E1422152213C0E9FF14C024
:10108000F3FF155029EC22F0136EF3CF14F0F4CFD8
:1010900015F0E9CF16F024D00650020F176E000E9F
:1010A0000720186E000E0820196E17C006F018C031
:1010B00007F019C008F0FE0E1726FF0E182219229D
:1010C00017C0E9FF18C0F3FF1950A9EC22F0176E02
:1010D000F3CF18F017C013F018C014F0156A166A91
:1010E00013C00FF014C010F015C011F016C012F0AC
:1010F000610EE56EE56A0B50E56E0D50E56E010E72
:10110000E56E0A0EE56E0C50E56E1250E56E11505C
:10111000E56E1050E56E0F50E56E0250E56E015021
:10112000E56E0050E56EF9EC0DF0136E0E0EE12643
:1011300013500926CEEF0AF00E50780A04E00E5044
:10114000700A01E073D00C5023E00650040F136EB8
:10115000000E0720146E000E0820156E13C006F056
:1011600014C007F015C008F0FC0E1326FF0E142261
:10117000152213C0E9FF14C0F3FF155029EC22F02B
:10118000136EF3CF14F0F4CF15F0E9CF16F024D09E
:101190000650020F176E000E0720186E000E082072
:1011A000196E17C006F018C007F019C008F0FE0E3F
:1011B0001726FF0E1822192217C0E9FF18C0F3FFE7
:1011C0001950A9EC22F0176EF3CF18F017C013F0E6
:1011D00018C014F0156A166A13C00FF014C010F08E
:1011E00015C011F016C012F0610EE56EE56A0B50E5
:1011F000E56E0D50E56EE56A100EE56E0C50E56E7D
:101200001250E56E1150E56E1050E56E0F50E56E10
:101210000250E56E0150E56E0050E56EF9EC0DF000
:10122000136E0E0EE12613500926B8D10E50580A3F
:1012300004E00E50500A01E073D00C5023E0065039
:10124000040F136E000E0720146E000E0820156E9A
:1012500013C006F014C007F015C008F0FC0E1326EA
:10126000FF0E1422152213C0E9FF14C0F3FF15501E
:1012700029EC22F0136EF3CF14F0F4CF15F0E9CF80
:1012800016F024D00650020F176E000E0720186EBD
:10129000000E0820196E17C006F018C007F019C01C
:1012A00008F0FE0E1726FF0E1822192217C0E9FFBC
:1012B00018C0F3FF1950A9EC22F0176EF3CF18F005
:1012C00017C013F018C014F0156A166A13C00FF097
:1012D00014C010F015C011F016C012F0410EE56EEA
:1012E000E56A0B50E56E0D50E56EE56A100EE56E91
:1012F0000C50E56E1250E56E1150E56E1050E56E23
:101300000F50E56E0250E56E0150E56E0050E56E3F
:10131000F9EC0DF0136E0E0EE126135009263ED1A6
:101320000E50620A01E073D00C5023E00650040F07
:10133000136E000E0720146E000E0820156E13C0E9
:1013400006F014C007F015C008F0FC0E1326FF0EBF
:101350001422152213C0E9FF14C0F3FF155029EC25
:1013600022F0136EF3CF14F0F4CF15F0E9CF16F09E
:1013700024D00650020F176E000E0720186E000EC4
:101380000820196E17C006F018C007F019C008F041
:10139000FE0E1726FF0E1822192217C0E9FF18C0EB
:1013A000F3FF1950A9EC22F0176EF3CF18F017C015
:1013B00013F018C014F0156A166A13C00FF014C0A9
:1013C00010F015C011F016C012F0610EE56EE56A5E
:1013D0000B50E56E0D50E56EE56A020EE56E0C50A1
:1013E000E56E1250E56E1150E56E1050E56E0F502F
:1013F000E56E0250E56E0150E56E0050E56EF9ECC9
:101400000DF0136E0E0EE12613500926C7D00E50B4
:101410006F0A01E073D00C5023E00650040F136EE6
:10142000000E0720146E000E0820156E13C006F083
:1014300014C007F015C008F0FC0E1326FF0E14228E
:10144000152213C0E9FF14C0F3FF155029EC22F058
:10145000136EF3CF14F0F4CF15F0E9CF16F024D0CB
:101460000650020F176E000E0720186E000E08209F
:10147000196E17C006F018C007F019C008F0FE0E6C
:101480001726FF0E1822192217C0E9FF18C0F3FF14
:101490001950A9EC22F0176EF3CF18F017C013F013
:1014A00018C014F0156A166A13C00FF014C010F0BB
:1014B00015C011F016C012F0610EE56EE56A0B5012
:1014C000E56E0D50E56EE56A080EE56E0C50E56EB2
:1014D0001250E56E1150E56E1050E56E0F50E56E3E
:1014E0000250E56E0150E56E0050E56EF9EC0DF02E
:1014F0000C6E0E0EE1260C50092650D00E50630AD9
:1015000001E04CD00650020F0C6E000E07200E6E4C
:10151000000E08200F6E0CC006F00EC007F00FC0C2
:1015200008F0FE0E0C26FF0E0E220F220CC0E9FF63
:101530000EC0F3FF0F50A9EC22F00E010B6F0C6BE5
:101540000B50E56E0D50E56E800EE56E0E0EE56EED
:101550000B0EE56E0250E56E0150E56E0050E56E33
:101560008DEC10F00B6E080EE12609500C6E0B503E
:101570000C24096E13D003C0E9FF04C0F3FF05502B
:10158000F6EC22F0E56E0250E56E0150E56E00507B
:10159000E56E7BEC1AF0040EE126092A032A02E329
:1015A000044A052A64EF06F000500110021014E00E
:1015B00000C0E9FF01C0F3FF025049EC22F0006EC9
:1015C000F3CF01F0F4CF02F0E56A00C0E9FF01C0FB
:1015D000F3FF025032EC23F00950E4CF19F0E4CFCE
:1015E00018F0E4CF17F0E4CF16F0E4CF15F0E4CF15
:1015F00014F0E4CF13F0E4CF12F0E4CF11F0E4CF15
:1016000010F0E4CF0FF0E4CF0EF0E4CF0DF0E4CF14
:101610000CF0E4CF0BF0E4CF0AF0E4CF09F0E4CF14
:1016200008F0E4CF07F0E4CF06F0E4CF05F0E4CF14
:1016300004F0E4CF03F0E4CF02F0E4CF01F0E4CF14
:1016400000F0E4CFD9FF1200D9CFE5FFE1CFD9FFF9
:1016500000C0E5FF01C0E5FF02C0E5FF03C0E5FFF4
:1016600004C0E5FF05C0E5FF06C0E5FF07C0E5FFD4
:1016700008C0E5FF09C0E5FF0AC0E5FF0BC0E5FFB4
:101680000CC0E5FF0DC0E5FF0EC0E5FF0FC0E5FF94
:1016900010C0E5FF11C0E5FF12C0E5FF13C0E5FF74
:1016A00014C0E5FF15C0E5FF16C0E5FF17C0E5FF54
:1016B00018C0E5FF19C0E5FF1AC0E5FF1BC0E5FF34
:1016C0001CC0E5FF1DC0E5FF1EC0E5FF1FC0E5FF14
:1016D00020C0E5FF020EDBCF00F0030EDBCF01F0F0
:1016E000040EDBCF02F0050EDBCF03F0060EDBCFDE
:1016F00004F0070EDBCF05F0080EDBCF06F0090E75
:10170000DBCF07F00A0EDBCF08F00C0EDBCF09F0C1
:101710000A6A0B6A0C6A0D6A0E6A0F6A106A116A0D
:101720000D0E136ED00E126E800E146E0D0E166E10
:10173000DC0E156E800E176E186A0B0E196E0350B4
:101740000D01F76F0450F86F0550F96F0650FA6FEE
:10175000D880FAAFD89023E3075012E008A210D047
:101760002D0EE56E0250E56E0150E56E0050E56EFF
:101770007BEC1AF0040EE126010E186E07060FD05E
:101780002D0EE56E12C0E9FF13C0F3FF145032ECCA
:1017900023F0122A02E3134A142A0A0E196E0D01CD
:1017A000F935FA35036E046A810E0326F751046E8B
:1017B000F851056E7F0EF915066E1A6A068E0350F3
:1017C000800F610F04E20350800F970F1FE2690E34
:1017D0000D01D06F6E0ED16F660ED26FD36B0850B5
:1017E000E56E0750E56E800EE56E0D0EE56ED00ECF
:1017F000E56E0250E56E0150E56E0050E56E8DEC31
:1018000010F01B6E080EE1261B50AED10350800F66
:10181000690F25E303C01BF01C6A03BE1C68E90EB8
:101820001B26D8A01C0604C00AF005C00BF006C099
:101830000CF01AC00DF01B5011E009E6E86CD890CE
:101840000A360B360C360D36010FFAE37CD0D890F1
:101850000D320C320B320A32010FFAE374D0D88009
:1018600003AED890D8B04AD003C01BF01C6A03BEA8
:101870001C681B5017081D6E000E1C5404C00AF093
:1018800005C00BF006C00CF01AC00DF01D5011E0A1
:1018900009E6E86CD8900D320C320B320A32010F97
:1018A000FAE307D0D8900A360B360C360D36010F06
:1018B000FAE31B4A1C2A04C01DF005C01EF006C036
:1018C0001FF01AC020F01B5011E009E6E86CD89018
:1018D0001D361E361F362036010FFAE307D0D8908A
:1018E00020321F321E321D32010FFAE31D500E6EE0
:1018F0001E500F6E1F50106E116A25D01A6A1B6A97
:1019000003BE1B68034A1B2A1B1E036CD8B41B2A88
:1019100004C00EF005C00FF006C010F01AC011F0A0
:10192000035011E009E6E86CD890113210320F3202
:101930000E32010FFAE307D0D8900E360F3610366C
:101940001136010FFAE30A500B100C100D100FE1C5
:10195000300EE56E12C0E9FF13C0F3FF145032ECF5
:1019600023F0122A02E3134A142A190678D015C06C
:1019700003F016C004F017C005F0066A19C015F090
:101980000A500B100C100D10D8B43CD0E56AE56A73
:10199000E56A0A0EE56E0D50E56E0C50E56E0B50D3
:1019A000E56E0A50E56E61EC15F0166E080EE12644
:1019B000300E162616C0E5FF03C0E9FF04C0F3FF92
:1019C000055032EC23F0032A02E3044A052AE56AB3
:1019D000E56AE56A0A0EE56E0D50E56E0C50E56E9F
:1019E0000B50E56E0A50E56EE4EC18F00A6EF3CF8A
:1019F0000BF0F4CF0CF0E9CF0DF0080EE126062A2B
:101A00001506BED715C019F012C00AF013C00BF0AE
:101A100014C00CF006C00DF006060D501AE0FF0EC3
:101A200003260422052203C0E9FF04C0F3FF05508A
:101A3000F6EC22F00D6E0DC0E5FF0AC0E9FF0BC009
:101A4000F3FF0C5032EC23F00A2AE4E30B4A0C2A91
:101A5000E1D70AC012F00BC013F00CC014F0070E4F
:101A6000095C02E3060E096E0950195CD8A019C082
:101A700009F0010E095CD8A057D02E0EE56E12C0F9
:101A8000E9FF13C0F3FF145032EC23F0122A02E3F3
:101A9000134A142A12C003F013C004F014C005F056
:101AA000066A0950065C3AE20E500E240A6E0F34A4
:101AB0000B6E10340C6E11340D6E0A500A260B3664
:101AC0000C360D360A500A260B360C360D360E50E3
:101AD0000E24156E0F34166E1034176E1134196EF5
:101AE00015500A240E6E16500B200F6E17500C2046
:101AF000106E19500D200A6E300E0A260AC0E5FF3E
:101B000003C0E9FF04C0F3FF055032EC23F0032AC1
:101B100002E3044A052A116A062AC3D703C012F059
:101B200004C013F005C014F0E56A12C0E9FF13C049
:101B3000F3FF145032EC23F00850E56E0750E56EC9
:101B4000800EE56E0D0EE56ED00EE56E0250E56E70
:101B50000150E56E0050E56E8DEC10F0006E080E41
:101B6000E126185000260050E4CF20F0E4CF1FF00B
:101B7000E4CF1EF0E4CF1DF0E4CF1CF0E4CF1BF067
:101B8000E4CF1AF0E4CF19F0E4CF18F0E4CF17F067
:101B9000E4CF16F0E4CF15F0E4CF14F0E4CF13F067
:101BA000E4CF12F0E4CF11F0E4CF10F0E4CF0FF067
:101BB000E4CF0EF0E4CF0DF0E4CF0CF0E4CF0BF067
:101BC000E4CF0AF0E4CF09F0E4CF08F0E4CF07F067
:101BD000E4CF06F0E4CF05F0E4CF04F0E4CF03F067
:101BE000E4CF02F0E4CF01F0E4CF00F0E4CFD9FF7E
:101BF0001200D9CFE5FFE1CFD9FF00C0E5FF01C05A
:101C0000E5FF02C0E5FF03C0E5FF04C0E5FF05C036
:101C1000E5FF06C0E5FF07C0E5FF08C0E5FF09C016
:101C2000E5FF0AC0E5FF0BC0E5FF0CC0E5FF0DC0F6
:101C3000E5FF0EC0E5FF0FC0E5FF10C0E5FF11C0D6
:101C4000E5FF12C0E5FF13C0E5FF14C0E5FF15C0B6
:101C5000E5FF16C0E5FF17C0E5FF18C0E5FF19C096
:101C6000E5FF1AC0E5FF1BC0E5FF020EDBCF00F069
:101C7000030EDBCF01F0040EDBCF02F0050EDBCF4D
:101C800003F0060EDBCF04F0070EDBCF05F0080EE5
:101C9000DBCF06F0090EDBCF07F00A0EDBCF08F032
:101CA0000B0EDBCF09F00C0EDBCF0AF00D0EDBCFF5
:101CB0000BF00F0EDBCF0CF00D6A0E6A03C00FF0B5
:101CC00004C010F005C011F006C012F0035004105B
:101CD000051006101BE1300E0001F06FF16B0B5088
:101CE000E56E0A50E56E800EE56E000EE56EF00EB4
:101CF000E56E0250E56E0150E56E0050E56E8DEC2C
:101D000010F0136E080EE1261350ECD0095036E0A7
:101D100008500A0A33E107501CE00350096E0450D2
:101D2000136E0550146E0650156ED88015AED890FF
:101D300010E3010E0D6E151C126E141C116E131C97
:101D4000106E091C0F6E0F2A04E1102A02E1114ADD
:101D5000122A075013E1D88004AED8900FE3010E89
:101D60000D6E041E036CD8B4042A03C00FF004C027
:101D700010F0E86A04BEFF0E116E126E000E046EC3
:101D8000FB0E036E800E056EE56A03C0E9FF04C01A
:101D9000F3FF32EC23F003C006F004C007F005C0E7
:101DA00009F00F50101011101210D8B45AD008C0FA
:101DB00013F0146A156A166AE56AE56AE56A135053
:101DC000E56E1250E56E1150E56E1050E56E0F5045
:101DD000E56E61EC15F0176EF3CF18F0F4CF19F043
:101DE000E9CF1AF0080EE126000E1A5C08E1000E99
:101DF000195C05E1000E185C02E10A0E175C06E3AF
:101E00000CC01BF0C60E1B261B501726FF0E062605
:101E100007220922300E172617C0E5FF06C0E9FF8A
:101E200007C0F3FF095032EC23F01650E56E155051
:101E3000E56E1450E56E1350E56E1250E56E1150CC
:101E4000E56E1050E56E0F50E56EE4EC18F00F6E85
:101E5000F3CF10F0F4CF11F0E9CF12F0080EE12625
:101E6000A0D706C003F007C004F009C005F00D506C
:101E700021E00A5012E00BA210D02D0EE56E0250A8
:101E8000E56E0150E56E0050E56E7BEC1AF0040E35
:101E9000E126010E0E6E0A060DD0FF0E0326042267
:101EA00005222D0EE56E03C0E9FF04C0F3FF0550C7
:101EB00032EC23F00B50E56E0A50E56E0550E56EEE
:101EC0000450E56E0350E56E0250E56E0150E56E7C
:101ED0000050E56E8DEC10F0006E080EE1260E50FD
:101EE00000260050E4CF1BF0E4CF1AF0E4CF19F045
:101EF000E4CF18F0E4CF17F0E4CF16F0E4CF15F0FC
:101F0000E4CF14F0E4CF13F0E4CF12F0E4CF11F0FB
:101F1000E4CF10F0E4CF0FF0E4CF0EF0E4CF0DF0FB
:101F2000E4CF0CF0E4CF0BF0E4CF0AF0E4CF09F0FB
:101F3000E4CF08F0E4CF07F0E4CF06F0E4CF05F0FB
:101F4000E4CF04F0E4CF03F0E4CF02F0E4CF01F0FB
:101F5000E4CF00F0E4CFD9FF1200D9CFE5FFE1CF05
:101F6000D9FF00C0E5FF01C0E5FF02C0E5FF03C0E7
:101F7000E5FF04C0E5FF05C0E5FF06C0E5FF07C0BB
:101F8000E5FF08C0E5FF020EDBCF00F0000E0E01FA
:101F90000A5D02E1400E095D05E209CE01F00ACEBC
:101FA00002F003D0400E016E026A0044FE0B036E85
:101FB0000328040DF450036EF3CF00F0000E00244C
:101FC000046E0D0E0320056E000E0024066E0D0E2D
:101FD0000320076E06C0E9FF07C0EAFFEFCF06F057
:101FE000FC0E061604C0E9FF05C0EAFF06C0EFFFBD
:101FF000000E0024046E0D0E0320056E000E00245A
:10200000066E0D0E0320076E06C0E9FF07C0EAFF4B
:10201000EFCF06F0030E0214061204C0E9FF05C05C
:10202000EAFF06C0EFFF000E0024046E0D0E032031
:10203000056E044A052A0150066E04C0E9FF05C07A
:10204000EAFF06C0EFFF000E00260D0E0322020E6F
:102050000026D8B0032A400E046E050E056E00C09F
:10206000E9FF03C0EAFF04C0EEFF05C0EFFF015027
:102070000E01095F02500A5B050E0E01046F400E4F
:10208000036F800E056F006A00C003F0046A0250FF
:10209000045C02E10150035C2BE203CE03F004CEAA
:1020A00004F005CE05F000CE06F001CE07F002CE1A
:1020B00008F006C0E9FF07C0F3FF0850F6EC22F075
:1020C000066E0E01002B03E3013F01D0022B06C078
:1020D000E5FF03C0E9FF04C0F3FF055032EC23F035
:1020E0000E01032B03E3043F01D0052B002ACCD7BC
:1020F000E4CF08F0E4CF07F0E4CF06F0E4CF05F03A
:10210000E4CF04F0E4CF03F0E4CF02F0E4CF01F039
:10211000E4CF00F0E4CFD9FF1200D9CFE5FFE1CF43
:10212000D9FF00C0E5FF01C0E5FF02C0E5FF03C025
:10213000E5FF04C0E5FF05C0E5FF06C0E5FF07C0F9
:10214000E5FF08C0E5FF09C0E5FF0AC0E5FF0BC0D9
:10215000E5FF0CC0E5FF0DC0E5FF0EC0E5FF020E78
:10216000DBCF00F0030EDBCF01F0040EDBCF02F07B
:10217000050EDBCF03F0060EDBCF04F0070EDBCF3E
:1021800005F0080EDBCF06F0090EDBCF07F0086A7A
:10219000200E096E065022E00A6A03C00BF004C04C
:1021A0000CF005C00DF00BC0E9FF0CC0F3FF0D50A3
:1021B000F6EC22F00E6E0E5006E00A2A0B2AF3E32C
:1021C0000C4A0D2AF0D706500A5C02E3066A02D0D8
:1021D0000A50065E07A202D0300E096E07B019D071
:1021E000076A06C00AF00A5005E107C008F00AC0F5
:1021F00006F00FD00950E56E0250E56E0150E56E15
:102200000050E56E7BEC1AF0040EE126072A0A0660
:10221000EAD708C007F003C0E9FF04C0F3FF055088
:10222000F6EC22F0086E085012E00850E56E0250FD
:10223000E56E0150E56E0050E56E7BEC1AF0040E81
:10224000E126072A032AE7E3044A052AE4D707C060
:1022500003F006C004F004500FE00950E56E025090
:10226000E56E0150E56E0050E56E7BEC1AF0040E51
:10227000E126032A0406EFD7F36A0350E4CF0EF0F9
:10228000E4CF0DF0E4CF0CF0E4CF0BF0E4CF0AF094
:10229000E4CF09F0E4CF08F0E4CF07F0E4CF06F094
:1022A000E4CF05F0E4CF04F0E4CF03F0E4CF02F094
:1022B000E4CF01F0E4CF00F0E4CFD9FF1200D9CF92
:1022C000E5FFE1CFD9FF00C0E5FF01C0E5FF02C097
:1022D000E5FF03C0E5FF04C0E5FF020EDBCF00F021
:1022E000030EDBCF01F06C0E0024026E036A280E91
:1022F0000322046A000E042202C0F6FF03C0F7FFA7
:1023000004C0F8FF0900F5CF02F0030E025CD8B05C
:102310009AD0FA6AFB6A0234FA36E834FA36FC0BD1
:10232000300FE56E230EFA22000EFB22E450F96E08
:102330009EEF11F0CBEF11F0F8EF11F0015015E026
:102340004C0E0024026E036A280E0322046A000E5B
:10235000042202C0F6FF03C0F7FF04C0F8FF090023
:10236000F5CF02F0025092126ED04C0E0024026E95
:10237000036A280E0322046A000E042202C0F6FF3C
:1023800003C0F7FF04C0F8FF0900F5CF02F00250C8
:10239000FF08921658D0015015E04C0E0024026E32
:1023A000036A280E0322046A000E042202C0F6FF0C
:1023B00003C0F7FF04C0F8FF0900F5CF02F0025098
:1023C000931241D04C0E0024026E036A280E0322A1
:1023D000046A000E042202C0F6FF03C0F7FF04C027
:1023E000F8FF0900F5CF02F00250FF0893162BD03A
:1023F000015015E04C0E0024016E026A280E0222E4
:10240000036A000E032201C0F6FF02C0F7FF03C0FB
:10241000F8FF0900F5CF01F00150941214D0016AC1
:10242000026A4C0E0026280E0122000E022200C075
:10243000F6FF01C0F7FF02C0F8FF0900F5CF00F07A
:102440000050FF089416E4CF04F0E4CF03F0E4CF8B
:1024500002F0E4CF01F0E4CF00F0E4CFD9FF1200A6
:10246000D9CFE5FFE1CFD9FF00C0E5FF01C0E5FF0F
:1024700002C0E5FF03C0E5FF04C0E5FF020EDBCFAD
:1024800000F0030EDBCF01F06C0E0024026E036A35
:10249000280E0322046A000E042202C0F6FF03C0C5
:1024A000F7FF04C0F8FF0900F5CF02F0030E025C4D
:1024B000D8B09AD0FA6AFB6A0234FA36E834FA36AF
:1024C000FC0BD20FE56E240EFA22000EFB22E45024
:1024D000F96E6FEF12F09CEF12F0C9EF12F001509D
:1024E00015E04C0E0024026E036A280E0322046AD3
:1024F000000E042202C0F6FF03C0F7FF04C0F8FF7D
:102500000900F5CF02F0025089126ED04C0E002463
:10251000026E036A280E0322046A000E042202C01F
:10252000F6FF03C0F7FF04C0F8FF0900F5CF02F083
:102530000250FF08891658D0015015E04C0E0024B7
:10254000026E036A280E0322046A000E042202C0EF
:10255000F6FF03C0F7FF04C0F8FF0900F5CF02F053
:1025600002508A1241D04C0E0024026E036A280EDB
:102570000322046A000E042202C0F6FF03C0F7FF24
:1025800004C0F8FF0900F5CF02F00250FF088A16D8
:102590002BD0015015E04C0E0024016E026A280E6B
:1025A0000222036A000E032201C0F6FF02C0F7FFF9
:1025B00003C0F8FF0900F5CF01F001508B1214D0D1
:1025C000016A026A4C0E0026280E0122000E022229
:1025D00000C0F6FF01C0F7FF02C0F8FF0900F5CF09
:1025E00000F00050FF088B16E4CF04F0E4CF03F0B6
:1025F000E4CF02F0E4CF01F0E4CF00F0E4CFD9FF64
:102600001200D9CFE5FFE1CFD9FF00C0E5FF01C03F
:10261000E5FF02C0E5FF03C0E5FF04C0E5FF05C01C
:10262000E5FF06C0E5FF07C0E5FF08C0E5FF09C0FC
:10263000E5FF0AC0E5FF0BC0E5FF0CC0E5FF0DC0DC
:10264000E5FF020EDBCF00F0030EDBCF01F0040E3E
:10265000DBCF02F0050EDBCF03F0060EDBCF04F07C
:10266000070EDBCF05F0080EDBCF06F0090EDBCF3F
:1026700007F0D88003AED890086A083608500FE0FB
:10268000031C0C6E021C0B6E011C0A6E001C096EF2
:10269000092A0DE10A2A0BE10B4A0C2A08D000C0D6
:1026A00009F001C00AF002C00BF003C00CF0D880A2
:1026B00007AED890006A003600500FE0071C0D6E80
:1026C000061C036E051C026E041C016E012A0DE13E
:1026D000022A0BE1034A0D2A08D004C001F005C00C
:1026E00002F006C003F007C00DF00D50E56E035078
:1026F000E56E0250E56E0150E56E0C50E56E0B5034
:10270000E56E0A50E56E0950E56EE4EC18F0016ED6
:10271000F3CF02F0F4CF03F0E9CF04F0080EE12686
:102720000050081A085016E0041C076E031C066EC1
:10273000021C056E011C006E002A04E1052A02E15C
:10274000064A072A07C0E9FF06C0F4FF05C0F3FFE9
:10275000005007D004C0E9FF03C0F4FF02C0F3FF3C
:102760000150E4CF0DF0E4CF0CF0E4CF0BF0E4CF58
:102770000AF0E4CF09F0E4CF08F0E4CF07F0E4CFAB
:1027800006F0E4CF05F0E4CF04F0E4CF03F0E4CFAB
:1027900002F0E4CF01F0E4CF00F0E4CFD9FF120063
:1027A0001201000202000040D804ABFE000001024A
:1027B000000109024300020100C0140904000001E5
:1027C0000202010005240010010424020005240671
:1027D000000105240100010705820310000209041D
:1027E0000100020A0000000705030240000007057F
:1027F0008302400000000403090416034A0050004D
:1028000020004D0041004E0044004F004E002000CB
:102810001203500069006E006700750069006E00C9
:102820006F00F62700FA270010280000286E756C4C
:102830006C29000025660000256400002578000052
:10284000256F0000256200002563000001020408D6
:102850001020408001020408100102040102040853
:102860001020408001020408102040800101010175
:102870000101010100000000000404040202020240
:10288000020202020303030303030303060302011C
:10289000127A000048E8010090D0030020A1070050
:1028A00040420F0080841E0000093D0000127A00A3
:1028B00048656C6C6F20576F726C6420210D0A00A4
:1028C000256C7520487A0D0A000053444343207656
:1028D000657273696F6E2025640D0A00534443438B
:1028E000207265766973696F6E2025640D0A000099
:1028F000693D2564200D0A00E806E56E630E8FEC45
:1029000014F0E4500BE000D0E56E630E8FEC14F091
:1029100000D000D00000E450E82EF6D71200E80600
:102920000000E85007E000D000D000D000D0000048
:10293000E82EFAD7120000C0E5FF01C0E5FF02C093
:10294000E5FF03C0E5FF04C0E5FFD350030B006EB5
:10295000FA6AFB6A0034FA36E834FA36FC0B6E0F7A
:10296000E56E290EFA22000EFB22E450F96EBFEF4D
:1029700014F021EF15F027EF15F027EF15F0E56AB9
:10298000010EE56EE568F90EE56E45EC1CF0006E93
:10299000040EE126030E00168C0E0024016E026A5E
:1029A000280E0222036A000E032201C0F6FF02C0B5
:1029B000F7FF03C0F8FF0900F5CF00F09BAC22D071
:1029C00000C001F0E56AE56AE56A0150E56E020EB5
:1029D000E56EDC0EE56E6C0EE56E000EE56A01EC50
:1029E00013F0016EF3CF02F0F4CF03F0E9CF04F05F
:1029F000080EE12604C0E9FF03C0F4FF02C0F3FFA4
:102A0000015054D0E56AE56AE56A0050E56EE56A72
:102A10007A0EE56E120EE56E000EE56A01EC13F01B
:102A2000006EF3CF01F0F4CF02F0E9CF03F0080E0F
:102A3000E12603C0E9FF02C0F4FF01C0F3FF00502C
:102A400035D0E96AF46A800EF36EE86A2FD0D3506D
:102A5000E838070BE56AE56EE56A040EE56E3DECC5
:102A60001EF0006EF3CF01F0040EE126026A900E14
:102A70000026280E0122000E022200C0F6FF01C02F
:102A8000F7FF02C0F8FF0900F5CF00F00900F5CF0D
:102A900001F00900F5CF02F00900F5CF03F003C003
:102AA000E9FF02C0F4FF01C0F3FF0050E4CF04F0DF
:102AB000E4CF03F0E4CF02F0E4CF01F0E4CF00F084
:102AC0001200D9CFE5FFE1CFD9FF00C0E5FF01C07B
:102AD000E5FF02C0E5FF03C0E5FF04C0E5FF05C058
:102AE000E5FF06C0E5FF07C0E5FF08C0E5FF09C038
:102AF000E5FF0AC0E5FF020EDBCF00F0030EDBCFDF
:102B000001F0040EDBCF02F0050EDBCF03F0060E62
:102B1000DBCF04F0070EDBCF05F0080EDBCF06F0AD
:102B2000090EDBCF07F0086A0450051006100710E5
:102B300005E1E968F468F368E86847D0096A075076
:102B4000800BE8440A6E0A501BE104500426053647
:102B5000063607360750035C08E10650025C05E1C3
:102B60000550015C02E10450005C06E2D890073297
:102B700006320532043204D0092A09C008F0DFD732
:102B80000750035C08E10650025C05E10550015C5A
:102B900002E10450005C08E30450005E0550015A55
:102BA0000650025A0750035AD890073206320532AF
:102BB000043208C009F008060950E2E103C0E9FF49
:102BC00002C0F4FF01C0F3FF0050E4CF0AF0E4CFED
:102BD00009F0E4CF08F0E4CF07F0E4CF06F0E4CF4B
:102BE00005F0E4CF04F0E4CF03F0E4CF02F0E4CF4B
:102BF00001F0E4CF00F0E4CFD9FF1200D9CFE5FF18
:102C0000E1CFD9FF00C0E5FF01C0E5FF02C0E5FF4D
:102C100003C0E5FF04C0E5FF05C0E5FF06C0E5FF12
:102C200007C0E5FF08C0E5FF09C0E5FF020EDBCFE6
:102C300000F00044FE0B040DF450026EF3CF00F0E0
:102C4000000E0024016E0D0E0220036E01C0E9FF8C
:102C500003C0EAFFEFCF01F0030E01160150056E2D
:102C6000046A000E00260D0E0222004A022A00C04D
:102C7000E9FF02C0EAFFEFCF00F0016A0450001242
:102C80000550011200500E01092701500A23050EBC
:102C90000E01016F400E006F800E026F026A036A20
:102CA0000150035C02E10050025C2CE203CE04F010
:102CB00004CE05F005CE06F000CE07F001CE08F0F8
:102CC00002CE09F007C0E9FF08C0F3FF0950F6EC97
:102CD00022F0076E0E01002B03E3013F01D0022B0F
:102CE00007C0E5FF04C0E9FF05C0F3FF065032EC62
:102CF00023F00E01032B03E3043F01D0052B024A0E
:102D0000032ACED7E4CF09F0E4CF08F0E4CF07F0F0
:102D1000E4CF06F0E4CF05F0E4CF04F0E4CF03F015
:102D2000E4CF02F0E4CF01F0E4CF00F0E4CFD9FF2C
:102D3000120000C0E5FF01C0E5FF02C0E5FF03C0CF
:102D4000E5FF04C0E5FF05C0E5FF1F0E0501001506
:102D5000006E02C501F0005012E10150010A01E0CD
:102D600076D0010E0E01186F05010151030A04E12E
:102D7000010E0E011A6F6BD00E011A6B68D0005055
:102D8000020A01E064D00F0E05010415006E800EEA
:102D90000415026E0150D8A45AD00050D8B457D0B0
:102DA000010E0E01186F0D0E036E000E016E800EE7
:102DB000046E0050080DF450056EF3CF00F0005083
:102DC00001240E01036F05500320046FE86A05BE5D
:102DD000E8680420056F025005E0040E0327000E8A
:102DE0000423052305010151030A10E103CE00F07D
:102DF00004CE01F005CE03F0840EE56E00C0E9FFBD
:102E000001C0F3FF035032EC23F021D00250010A3D
:102E10000FE103CE00F004CE01F005CE02F0E56A2A
:102E200000C0E9FF01C0F3FF025032EC23F00FD0E5
:102E300003CE00F004CE01F005CE02F0880EE56E60
:102E400000C0E9FF01C0F3FF025032EC23F0E4CFF1
:102E500005F0E4CF04F0E4CF03F0E4CF02F0E4CFD8
:102E600001F0E4CF00F01200D9CFE5FFE1CFD9FFA8
:102E700000C0E5FF01C0E5FF02C0E5FF03C0E5FFBC
:102E8000020EDBCF00F06C0E0024016E026A280EE9
:102E90000222036A000E032201C0F6FF02C0F7FF00
:102EA00003C0F8FF0900F5CF01F0030E015CD8B0B4
:102EB00062D0FA6AFB6A0134FA36E834FA36FC0B5F
:102EC000D00FE56E2E0EFA22000EFB22E450F96EB2
:102ED0006EEF17F088EF17F0A2EF17F04C0E0024FA
:102EE000016E026A280E0222036A000E032201C04C
:102EF000F6FF02C0F7FF03C0F8FF0900F5CF01F0AD
:102F000080500116015002E0010E36D0E86A34D03C
:102F10004C0E0024016E026A280E0222036A000E83
:102F2000032201C0F6FF02C0F7FF03C0F8FF09004B
:102F3000F5CF01F081500116015002E0010E1CD0C6
:102F4000E86A1AD0016A026A4C0E0026280E012295
:102F5000000E022200C0F6FF01C0F7FF02C0F8FF1A
:102F60000900F5CF00F082500016005002E0010E7B
:102F700003D0E86A01D0E86AE4CF03F0E4CF02F0BE
:102F8000E4CF01F0E4CF00F0E4CFD9FF1200D9CFB5
:102F9000E5FFE1CFD9FF00C0E5FF01C0E5FF02C0BA
:102FA000E5FF03C0E5FF04C0E5FF05C0E5FF06C07F
:102FB000E5FF07C0E5FF08C0E5FF09C0E5FF020E19
:102FC000DBCF00F0030EDBCF01F0040EDBCF02F00D
:102FD000036A0E011B51050A02E0E86A50D00D0198
:102FE000FF5102E1E86A4BD00D0118BF47D0400EF7
:102FF000195DD8A019CDE8FF046A0D011951045CD0
:1030000020E204500024056EE86A0120066EE86A9A
:103010000220076E800E0424086E096A050E09223C
:1030200008C0E9FF09C0EAFFEFCF08F008C0E5FFDC
:1030300005C0E9FF06C0F3FF075032EC23F0042A75
:10304000DCD704C003F0400E0D011815186F006A9C
:1030500018BD002A0050D880E866D890006A003673
:103060000050010BE840E840F46E1851BF0BF4101B
:10307000186F400E196F880E1811186F0350E4CFA7
:1030800009F0E4CF08F0E4CF07F0E4CF06F0E4CF96
:1030900005F0E4CF04F0E4CF03F0E4CF02F0E4CF96
:1030A00001F0E4CF00F0E4CFD9FF1200D9CFE5FF63
:1030B000E1CFD9FF00C0E5FF01C0E5FF02C0E5FF99
:1030C00003C0E5FF04C0E5FF05C0E5FF06C0E5FF5E
:1030D00007C0E5FF08C0E5FF09C0E5FF020EDBCF32
:1030E00000F0030EDBCF01F0040EDBCF02F0050E83
:1030F000DBCF03F0046A0E011B51050A02E0E86A07
:103100004CD00D01FF5102E1E86A47D00D011CBF10
:1031100043D0410E035C02E3400E036E056A035088
:10312000055C1DE2C00E0524066E076A050E072227
:1031300005500024086EE86A0120096EE86A022042
:1031400008C0E9FF09C0F3FFF6EC22F0086E06C0E4
:10315000E9FF07C0EAFF08C0EFFF052AE0D705C076
:1031600004F005500D011D6F400E1C151C6F006A08
:103170001CBD002A0050D880E866D890006A00364E
:103180000050010BE840E840F46E1C51BF0BF410F6
:103190001C6F880E1C111C6F0450E4CF09F0E4CFA3
:1031A00008F0E4CF07F0E4CF06F0E4CF05F0E4CF79
:1031B00004F0E4CF03F0E4CF02F0E4CF01F0E4CF79
:1031C00000F0E4CFD9FF1200D9CFE5FFE1CFD9FF5E
:1031D00000C0E5FF01C0E5FF02C0E5FF03C0E5FF59
:1031E00004C0E5FF05C0E5FF06C0E5FF07C0E5FF39
:1031F00008C0E5FF09C0E5FF0AC0E5FF0BC0E5FF19
:103200000CC0E5FF0DC0E5FF020EDBCF00F0030EA2
:10321000DBCF01F0040EDBCF02F0050EDBCF03F0B5
:10322000060EDBCF04F0070EDBCF05F0080EDBCF78
:1032300006F0090EDBCF07F0086A096A0A6A0B6A12
:10324000200E0C6E0350800BE8440D6E00500026DB
:103250000136023603360850082609360A360B3680
:103260000D50D8A4088007500B5C08E106500A5C9A
:1032700005E10550095C02E10450085C09E30450D3
:10328000085E0550095A06500A5A07500B5A00802A
:103290000C2ED8D703C0E9FF02C0F4FF01C0F3FF32
:1032A0000050E4CF0DF0E4CF0CF0E4CF0BF0E4CF0E
:1032B0000AF0E4CF09F0E4CF08F0E4CF07F0E4CF60
:1032C00006F0E4CF05F0E4CF04F0E4CF03F0E4CF60
:1032D00002F0E4CF01F0E4CF00F0E4CFD9FF120018
:1032E00000C0E5FF01C0E5FF02C0E5FF03C0E5FF48
:1032F00004C0E5FF05C0E5FF1F0E05010015006EC7
:103300000501406B416B005013E1010E0E01186F77
:103310000E01195104E0010E05014011406F0E012C
:103320001A51D8B44CD0020E05014011406F47D05D
:103330000050010A04E1010E0E01186F40D0005048
:10334000020A01E03CD00F0E05010415006E800E4C
:103350000415016E010E0E01186F0D0E036E000EA6
:10336000026E800E046E0050080DF450056EF3CF0F
:1033700000F0005002240E01036F05500320046F7B
:10338000E86A05BEE8680420056F015005E0040EF8
:103390000327000E0423052303CE00F004CE01F022
:1033A00005CE02F000C0E9FF01C0F3FF0250F6ECC9
:1033B00022F0006E00A403D0010E0501406F0E0143
:1033C00018510BE0050E0E01016F400E006F800ECC
:1033D000026F020E0E01096F0A6BE4CF05F0E4CF15
:1033E00004F0E4CF03F0E4CF02F0E4CF01F0E4CF47
:1033F00000F0120000C0E5FF01C0E5FF02C0E5FFDC
:1034000003C0E5FF05010051800A01E06BD003C550
:1034100000F002C501F00050010A0FE1010E0E019B
:10342000186F000E0E01026F270E016FA00E006FC5
:10343000120E0E01096F0A6B55D00050020A17E1F7
:10344000010E0E01186F000E0E01026F270E016FA4
:10345000B20E006FB40EF66E270EF76E000EF86E09
:103460000900F5CF09FE0900F5CF0AFE3BD0005058
:10347000030A32E1010E0E01186F0150030DF450E2
:10348000026EF3CF01F0036A220E0126280E0222FB
:10349000000E032201C0F6FF02C0F7FF03C0F8FFD1
:1034A0000900F5CF00FE0900F5CF01FE0900F5CFB8
:1034B00002FE00CE01F001CE02F002CE03F001C008
:1034C000E9FF02C0F3FF0350F6EC22F0016E01C0E9
:1034D00009FE0E010A6B06D00050060A03E1010E38
:1034E0000E01186FE4CF03F0E4CF02F0E4CF01F057
:1034F000E4CF00F01200D9CFE5FFE1CFD9FF00C043
:10350000E5FF01C0E5FF02C0E5FF03C0E5FF04C021
:10351000E5FF05C0E5FF06C0E5FF020EDBCF00F0CA
:10352000030EDBCF01F0040EDBCF02F0050EDBCF84
:1035300003F000500110021033E000C0E9FF01C0A9
:10354000F3FF025049EC22F0046EF3CF05F0F4CF04
:1035500006F003C0E5FF04C0E9FF05C0F3FF065015
:1035600032EC23F000C0E9FF01C0F3FF025049EC48
:1035700022F0046EF3CF05F0F4CF06F0042A02E344
:10358000054A062A04C0E5FF05C0F4FF06C0F6FFA1
:1035900000C0E9FF01C0F3FF025016EC23F016D083
:1035A0000350E56EF2CFE5FFF29E0500CA0EFD6EF8
:1035B000350EFE6E000EFF6EE4BEF28EFDCDFBFFFB
:1035C000FCCDFAFF0D01FB51F96EE652E4CF06F097
:1035D000E4CF05F0E4CF04F0E4CF03F0E4CF02F051
:1035E000E4CF01F0E4CF00F0E4CFD9FF120000C037
:1035F000E5FF01C0E5FF02C0E5FF03C0E5FF000EE7
:10360000E56E280EE56EB00EE56E1DEC1FF0030EA4
:10361000E1269BEC14F0006EF3CF01F0F4CF02F042
:10362000E9CF03F00350E56E0250E56E0150E56E00
:103630000050E56E000EE56E280EE56EC00EE56EDC
:103640001DEC1FF0070EE126010EE56E410EE56E42
:10365000000EE56E280EE56ECA0EE56E1DEC1FF03D
:10366000050EE126200EE56EE568000EE56E280EDB
:10367000E56EDC0EE56E1DEC1FF0050EE126030E77
:10368000E56EE80EE56E78EC20F0E652E652006A50
:1036900000C001F0002AE56A0150E56E000EE56EFB
:1036A000280EE56EF00EE56E1DEC1FF0050EE1260E
:1036B000120EE56EE8EC21F0E652E56A640EE56E66
:1036C00078EC20F0E652E6520050E2E1E4CF03F05D
:1036D000E4CF02F0E4CF01F0E4CF00F0120000C02C
:1036E000E5FF01C500F005010051600BD8A461D0D1
:1036F0000050050A09E1010E0E01186F040E0E01BB
:103700001B6F02C513FE55D00050060A03E1FAEC08
:1037100019F04FD00050090A12E1010E0E01186F86
:1037200002C51CFE0E011C5104E1040E0E011B6FAC
:1037300040D0050E0E011B6F1BEC20F03AD000505C
:10374000080A0FE1010E0E01186F0E0E0E01016F37
:103750001C0E006F800E026F010E0E01096F0A6BC6
:1037600028D0005003E170EC19F023D00050010A7A
:1037700003E00050030A03E199EC16F01AD0005060
:103780000A0A11E1010E0E01186F0501406B050ECA
:103790000E01016F400E006F800E026F010E0E01D0
:1037A000096F0A6B06D000500B0A03E1010E0E01EF
:1037B000186FE4CF00F0120000C0E5FF0D010451C6
:1037C000006E009E0050046F0051006E009E00507D
:1037D000006F0E011D6B0E01186B0E01146B0E01B4
:1037E000096B0A6B6FEC1BF01F0E05010015010A37
:1037F00002E1F4EC1CF00E0118510BE1400E0D013A
:10380000016F000E026F050E036F840E006F046FD0
:1038100038D0050100AF26D00E010A510501075D21
:1038200004E10E0109510501065D04E206C509FE29
:1038300007C50AFE000EE56AADEC0FF0E652020E77
:103840000E011D6F400E0D01016F000E026F050E7F
:10385000036F800E006F400E066F050E076FC80ED7
:10386000046F0FD0010E0E011D6F0D01056BC80E08
:10387000046F400E016F400E026F050E036FC80EFD
:10388000006F6598E4CF00F01200D9CFE5FFE1CFDB
:10389000D9FF00C0E5FF01C0E5FF02C0E5FF03C09E
:1038A000E5FF04C0E5FF05C0E5FF06C0E5FF07C072
:1038B000E5FF020EDBCF00F0030EDBCF01F0040EBC
:1038C000DBCF02F0050EDBCF03F00250046E035095
:1038D000056E066A076A0450F86E0150046E0250C5
:1038E000056E0350066E076A0450F76E0050F66EC0
:1038F0000900F5CF00F00900F5CF01F0026A015090
:10390000046E036A056A005003260550042204C0B1
:10391000F3FF0350E4CF07F0E4CF06F0E4CF05F067
:10392000E4CF04F0E4CF03F0E4CF02F0E4CF01F001
:10393000E4CF00F0E4CFD9FF120017EEFFF027EE3E
:10394000FFF0F86AA68EA69CBF0EE96E0E0EEA6E18
:103950000068ED6A0050FDE19C0EF66E460EF76EB3
:10396000000EF86E0900F5CF05F00900F5CF06F05E
:1039700034D00900F5CF00F00900F5CF01F00900BF
:10398000F5CF02F009000900F5CFE9FF0900F5CFF6
:10399000EAFF090009000900F5CF03F00900F5CF9F
:1039A00004F009000900F6CF07F0F7CF08F0F8CFD0
:1039B00009F000C0F6FF01C0F7FF02C0F8FF03D016
:1039C0000900F5CFEEFF0306FBE20406F9E207C0AB
:1039D000F6FF08C0F7FF09C0F8FF0506CAE20606B1
:1039E000C8E209EC22F0FFD700C0E5FF600E050138
:1039F0000015200A01E049D001C500F0005001E1A6
:103A000044D00050010A01E140D00050200A07E0F4
:103A10000050210A13E00050220A1FE036D00D0E9C
:103A20000E01016FF00E006F800E026F070E0E0187
:103A3000096F0A6B010E0E01186F27D00D0E0E01D3
:103A4000016FF00E006F800E026F070E0E01096FFE
:103A50000A6B010E0E01186F18D005010251030AFE
:103A600004E1010E0D01FF6F02D00D01FF6B0D0E81
:103A70000E01016FE80E006F800E026F080E0E013E
:103A8000096F0A6B010E0E01186FE4CF00F01200EF
:103A900000C0E5FF64B422D03C0E0D010015006E9D
:103AA0000040E8403F0B0D0A03E1DCEC1BF040D086
:103AB0000E011D51010A0FE1000EE56AFEEC15F042
:103AC000E6520D0100AD03D0880E006F31D0C80E54
:103AD0000D01006F2DD025EC23F02AD0006A64B4CC
:103AE000002A0050010A24E10F0138510CE10E01B7
:103AF0001B51040A08E102C538FF0F01385103E1E8
:103B0000030E0E011B6F0E011D51020A0FE1000E84
:103B1000E56AADEC0FF0E6520D0104AD03D0880E5E
:103B2000046F06D0C80E0D01046F02D025EC23F0FF
:103B3000E4CF00F01200D9CFE5FFE1CFD9FF00C0FC
:103B4000E5FF01C0E5FF02C0E5FF03C0E5FF04C0DB
:103B5000E5FF05C0E5FF020EDBCF06FE030EDBCF5F
:103B600007FE040EDBCF08FE050EDBCF00F0060ECD
:103B7000DBCF01F0070EDBCF02F0080EDBCF03F046
:103B8000090EDBCF04F00A0EDBCF05F00550E56E21
:103B90000450E56E0350E56E0250E56E0150E56E8F
:103BA0000050E56E800EE56E0E0EE56E060EE56EBB
:103BB0000EEC06F0006E090EE1260050E4CF05F091
:103BC000E4CF04F0E4CF03F0E4CF02F0E4CF01F05F
:103BD000E4CF00F0E4CFD9FF1200D9CFE5FFE1CF69
:103BE000D9FF00C0E5FF01C0E5FF02C0E5FF03C04B
:103BF000E5FF04C0E5FF05C0E5FF020EDBCFFBFDDE
:103C0000030EDBCFFCFD040EDBCFFDFD050EDBCF8D
:103C100000F0060EDBCF01F0070EDBCF02F0080E3E
:103C2000DBCF03F0090EDBCF04F00A0EDBCF05F08B
:103C30000550E56E0450E56E0350E56E0250E56EEA
:103C40000150E56E0050E56E000EE56AE56AE56A32
:103C50000EEC06F0006E090EE1260050E4CF05F0F0
:103C6000E4CF04F0E4CF03F0E4CF02F0E4CF01F0BE
:103C7000E4CF00F0E4CFD9FF1200D9CFE5FFE1CFC8
:103C8000D9FF00C0E5FF01C0E5FF02C0E5FF03C0AA
:103C9000E5FF020EDBCF00F0030EDBCF01F0040ED8
:103CA000DBCF02F0050EDBCF03F000500E010D6FED
:103CB00001500E6F02500E010F6F0350106F0E0176
:103CC0000D510E010F03F4CF01F0F3CF00F00050BF
:103CD0000E01116F0150126F0E010D510E011003F4
:103CE000F3CF00F00E010E510E010F03F3CF01F0E0
:103CF000015000260E01125100260050126F12CE04
:103D0000F3FF1151E4CF03F0E4CF02F0E4CF01F070
:103D1000E4CF00F0E4CFD9FF1200D9CFE5FFE1CF27
:103D2000D9FF00C0E5FF01C0E5FF02C0E5FF03C009
:103D3000E5FF04C0E5FF050ED924006E000EDA2071
:103D4000016E800E026E030E0026000E012202227A
:103D5000020ED924036E000EDA20046E0250E56EC6
:103D60000150E56E0050E56E070EDBCFE5FF060E55
:103D7000DBCFE5FF050EDBCFE5FF800EE56E0450DF
:103D8000E56E0350E56E0EEC06F0006E090EE126BE
:103D90000050E4CF04F0E4CF03F0E4CF02F0E4CF2E
:103DA00001F0E4CF00F0E4CFD9FF120000C0E5FF3E
:103DB00001C0E5FF02C0E5FF03C0E5FF006ABFECFC
:103DC00022F0016E01C002F0E56A0250E56E000EBD
:103DD000E56E280EE56E480EE56E1DEC1FF0050E33
:103DE000E12600C002F0002A036A800E02260D0EB2
:103DF000032202C0E9FF03C0EAFF01C0EFFF015048
:103E00000D0ADDE1016A800E00260D0E012200C0C0
:103E1000E9FF01C0EAFFEF6A016E800E026E02C088
:103E2000F4FF01C0F3FF800EE4CF03F0E4CF02F013
:103E3000E4CF01F0E4CF00F01200D9CFE5FFE1CFED
:103E4000D9FF00C0E5FF01C0E5FF02C0E5FF020E9B
:103E5000D924006E000EDA20016E800E026E030E71
:103E60000026000E012202220250E56E0150E56E8E
:103E70000050E56E040EDBCFE5FF030EDBCFE5FF60
:103E8000020EDBCFE5FF800EE56E000EE56E600EE4
:103E9000E56E9BEC1DF0006E090EE1260050E56E0C
:103EA000800EE56E000EE56E600EE56E56EC18F0C5
:103EB000040EE126E4CF02F0E4CF01F0E4CF00F0FD
:103EC000E4CFD9FF1200F29EF29C656A0F01396BB4
:103ED0000F01266B0F01276B0F01286B0F01296B58
:103EE0000F012A6B0F012B6B0F012C6B0F012D6B38
:103EF0000F012E6B0F012F6B0F01306B0F01316B18
:103F00000F01326B0F01336B0F01346B0F01356BF7
:103F1000070EE56ED00EE56E78EC20F0E652E65224
:103F2000140E0F01396F0E011B6B0E011A6B0E017F
:103F30001C6B0E011B51050A05E064EC22F0A8EC95
:103F40001FF0F7D7A198A088A288F28EF28C1200F9
:103F500000C0E5FF0E011B51D8B435D062A404D0D7
:103F60000F0136B555EC23F0006A65B2002A005007
:103F7000010A29E062A004D00F0136B1CBEC20F099
:103F800062A804D00F0136B9D3EC22F062AC04D0A1
:103F90000F0136BD02EC06F062AA04D00F0136BB59
:103FA000E5EC22F062A203D00F0136B36292030E59
:103FB0000E011B5D08E362A606D00F0136A703D0F1
:103FC00048EC1DF06296E4CF00F01200D9CFE5FF77
:103FD000E1CFD9FF00C0E5FF01C0E5FF02C0E5FF6A
:103FE00003C0E5FF020EDBCF00F0030EDBCF01F0D4
:103FF000040EDBCF02F0050EDBCF03F00350E56EBD
:104000000250E56E0150E56E0050E56E000EE56E63
:10401000280EE56E340EE56E1DEC1FF0070EE1264E
:10402000E4CF03F0E4CF02F0E4CF01F0E4CF00F0FE
:10403000E4CFD9FF12000D01F06BC20EF16F010E3B
:10404000F26FF36BF46BF56B080EF66F0D01E86B16
:10405000E96BEA6BEB6BEC6BED6BEE6BEF6B1A0ED7
:104060000F01286F1E0E0F01296FE00E0D01166F54
:10407000000E176F400E146F196F800E1A6F050E29
:104080001B6F880E186FC00E1E6F050E1F6F400E3F
:104090001C6F050E0E011B6F120000C0E5FF01C072
:1040A000E5FF02C0E5FF03C0E5FF9BEC14F0006EE6
:1040B000F3CF01F0F4CF02F0E9CF03F0D890033250
:1040C000023201320032D890033202320132003221
:1040D00003C0E9FF02C0F4FF01C0F3FF0050E4CFCA
:1040E00003F0E4CF02F0E4CF01F0E4CF00F01200DF
:1040F000D9CFE5FFE1CFD9FF00C0E5FF01C0E5FF63
:1041000002C0E5FF03C0E5FF020EDBCF00F0030EA7
:10411000DBCF01F0026A036A0150035C02E1005048
:10412000025C06E20C0E7CEC14F0024A032AF4D77F
:10413000E4CF03F0E4CF02F0E4CF01F0E4CF00F0ED
:10414000E4CFD9FF1200D9CFE5FFE1CFD9FF00C0FE
:10415000E5FF01C0E5FF02C0E5FF03C0E5FF020E79
:10416000DBCF00F0030EDBCF01F0026A036A0150DF
:10417000035C02E10050025C03E2024A032AF7D723
:10418000E4CF03F0E4CF02F0E4CF01F0E4CF00F09D
:10419000E4CFD9FF120000C0E5FF636A626A9F0E98
:1041A0000F01376F7B0E0F01366F0F01386B160E44
:1041B0000F01266F006A62B6002A0050010A02E170
:1041C0006296F8D7659825EC23F00E011A6B0E0164
:1041D000196B0E011C6B030E0E011B6FE4CF00F078
:1041E0001200D8CFE5FFE0CFE5FFE56EF3CFE5FFA6
:1041F000F4CFE5FFE9CFE5FFEACFE5FFFACFE5FF32
:10420000FBCFE5FF3DEC23F0E4CFFBFFE4CFFAFF6B
:10421000E4CFEAFFE4CFE9FFE4CFF4FFE4CFF3FF1C
:10422000E450E4CFE0FFE4CFD8FF1000D8CFE5FFA3
:10423000E0CFE5FFE56EF3CFE5FFF4CFE5FFE9CF93
:10424000E5FFEACFE5FFFACFE5FFFBCFE5FFE4CFDF
:10425000FBFFE4CFFAFFE4CFEAFFE4CFE9FFE4CFCE
:10426000F4FFE4CFF3FFE450E4CFE0FFE4CFD8FF66
:104270001000D9CFE5FFE1CFD9FF00C0E5FF01C0B5
:10428000E5FF020EDBCF00F0030EDBCF01F00150A3
:10429000E56E0050E56E000EE56E280EE56E440EEC
:1042A000E56E1DEC1FF0050EE126E4CF01F0E4CF32
:1042B00000F0E4CFD9FF1200D9CFE5FFE1CFD9FF5D
:1042C00000C0E5FF01C0E5FF020EDBCF00F0030EEA
:1042D000DBCF01F00150E56E0050E56E000EE56E9B
:1042E000280EE56E400EE56E1DEC1FF0050EE12672
:1042F000E4CF01F0E4CF00F0E4CFD9FF1200D9CF32
:10430000E5FFE1CFD9FF00C0E5FF01C0E5FF020EE8
:10431000DBCF00F0030EDBCF01F00150E56E005063
:10432000E56E000EE56E280EE56E380EE56E1DECAE
:104330001FF0050EE126E4CF01F0E4CF00F0E4CF5A
:10434000D9FF1200D9CFE5FFE1CFD9FF00C0E5FFCB
:1043500001C0E5FF020EDBCF00F0030EDBCF01F062
:104360000150E56E0050E56E000EE56E280EE56E1C
:104370003C0EE56E1DEC1FF0050EE126E4CF01F0CA
:10438000E4CF00F0E4CFD9FF1200D9CFE5FFE1CFB1
:10439000D9FF00C0E5FF01C0E5FF020EDBCF00F052
:1043A000030EDBCF01F00150E56E0050E56E000E0C
:1043B000E56E280EE56E380EE56E1DEC1FF0050E5D
:1043C000E126E4CF01F0E4CF00F0E4CFD9FF120002
:1043D000D9CFE5FFE1CFD9FF00C0E5FF01C0E5FF80
:1043E000020EDBCF00F00050E56E34EC17F0016EEA
:1043F000E65201700150E56E0050E56E30EC12F0AF
:10440000E652E652E4CF01F0E4CF00F0E4CFD9FF6A
:1044100012009B8C580E006E020E016E00C002F05E
:1044200001C003F0FF0E0026012202500310F6E146
:10443000D08EF29EF29C07EC23F006EC06F07DECA9
:1044400022F063EC1FF046EC23F0F7EC1AF0FDD7F6
:104450001200E8AE0AD0F3CFEAFFEE50EECFF3FF42
:10446000EECFF4FFEECFE9FF1200E8BC5BEF23F0E4
:10447000E9CFF6FFF3CFF7FFF86E0900F55009001A
:10448000F5CFF3FF0900F5CFF4FF0900F5CFE9FF01
:104490001200E8AE08D0F3CFEAFFEE50EECFF3FF04
:1044A000EECFF4FF1200E8BC5BEF23F0E9CFF6FF9C
:1044B000F3CFF7FFF86E0900F5500900F5CFF3FFD1
:1044C0000900F5CFF4FF120065B607D0656A0F0149
:1044D000366B6586010E0E011B6F0E011B51010A22
:1044E0000BE165BA09D0626A0F01366B0F013681A4
:1044F0003689020E0E011B6F1200550EA76EAA0E12
:10450000A76E0E01BF91060E0E01FC6F0B0E0E0181
:10451000C56F0A0E0E01C46F550EA76EAA0EA76EC8
:104520000E01BF811200D9CFE5FFE1CFD9FF020E06
:10453000DBCF1EFE010EE56E800EE56E0E0EE56E03
:104540001E0EE56E56EC18F0040EE126E4CFD9FFFE
:104550001200E8AE06D0F3CFEAFFEE50EECFF3FF45
:104560001200E8BC5BEF23F0E9CFF6FFF3CFF7FFD3
:10457000F86E0900F5500900F5CFF3FF120000C0F6
:10458000E5FF800EE56E000EE56EA00EE56EC7EC51
:1045900017F0006E030EE1260050F3E00001A05179
:1045A000E4CF00F01200D9CFE5FFE1CFD9FF0F0132
:1045B000368562986582A198F290A088F286030001
:1045C000A098F296E4CFD9FF120000C0E5FF006A80
:1045D0000F0126B1002A0050010A04E125EC23F066
:1045E0000F012691629AE4CF00F01200E8AE04D0E9
:1045F000F3CFEAFFEE501200E8BC5BEF23F0E9CF07
:10460000F6FFF3CFF7FFF86E0900F5501200896A44
:104610008A6A8B6A8C6A8D6A926A936A9490949281
:104620009494949C949E956A966A1200E8AE09D080
:10463000F3CFEAFFE4CFEEFFF4CFEEFFF6CFEEFFCD
:104640001200E8BC5BEF23F012000E011D6B400E60
:104650000D01016F000E026F050E036F880E006FD3
:10466000046B1200E8AE05D0F3CFEAFFE4CFEEFF13
:104670001200E8BC5BEF23F01200A1A806D0A198BD
:10468000A8EC1FF0629C6290636A1200E56A120E49
:10469000E56E5FEC11F0E652E65212000100B446FE
:1046A0000000FE0D00000200000065920F0136952B
:0846B0006294120000001200E8
:00000001FF
