:020000040000FA
:040C000055EF0FF0AD
:080C0800D7EF10F00F0EC16ED2
:060C1000070EB46E120095
:080C180012EF11F000C0E5FF2E
:100C200001C0E5FF02C0E5FF03C0E5FF04C0E5FF2A
:100C300005C0E5FF06C0E5FF07C0E5FF08C0E5FF0A
:100C400009C0E5FF0AC0E5FF0401736B746B756BA7
:100C5000006A2A0E0024016E026A040E022201C0FC
:100C6000E9FF02C0EAFFEF68000E0024016E026A8D
:100C7000040E022201C0E9FF02C0EAFFEF6A0E0E75
:100C80000024016E026A040E022201C0E9FF02C0C4
:100C9000EAFFEF6A1C0E0024016E026A040E0222B3
:100CA00001C0E9FF02C0EAFFEF6A002A0E0E005CF5
:100CB000D0E3006A016A0E0E005CD8B081EF08F044
:100CC000010E026E036A0350020A04E00350030A95
:100CD00001E09DD05C0E0324046E056A230E0522FC
:100CE000066A000E062204C0F6FF05C0F7FF06C024
:100CF000F8FF0900F5CF07F0040173510714086EDF
:100D000004013C5108160850D8A4C0D15D0E03243C
:100D1000086E096A040E092208C0E9FF09C0EAFF4B
:100D2000EFCF08F02A0E0124096E0A6A040E0A2287
:100D300009C0E9FF0AC0EAFFEFCF09F00950085CDB
:100D40003AE22A0E0124096E0A6A040E0A2209C038
:100D5000E9FF0AC0EAFF08C0EFFF000E0124096E98
:100D60000A6A040E0A2204C0F6FF05C0F7FF06C097
:100D7000F8FF0900F5CF04F009C0E9FF0AC0EAFF57
:100D800004C0EFFF0E0E0124046E056A040E052256
:100D900004C0E9FF05C0EAFFEF6A1C0E0124046EDF
:100DA000056A040E052204C0E9FF05C0EAFFEF6AE8
:100DB000010E026E6BD12A0E0124046E056A040E28
:100DC000052204C0E9FF05C0EAFFEFCF04F0085098
:100DD000041801E05BD1000E0124046E056A040EC4
:100DE0000522000E0124066E086A040E082206C0C1
:100DF000E9FF08C0EAFFEFCF06F00650071204C073
:100E0000E9FF05C0EAFF07C0EFFF022A3FD1035008
:100E1000040A04E0070E035CD8A09DD05C0E0324F6
:100E2000046E056A230E0522066A000E062204C01F
:100E3000F6FF05C0F7FF06C0F8FF0900F5CF07F081
:100E4000040175510714086E04013E51081608503C
:100E5000D8A41CD15D0E0324086E096A040E092271
:100E600008C0E9FF09C0EAFFEFCF08F02A0E01240D
:100E7000096E0A6A040E0A2209C0E9FF0AC0EAFFE5
:100E8000EFCF09F00950085C3AE22A0E0124096EFE
:100E90000A6A040E0A2209C0E9FF0AC0EAFF08C074
:100EA000EFFF000E0124096E0A6A040E0A2209C02F
:100EB000E9FF0AC0EAFFEF6A0E0E0124096E0A6A12
:100EC000040E0A2209C0E9FF0AC0EAFFEF6A1C0EFD
:100ED0000124096E0A6A040E0A2204C0F6FF05C046
:100EE000F7FF06C0F8FF0900F5CF04F009C0E9FFDD
:100EF0000AC0EAFF04C0EFFF010E026EC7D02A0E3F
:100F00000124046E056A040E052204C0E9FF05C031
:100F1000EAFFEFCF04F00850041801E0B7D01C0E30
:100F20000124046E056A040E05221C0E0124066EBF
:100F3000086A040E082206C0E9FF08C0EAFFEFCFE6
:100F400006F00650071204C0E9FF05C0EAFF07C01B
:100F5000EFFF022A9BD05C0E0324046E056A230E69
:100F60000522066A000E062204C0F6FF05C0F7FF40
:100F700006C0F8FF0900F5CF07F00401745107140B
:100F8000086E04013D5108160850D8A47FD05D0EAC
:100F90000324086E096A040E092208C0E9FF09C08B
:100FA000EAFFEFCF08F02A0E0124096E0A6A040E48
:100FB0000A2209C0E9FF0AC0EAFFEFCF09F0095091
:100FC000085C3AE22A0E0124096E0A6A040E0A221B
:100FD00009C0E9FF0AC0EAFF08C0EFFF000E0124C4
:100FE000096E0A6A040E0A2209C0E9FF0AC0EAFF74
:100FF000EF6A0E0E0124096E0A6A040E0A2204C06A
:10100000F6FF05C0F7FF06C0F8FF0900F5CF04F0B2
:1010100009C0E9FF0AC0EAFF04C0EFFF1C0E01246B
:10102000046E056A040E052204C0E9FF05C0EAFF4C
:10103000EF6A010E026E2AD02A0E0124046E056AA0
:10104000040E052204C0E9FF05C0EAFFEFCF04F05B
:10105000085004181BE10E0E0124046E056A040EEC
:1010600005220E0E0124066E086A040E082206C030
:10107000E9FF08C0EAFFEFCF06F00650071204C0F0
:10108000E9FF05C0EAFF07C0EFFF022A032A0E0EA0
:10109000035CD8A018D6000E0124036E046A040E67
:1010A000042203C0E9FF04C0EAFFEFCF03F004010C
:1010B000735103120350736F0E0E0124036E046A02
:1010C000040E042203C0E9FF04C0EAFFEFCF03F0DF
:1010D000745103120350746F1C0E0124036E046AD2
:1010E000040E042203C0E9FF04C0EAFFEFCF03F0BF
:1010F000755103120350756F02500026012A5BEFF1
:1011000006F004013A6BE4CF0AF0E4CF09F0E4CF33
:1011100008F0E4CF07F0E4CF06F0E4CF05F0E4CF29
:1011200004F0E4CF03F0E4CF02F0E4CF01F0E4CF29
:1011300000F01200D9CFE5FFE1CFD9FF00C0E5FFF5
:1011400001C0E5FF02C0E5FF03C0E5FF04C0E5FF05
:10115000020EDBCF00F0030EDBCF01F06A0E00249D
:10116000026E036A230E0322046A000E042202C0E8
:10117000F6FF03C0F7FF04C0F8FF0900F5CF02F047
:10118000050E025CD8B0F8D0FA6AFB6A0234FA366F
:10119000E834FA36FC0BA60FE56E110EFA22000EAB
:1011A000FB22E450F96EDDEF08F00AEF09F037EFAB
:1011B00009F064EF09F091EF09F0015015E05C0EC1
:1011C0000024026E036A230E0322046A000E042226
:1011D00002C0F6FF03C0F7FF04C0F8FF0900F5CF17
:1011E00002F002509212C8D05C0E0024026E036A14
:1011F000230E0322046A000E042202C0F6FF03C07D
:10120000F7FF04C0F8FF0900F5CF02F00250FF0815
:101210009216B2D0015015E05C0E0024026E036AF3
:10122000230E0322046A000E042202C0F6FF03C04C
:10123000F7FF04C0F8FF0900F5CF02F00250931247
:101240009BD05C0E0024026E036A230E0322046A04
:10125000000E042202C0F6FF03C0F7FF04C0F8FF2F
:101260000900F5CF02F00250FF08931685D0015017
:1012700015E05C0E0024026E036A230E0322046A4A
:10128000000E042202C0F6FF03C0F7FF04C0F8FFFF
:101290000900F5CF02F0025094126ED05C0E0024CB
:1012A000026E036A230E0322046A000E042202C0A7
:1012B000F6FF03C0F7FF04C0F8FF0900F5CF02F006
:1012C0000250FF08941658D0015015E05C0E00241F
:1012D000026E036A230E0322046A000E042202C077
:1012E000F6FF03C0F7FF04C0F8FF0900F5CF02F0D6
:1012F0000250951241D05C0E0024026E036A230E48
:101300000322046A000E042202C0F6FF03C0F7FFA6
:1013100004C0F8FF0900F5CF02F00250FF0895164F
:101320002BD0015015E05C0E0024016E026A230EE2
:101330000222036A000E032201C0F6FF02C0F7FF7B
:1013400003C0F8FF0900F5CF01F00150961214D048
:10135000016A026A5C0E0026230E0122000E0222A0
:1013600000C0F6FF01C0F7FF02C0F8FF0900F5CF8B
:1013700000F00050FF089616E4CF04F0E4CF03F02D
:10138000E4CF02F0E4CF01F0E4CF00F0E4CFD9FFE6
:101390001200D9CFE5FFE1CFD9FF00C0E5FF01C0C2
:1013A000E5FF02C0E5FF03C0E5FF04C0E5FF020E54
:1013B000DBCF00F0030EDBCF01F06A0E0024026EDB
:1013C000036A230E0322046A000E042202C0F6FF01
:1013D00003C0F7FF04C0F8FF0900F5CF02F0050EC7
:1013E000025CD8B0F8D0FA6AFB6A0234FA36E83404
:1013F000FA36FC0B040FE56E140EFA22000EFB22E7
:10140000E450F96E0CEF0AF039EF0AF066EF0AF0DB
:1014100093EF0AF0C0EF0AF0015015E05C0E0024D3
:10142000026E036A230E0322046A000E042202C025
:10143000F6FF03C0F7FF04C0F8FF0900F5CF02F084
:1014400002508912C8D05C0E0024026E036A230E7B
:101450000322046A000E042202C0F6FF03C0F7FF55
:1014600004C0F8FF0900F5CF02F00250FF0889160A
:10147000B2D0015015E05C0E0024026E036A230E08
:101480000322046A000E042202C0F6FF03C0F7FF25
:1014900004C0F8FF0900F5CF02F002508A129BD079
:1014A0005C0E0024026E036A230E0322046A000EFF
:1014B000042202C0F6FF03C0F7FF04C0F8FF0900D2
:1014C000F5CF02F00250FF088A1685D0015015E0D2
:1014D0005C0E0024026E036A230E0322046A000ECF
:1014E000042202C0F6FF03C0F7FF04C0F8FF0900A2
:1014F000F5CF02F002508B126ED05C0E0024026E0B
:10150000036A230E0322046A000E042202C0F6FFBF
:1015100003C0F7FF04C0F8FF0900F5CF02F0025046
:10152000FF088B1658D0015015E05C0E0024026EA7
:10153000036A230E0322046A000E042202C0F6FF8F
:1015400003C0F7FF04C0F8FF0900F5CF02F0025016
:101550008C1241D05C0E0024026E036A230E03221B
:10156000046A000E042202C0F6FF03C0F7FF04C0A5
:10157000F8FF0900F5CF02F00250FF088C162BD0BF
:10158000015015E05C0E0024016E026A230E022257
:10159000036A000E032201C0F6FF02C0F7FF03C07A
:1015A000F8FF0900F5CF01F001508D1214D0016A47
:1015B000026A5C0E0026230E0122000E022200C0E9
:1015C000F6FF01C0F7FF02C0F8FF0900F5CF00F0F9
:1015D0000050FF088D16E4CF04F0E4CF03F0E4CF11
:1015E00002F0E4CF01F0E4CF00F0E4CFD9FF120025
:1015F000D9CFE5FFE1CFD9FF00C0E5FF01C0E5FF8E
:1016000002C0E5FF03C0E5FF020EDBCF00F06A0E6B
:101610000024016E026A230E0222036A000E0322D6
:1016200001C0F6FF02C0F7FF03C0F8FF0900F5CFC5
:1016300001F0050E015CD8B09AD0FA6AFB6A013459
:10164000FA36E834FA36FC0B580FE56E160EFA221D
:10165000000EFB22E450F96E36EF0BF050EF0BF06A
:101660006AEF0BF084EF0BF09EEF0BF05C0E0024A2
:10167000016E026A230E0222036A000E032201C0D9
:10168000F6FF02C0F7FF03C0F8FF0900F5CF01F035
:1016900080500116015002E0010E6AD0E86A68D05D
:1016A0005C0E0024016E026A230E0222036A000E01
:1016B000032201C0F6FF02C0F7FF03C0F8FF0900D4
:1016C000F5CF01F081500116015002E0010E50D01B
:1016D000E86A4ED05C0E0024016E026A230E0222DC
:1016E000036A000E032201C0F6FF02C0F7FF03C029
:1016F000F8FF0900F5CF01F082500116015002E019
:10170000010E36D0E86A34D05C0E0024016E026A05
:10171000230E0222036A000E032201C0F6FF02C05C
:10172000F7FF03C0F8FF0900F5CF01F08350011661
:10173000015002E0010E1CD0E86A1AD0016A026A68
:101740005C0E0026230E0122000E022200C0F6FFCE
:1017500001C0F7FF02C0F8FF0900F5CF00F0845088
:101760000016005002E0010E03D0E86A01D0E86ADA
:10177000E4CF03F0E4CF02F0E4CF01F0E4CF00F0D7
:10178000E4CFD9FF1200D9CFE5FFE1CFD9FF00C0E8
:10179000E5FF01C0E5FF02C0E5FF03C0E5FF04C0AF
:1017A000E5FF05C0E5FF06C0E5FF07C0E5FF08C08F
:1017B000E5FF09C0E5FF0AC0E5FF0BC0E5FF020E2B
:1017C000DBCF00F0030EDBCF01F0040EDBCF02F025
:1017D000050EDBCF03F0005001100210031005E1ED
:1017E000E96AF46AF36AE86A5ED0960E046E056AE6
:1017F000035008E0D8900332023201320032044A2A
:10180000052AF6D704C006F005C007F002BE12D0C4
:10181000035010E100500026013602360336FF0E59
:101820000426052202BE02D00350F4E004C006F0F4
:1018300005C007F00050046E0150056E7F0E0214C3
:10184000086E096A0450FF0A08E10550FF0A05E125
:1018500008507F0A02E1095001E006D0006A016ADF
:10186000026A036A064A072A029EE86A07300630BF
:101870000B6E0A6A0A32086A0850001201120A50F6
:1018800002120B500312005004016B6F01506C6F79
:1018900002506D6F03506E6F6EC4E9FF6DC4F4FFAC
:1018A0006CC4F3FF6B51E4CF0BF0E4CF0AF0E4CF4C
:1018B00009F0E4CF08F0E4CF07F0E4CF06F0E4CF7E
:1018C00005F0E4CF04F0E4CF03F0E4CF02F0E4CF7E
:1018D00001F0E4CF00F0E4CFD9FF1200D9CFE5FF4B
:1018E000E1CFD9FF00C0E5FF01C0E5FF02C0E5FF81
:1018F00003C0E5FF04C0E5FF020EDBCF00F00E0ED3
:10190000005CD8B076D00050020A03E00050030A11
:1019100024E15C0E0024016E026A230E0222036A97
:10192000000E032201C0F6FF02C0F7FF03C0F8FF5C
:101930000900F5CF04F004013C51041204503C6F3F
:1019400001C0F6FF02C0F7FF03C0F8FF0900F5CFA2
:1019500001F00150FF0893164CD00050040A03E038
:10196000070E005C24E35C0E0024016E026A230E65
:101970000222036A000E032201C0F6FF02C0F7FF35
:1019800003C0F8FF0900F5CF04F004013E51041232
:1019900004503E6F01C0F6FF02C0F7FF03C0F8FF1E
:1019A0000900F5CF01F00150FF08951622D0016A19
:1019B000026A5C0E0026230E0122000E022200C0E5
:1019C000F6FF01C0F7FF02C0F8FF0900F5CF03F0F2
:1019D00004013D51031203503D6F00C0F6FF01C0EA
:1019E000F7FF02C0F8FF0900F5CF00F00050FF0834
:1019F0009416E4CF04F0E4CF03F0E4CF02F0E4CF98
:101A000001F0E4CF00F0E4CFD9FF1200D9CFE5FF19
:101A1000E1CFD9FF00C0E5FF01C0E5FF02C0E5FF4F
:101A200003C0E5FF04C0E5FF05C0E5FF020EDBCF04
:101A300000F0030EDBCF01F00E0E005CD8B05FD0DB
:101A4000B50E015C02E3B40E016E4D0E0024026E71
:101A5000036A040E03223F0E0024046E056A040E7E
:101A6000052204C0E9FF05C0EAFFEFCF04F002C081
:101A7000E9FF03C0EAFFEFCF02F00450025E01501D
:101A80000202F4CF03F0F3CF01F0E56AB40EE56E85
:101A90000350E56E0150E56EACEC0FF0016EF3CF34
:101AA00002F0040EE1260250E56E0150E56E4BECAB
:101AB00011F0016EF3CF02F0F4CF03F0E9CF05F09F
:101AC000E652E6520550E56E0350E56E0250E56EB3
:101AD0000150E56E92EC10F0016E040EE12601500B
:101AE0000426016A5D0E0026040E012200C0E9FFF3
:101AF00001C0EAFF04C0EFFF010E04013A6FE4CF1A
:101B000005F0E4CF04F0E4CF03F0E4CF02F0E4CF3B
:101B100001F0E4CF00F0E4CFD9FF1200D9CFE5FF08
:101B2000E1CFD9FF00C0E5FF01C0E5FF02C0E5FF3E
:101B300003C0E5FF04C0E5FF05C0E5FF020EDBCFF3
:101B400000F0030EDBCF01F0040EDBCF02F0050E38
:101B5000DBCF03F0005004016F6F0150706F025033
:101B6000716F0350726F6F5170117111721106E035
:101B70007251800BE844006E005005E0E96AF46A97
:101B8000F36AE86A36D004016F517151026E7251E6
:101B9000036E02340334006E016A6A0E0026FF0EE3
:101BA00001226F51026E7051036E7151046E7251B9
:101BB000049E056A048E011E006CD8B4012A0050F0
:101BC00011E009E6E86CD8900532043203320232A3
:101BD000010FFAE307D0D8900236033604360536F3
:101BE000010FFAE305C0E9FF04C0F4FF03C0F3FFEF
:101BF0000250E4CF05F0E4CF04F0E4CF03F0E4CFEB
:101C000002F0E4CF01F0E4CF00F0E4CFD9FF1200FE
:101C1000D9CFE5FFE1CFD9FF00C0E5FF01C0E5FF67
:101C200002C0E5FF03C0E5FF04C0E5FF05C0E5FF16
:101C300006C0E5FF07C0E5FF020EDBCF00F0030E94
:101C4000DBCF01F0040EDBCF02F0050EDBCF03F09B
:101C5000D88001AED890046A0436045007E0011C15
:101C6000066E001C056E054A062A04D000C005F069
:101C700001C006F0D88003AED890006A003600504C
:101C800007E0031C076E021C016E014A072A04D0FC
:101C900002C001F003C007F00750E56E0150E56E89
:101CA0000650E56E0550E56EACEC0FF0016EF3CF1B
:101CB00002F0040EE1260050041A04500AE0021C4F
:101CC000036E011C006E004A032A03C0F3FF00509C
:101CD00003D002C0F3FF0150E4CF07F0E4CF06F0D9
:101CE000E4CF05F0E4CF04F0E4CF03F0E4CF02F05A
:101CF000E4CF01F0E4CF00F0E4CFD9FF1200D9CF58
:101D0000E5FFE1CFD9FF00C0E5FF01C0E5FF02C05C
:101D1000E5FF03C0E5FF020EDBCF00F00E0E005C16
:101D2000D8B052D00050020A03E00050030A18E174
:101D30005C0E0024016E026A230E0222036A000E6A
:101D4000032201C0F6FF02C0F7FF03C0F8FF09003D
:101D5000F5CF01F004013C51011A01503C6F34D021
:101D60000050040A03E0070E005C18E35C0E002438
:101D7000016E026A230E0222036A000E032201C0D2
:101D8000F6FF02C0F7FF03C0F8FF0900F5CF01F02E
:101D900004013E51011A01503E6F16D0016A026AD9
:101DA0005C0E0026230E0122000E022200C0F6FF68
:101DB00001C0F7FF02C0F8FF0900F5CF00F00401F1
:101DC0003D51001A00503D6FE4CF03F0E4CF02F024
:101DD000E4CF01F0E4CF00F0E4CFD9FF1200D9CF77
:101DE000E5FFE1CFD9FF00C0E5FF01C0E5FF040139
:101DF000776B04013B6BFB0E04013B5DD8B04ED00A
:101E000077C400F0016A2A0E0026040E012200C0E9
:101E1000E9FF01C0EAFFEFCF00F000503B192FE1CE
:101E200077C400F0016A000E0026040E012200C0F3
:101E3000E9FF01C0EAFFEFCF00F00050811A77C43C
:101E400000F0016A0E0E0026040E012200C0E9FF18
:101E500001C0EAFFEFCF00F00050821A77C400F013
:101E6000016A1C0E0026040E012200C0E9FF01C019
:101E7000EAFFEFCF00F00050831A0401772B070E22
:101E8000766F00000000000000000000000000006D
:101E9000762F41EF0FF004013B2BADD7E4CF01F0DB
:101EA000E4CF00F0E4CFD9FF120017EEFFF027EEE9
:101EB000FFF0F86AA68EA69CBF0EE96E0E0EEA6EC3
:101EC0000068ED6A0050FDE1400EF66E260EF76EDA
:101ED000000EF86E0900F5CF05F00900F5CF06F009
:101EE00034D00900F5CF00F00900F5CF01F009006A
:101EF000F5CF02F009000900F5CFE9FF0900F5CFA1
:101F0000EAFF090009000900F5CF03F00900F5CF49
:101F100004F009000900F6CF07F0F7CF08F0F8CF7A
:101F200009F000C0F6FF01C0F7FF02C0F8FF03D0C0
:101F30000900F5CFEEFF0306FBE20406F9E207C055
:101F4000F6FF08C0F7FF09C0F8FF0506CAE206065B
:101F5000C8E2DDEC12F0FFD7D9CFE5FFE1CFD9FF22
:101F600000C0E5FF01C0E5FF02C0E5FF03C0E5FFDB
:101F700004C0E5FF05C0E5FF06C0E5FF07C0E5FFBB
:101F8000020EDBCF00F0030EDBCF01F0040EDBCF3F
:101F900002F0050EDBCF03F0046A056A100E066E30
:101FA0000150800BE844076E0050002601360450B3
:101FB000042605360750D8A404800350055C02E1CE
:101FC0000250045C05E30250045E0350055A008091
:101FD000062EE6D701C0F3FF0050E4CF07F0E4CFB0
:101FE00006F0E4CF05F0E4CF04F0E4CF03F0E4CF53
:101FF00002F0E4CF01F0E4CF00F0E4CFD9FF12000B
:10200000D9CFE5FFE1CFD9FF00C0E5FF01C0E5FF73
:1020100002C0E5FF020EDBCF00F0030EDBCF01F0C4
:10202000040EDBCF02F00E0E005C2AE20250800F9D
:102030007B0F02E1DC0E015C23E30250800F770F7F
:1020400002E1C50E015C01E31BD00D0E0126FE0E60
:102050000222E56A080EE56E0250E56E0150E56E5B
:1020600008EC0EF0016E040EE126026A4D0E002609
:10207000040E022200C0E9FF02C0EAFF01C0EFFF28
:10208000E4CF02F0E4CF01F0E4CF00F0E4CFD9FFD9
:102090001200D9CFE5FFE1CFD9FF00C0E5FF01C0B5
:1020A000E5FF02C0E5FF020EDBCF00F0030EDBCF41
:1020B00001F0040EDBCF02F00E0E005C2AE20250AB
:1020C000800F7F0F02E1F40E015C23E30250800FCA
:1020D0007B0F02E1DD0E015C01E31BD00D0E01263A
:1020E000FE0E0222E56A080EE56E0250E56E015012
:1020F000E56E08EC0EF0016E040EE126026A3F0E5A
:102100000026040E022200C0E9FF02C0EAFF01C05F
:10211000EFFFE4CF02F0E4CF01F0E4CF00F0E4CF32
:10212000D9FF1200D9CFE5FFE1CFD9FF00C0E5FF0D
:1021300001C0E5FF02C0E5FF03C0E5FF020EDBCFF3
:1021400000F0030EDBCF01F0040EDBCF02F0050E32
:10215000DBCF03F00350E56E0250E56E0150E56EF3
:102160000050E56E8EEC0DF0006EF3CF01F0F4CF71
:1021700002F0E9CF03F0040EE126000E035C08E153
:10218000000E025C05E1000E015C02E1FF0E005C46
:1021900002E3E86801D00050E4CF03F0E4CF02F09E
:1021A000E4CF01F0E4CF00F0E4CFD9FF1200D8CFA4
:1021B000E5FFE0CFE5FFE56EF3CFE5FFF4CFE5FF08
:1021C000E9CFE5FFEACFE5FFFACFE5FFFBCFE5FF7B
:1021D000D9CFE5FFE1CFD9FFF6CFE5FFF7CFE5FF98
:1021E000F8CFE5FFF5CFE5FF79EC12F0E4CFF5FF8E
:1021F000E4CFF8FFE4CFF7FFE4CFF6FFE4CFD9FF59
:10220000E4CFFBFFE4CFFAFFE4CFEAFFE4CFE9FF3E
:10221000E4CFF4FFE4CFF3FFE450E4CFE0FFE4CFFA
:10222000D8FF1000D8CFE5FFE0CFE5FFE56EF3CF94
:10223000E5FFF4CFE5FFE9CFE5FFEACFE5FFFACF11
:10224000E5FFFBCFE5FFD9CFE5FFE1CFD9FFF6CF23
:10225000E5FFF7CFE5FFF8CFE5FFF5CFE5FFE4CFEA
:10226000F5FFE4CFF8FFE4CFF7FFE4CFF6FFE4CFCC
:10227000D9FFE4CFFBFFE4CFFAFFE4CFEAFFE4CFDE
:10228000E9FFE4CFF4FFE4CFF3FFE450E4CFE0FF55
:10229000E4CFD8FF1000D9CFE5FFE1CFD9FF00C0D0
:1022A000E5FF01C0E5FF02C0E5FF03C0E5FF020E48
:1022B000DBCF00F0030EDBCF01F0E56AE56A0150E9
:1022C000E56E0050E56EC3EC0BF0006EF3CF01F04D
:1022D000F4CF02F0E9CF03F0040EE12603C0E9FFDA
:1022E00002C0F4FF01C0F3FF0050E4CF03F0E4CFDD
:1022F00002F0E4CF01F0E4CF00F0E4CFD9FF120008
:1023000000C0E5FF04015B51E56E000EE56A06ECD6
:102310000DF0E652E65204015B51006E04015C517F
:10232000002404015B6FB50E5B5D02E304015C6990
:10233000010E04015B5D03E2010E04015C6F140EEB
:10234000E56EBCEC12F0E652E56A320EE56EDBECAF
:1023500011F0E652E652E4CF00F01200804004088B
:102360000104020204081020408001010000030162
:102370000103030303030303E806E56E630ECFECDA
:1023800011F0E4500BE000D0E56E630ECFEC11F0DD
:1023900000D000D00000E450E82EF6D71200E80686
:1023A0000000E85007E000D000D000D000D00000CE
:1023B000E82EFAD71200D9CFE5FFE1CFD9FF00C050
:1023C000E5FF01C0E5FF02C0E5FF03C0E5FF020E27
:1023D000DBCF00F0030EDBCF01F0026A036A01508D
:1023E000035C02E10050025C06E20C0EBCEC11F052
:1023F000024A032AF4D7E4CF03F0E4CF02F0E4CF9B
:1024000001F0E4CF00F0E4CFD9FF120000C0E5FFF7
:1024100001C0E5FF02C0E5FF006A5D0E0024016E09
:10242000026A040E022201C0E9FF02C0EAFFEF685F
:10243000002A0E0E005CF1E3F29EF29CCD6ACF6A98
:10244000CE6A9E909F809D80F28EF28CCD80E4CFEC
:1024500002F0E4CF01F0E4CF00F01200D9CFE5FFA5
:10246000E1CFD9FF00C0E5FF01C0E5FF02C0E5FFF5
:1024700003C0E5FF020EDBCF00F0030EDBCF01F05F
:10248000026A036A0150035C02E10050025C03E24D
:10249000024A032AF7D7E4CF03F0E4CF02F0E4CFF7
:1024A00001F0E4CF00F0E4CFD9FF1200D9CFE5FF6F
:1024B000E1CFD9FF00C0E5FF01C0E5FF020EDBCF91
:1024C00000F00E0E005C02E3E86A0CD0016A5D0EBB
:1024D0000026040E012200C0E9FF01C0EAFFEFCF91
:1024E00000F00050E4CF01F0E4CF00F0E4CFD9FFDA
:1024F00012009EA01FD0040139510BE019EC13F01B
:10250000E90ECF6E590ECE6E010ECD6E0401396B01
:1025100010D0EFEC0EF0320ECF6EEB0ECE6E04014B
:102520003A51D8A40EEC06F0210ECD6E010E040136
:10253000396F9E901200E56A140EE56E9AEC08F071
:10254000E652E652000EE56A6EEC0CF0E652010E21
:10255000E56EF40EE56E000EE56A49EC10F0030E30
:10256000E126090EE56EC40EE56E000EE56A00EC8C
:1025700010F0030EE1261200D9CFE5FFE1CFD9FF1D
:1025800000C0E5FF01C0E5FF020EDBCF00F0005008
:10259000E56EF8EC0AF0016EE65201700150E56E4E
:1025A0000050E56EC9EC09F0E652E652E4CF01F0C6
:1025B000E4CF00F0E4CFD9FF1200D0B202D0930EE6
:1025C000D012D350030B800F7D0F02E3D3A4FED7AC
:1025D000F29EF29C09EC13F006EC06F006EC12F009
:1025E0009BEC12F080EC11F0FDD71200000100000E
:1025F000000000404040404040404040404040409B
:1026000040C0C0C0C0C0C0C0C0C0C0C0C0C0C0000A
:102610000100896A8A6A400E8B6E8C6A8D6A926AA2
:10262000936A949094929494949C949E956A966ADA
:1026300012003CC481FF3DC482FF3EC483FF1200F0
:0E2640000100EC250000380400002500000019
:00000001FF
