:020000040000FA
:1000000007EF05F0E8EF04F004EF06F0CBEF04F0A3
:080018000CEF06F000C0E5FF4B
:1000200001C0E5FF02C0E5FF03C0E5FF04C0E5FF36
:1000300005C0E5FF06C0E5FF07C0E5FF08C0E5FF16
:1000400009C0E5FF0AC0E5FF0501CB51D8B445EF73
:1000500002F065A405D064A403D060926494659412
:10006000006A60B2002A0050010A02E145EF02F086
:1000700065A01DD064A01BD0676A656A9F0E666E7E
:100080007F0E646E636A160E6A6E006A65B6002A99
:100090000050010A02E16596F8D76098DBEC04F0A5
:1000A0000501C86B0501CC6B030E0501CB6F65A87C
:1000B00009D064A807D0648465986082A494F29003
:1000C000A384F28665AC02D064BC659C65AA0CD0A2
:1000D00064AA0AD0006A6AB0002A0050010A03E14B
:1000E000DBEC04F06A90659A65A202D064B2659276
:1000F000030E0501CB5DD8A045EF02F065A645EFE4
:1001000002F064A645EF02F06138E8441F0B006E70
:1001100000C001F00050D8A4B0D161B48ED13C0E23
:1001200004010015006E0040E8403F0B0D0A01E09D
:1001300027D104010451006E009E0050046F00514D
:10014000006E009E0050006F0501CA6B0501CD6B6B
:100150000501C66BC76B05014051600BD8A495D152
:100160004151050A09E1010E0501CD6F040E05019B
:10017000CB6F42C5C9F5BFD005014151060A01E068
:100180006BD005014051800A01E0B5D00501435113
:10019000010A0FE1010E0501CD6F000E0501C56FCB
:1001A000080EC46FAC0EC36F120E0501C66FC76B8D
:1001B000A2D005014351020A17E1010E0501CD6FDE
:1001C000000E0501C56F080EC46FBE0EC36FC00ED2
:1001D000F66E080EF76E000EF86E0900F5CFC6F544
:1001E0000900F5CFC7F587D005014351030A01E0A7
:1001F00082D0010E0501CD6F05014251030DF4506F
:10020000026EF3CF00F0036AF40E0026080E0222FD
:10021000000E032200C0F6FF02C0F7FF03C0F8FF84
:100220000900F5CFC3F50900F5CFC4F50900F5CFF6
:10023000C5F5C3C500F0C4C502F0C5C503F000C0D4
:10024000E9FF02C0F3FF0350BAEC04F0006E00C0F7
:10025000C6F50501C76B4FD005014151090A1CE1E4
:10026000010E0501CD6F1E0E6B6E400E04010C6F6A
:10027000096F800E0A6F050E0B6F800E086F42C566
:10028000CCF50501CC5104E1040E0501CB6F33D050
:10029000050E0501CB6F2FD005014151080A0FE172
:1002A000010E0501CD6F050E0501C46FCC0EC36FA5
:1002B000800EC56F010E0501C66FC76B1CD005010E
:1002C00041510A0A11E1010E0501CD6F0501006BD4
:1002D000050E0501C46F000EC36F800EC56F010EC1
:1002E0000501C66FC76B07D0050141510B0A03E139
:1002F000010E0501CD6F0501CD510BE1400E04014A
:10030000016F400E026F050E036F840E006F046FC5
:1003100035D0050140AF23D00501C7510501475D28
:1003200004E10501C6510501465D04E246C5C6F576
:1003300047C5C7F575EC03F0020E0501CA6F400E04
:100340000401016F400E026F050E036F800E006FF7
:10035000000E066F050E076FC80E046F0FD0010E5A
:100360000501CA6F0401056BC80E046F400E016FD2
:10037000000E026F050E036FC80E006F609884D0E8
:100380000501CA51010A01E055D0030E0401001510
:10039000026A046E036A01C400F0035000120450A4
:1003A000021200500501C6270250C723050E0501A1
:1003B000C46F000EC36F800EC56F046A0250045CE8
:1003C00002E10050035C2CE2C0C505F0C1C506F097
:1003D000C2C507F0C3C508F0C4C509F0C5C50AF019
:1003E00008C0E9FF09C0F3FF0A50BAEC04F0086E38
:1003F0000501C32B03E3C43F01D0C52B08C0E5FFB3
:1004000005C0E9FF06C0F3FF0750F4EC04F0050156
:10041000C02B03E3C13F01D0C22B034A042ACED72D
:10042000040100AD03D0880E006F2ED0C80E040169
:10043000006F2AD0DBEC04F027D063500BE10501FC
:10044000CB51040A07E142C563FF635003E1030E89
:100450000501CB6F0501CA51020A0CE175EC03F0EE
:10046000040104AD03D0880E046F0ED0C80E040141
:10047000046F0AD0DBEC04F007D061B405D0015062
:10048000E56E5CEC02F0E6526596E4CF0AF0E4CF4C
:1004900009F0E4CF08F0E4CF07F0E4CF06F0E4CFB2
:1004A00005F0E4CF04F0E4CF03F0E4CF02F0E4CFB2
:1004B00001F0E4CF00F01200D9CFE5FFE1CFD9FF82
:1004C00000C0E5FF01C0E5FF02C0E5FF03C0E5FF96
:1004D00004C0E5FF05C0E5FF020EDBCF00F0898810
:1004E0000044FE0B016E0128006E040DF45000BEA6
:1004F0000408026EF3CF00F0000E0024036E040E19
:100500000220046E034A042A03C0E9FF04C0EAFF84
:10051000000EEF6E84C5F8FF83C5F7FF82C5F6FFB6
:1005200005018051FF0A03E17FEC04F098D005013A
:10053000805113E10F0E826F040E836F000E0024B2
:10054000036E040E0220046E034A042A03C0E9FF6E
:1005500004C0EAFF040EEF6E82D005018051010A4B
:1005600027E1036A05018151035C0FE20900850E52
:100570000324046E056A050E052204C0E9FF05C0C8
:10058000EAFFF5CFEFFF032AEDD7000E0024036E3C
:10059000040E0220046E034A042A050E050181257B
:1005A000056E03C0E9FF04C0EAFF05C0EFFF57D0A6
:1005B00005018051020A2CE1A40EA66E036A050112
:1005C0008151035C0FE2850E0324046E056A050E5B
:1005D000052204C0E9FF05C0EAFFEFCFF5FF0D00DB
:1005E000032AEDD70A00550EA76EAA0EA76EA682A3
:1005F0000000000E0024036E040E0220046E034A65
:10060000042A03C0E9FF04C0EAFF010EEF6E27D001
:1006100005018051030A23E1A40EA66E036A0501B9
:100620008151035C0EE2A688550EA76EAA0EA76E36
:10063000A682A6980000400EF626000EF722032A96
:10064000EED7000E0024036E040E0220046E034A4F
:10065000042A03C0E9FF04C0EAFF010EEF6E000E9A
:100660000026040E0222004A022A00C0E9FF02C04E
:10067000EAFFEFCF00F0005009E004010CAD03D019
:10068000880E0C6F03D0C80E04010C6F0150040DCE
:10069000F45001BE0408006EF3CF01F0000E0124F7
:1006A000026E040E0020036E024A032A02C0E9FF14
:1006B00003C0EAFF400EEF6E000E0126040E00227A
:1006C00001C0E9FF00C0EAFF800EEF6EE4CF05F045
:1006D000E4CF04F0E4CF03F0E4CF02F0E4CF01F084
:1006E000E4CF00F0E4CFD9FF120000C0E5FF01C065
:1006F000E5FF02C0E5FF03C0E5FF04C0E5FF05C05C
:10070000E5FF06C0E5FF07C0E5FF08C0E5FF000EF6
:100710000501C75D02E1400EC65D05E2C6C500F0F9
:10072000C7C501F003D0400E006E016A04010451F8
:10073000026EFC0E02160250046F030E0114026ECC
:10074000045102120250046F0050026E056F000E39
:10075000066F050E076F00500501C65F0150C75BAD
:10076000050E0501C16F000EC06F800EC26F026AD8
:1007700002C003F0046A0150045C02E10050035C13
:100780002BE2C0C503F0C1C504F0C2C505F0C3C566
:1007900006F0C4C507F0C5C508F006C0E9FF07C0EC
:1007A000F3FF0850BAEC04F0066E0501C32B03E317
:1007B000C43F01D0C52B06C0E5FF03C0E9FF04C05C
:1007C000F3FF0550F4EC04F00501C02B03E3C13F37
:1007D00001D0C22B022ACCD7E4CF08F0E4CF07F037
:1007E000E4CF06F0E4CF05F0E4CF04F0E4CF03F06B
:1007F000E4CF02F0E4CF01F0E4CF00F012000F01EB
:100800005B6B0F015C6B0F015D6B0F015E6B0F018A
:100810005F6BD0B204D0930ED01200EF06F0D0BEC2
:1008200044D0D08ECE6ACF6A310ECD6E9298898830
:10083000140E626E800E006E050E016E026A036A6F
:10084000005004010E6F01500F6F0501CC6B0501C4
:10085000CB6B006A016A026A036AA4EC04F00EEC36
:1008600000F00050FF0A08E10150FF0A05E10250C4
:100870000F0A02E1035001E002D07FEC04F0002AED
:1008800004E3012A02E3024A032A0501CB51050AC7
:10089000E4E10EEC00F0006A9EB0002A0050010A6C
:1008A000F8E19E90100E891AF4D71200120100028E
:1008B000FFFFFF40D804AAFE15040102000109024F
:1008C0002000010100C07D0904000002FFFFFF00BD
:1008D00007050102400000070581024000000403F3
:1008E00009040C03520042002B004100470006039C
:1008F00050003800DE0800E20800EE08000000C0EA
:10090000E5FF01C0E5FF02C0E5FF03C0E5FFCD6ADA
:1009100060926096FF0E006E016E00C002F001C092
:1009200003F0FF0E0026012202500310F6E1D092E0
:1009300092888998FF00E4CF03F0E4CF02F0E4CF7F
:1009400001F0E4CF00F0120060B606D0606A646A7D
:100950006086010E0501CB6F0501CB51010A09E14B
:1009600060BA07D0656A646A64806488020E050113
:10097000CB6F1200E8AE04D0F3CFEAFFEE501200C6
:10098000E8BC02EF00F0E9CFF6FFF3CFF7FFF86E17
:100990000900F5501200F2CFEAFFF29EA69EA69C37
:1009A000A684E9CFA9FFE4CFA8FFFFEC04F0A6944A
:1009B000EABEF28E12000501CA6B400E0401016FFF
:1009C000400E026F050E036F880E006F046B12005D
:1009D000F2CFF6FFF29EA69EA69CE9CFA9FFA680C5
:1009E000A850F6BEF28E1200E8AE05D0F3CFEAFFB3
:1009F000E4CFEEFF1200E8BC06EF00F01200550E47
:100A0000A76EAA0EA76EA682A6B2FED7A94A11EEBD
:0C0A1000FEF021EEFEF0FFEC03F0FFD73B
:020000040030CA
:0400000003225F3E3A
:020005009181E7
:060008000FC00FE00F40E5
:00000001FF
