:040000008031102813
:100008007E14803120007F08F0008531042D7008AF
:100018002000FF007E10090080311228FC012030EA
:1000280084000130850049308431F2248031220077
:100038008431F824ED00210080017E1020008331F6
:10004800892B3D000F082100E3000330E336890BBC
:100058002A286303031D37283D000F19162A823109
:1000680019228031162A3D000F082100E3000330D1
:10007800E336890B3C286308031D162A3D000F1937
:10008800DB29200020082100E3000230E336890B39
:100098004A2863080F39E4006408E8000D30680650
:1000A800031D87297F30E30063082000A4057F3003
:1000B8002100E30063082000A0052200A401A70195
:1000C800A201A301200030086039031D0800053093
:1000D8003106031D7F282200A701A70A043021004A
:1000E800E3006308FC00200032082100E3006308F5
:1000F8002200A5001D29063020003106031DD22844
:1001080080303006031D1D293303031D9428220067
:10011800A701A70A7730A0008330A10012301A295E
:10012800023020003306031DA8282200A701A70AD1
:100138000730A0008330A100093084008330850097
:10014800003FA200013FD028033020003306031DE2
:100158001D292200A701A70A200032082100E30078
:10016800E401E335E40DFF30630784008230643D29
:100178008500003F2200A000013FA1002008840064
:100188002108850000082100E300E401630822003B
:10019800A200210064082200A3001D2909302000C4
:1001A8003106031DFE282200A701A70A1E303D00C4
:1001B800990040302100E30063082000AC0028309B
:1001C800AA000130AB0080302100E3006308200062
:1001D800A80032082100E30063082200E80068084C
:1001E800031DF8280430F92805302100E3006308CE
:1001F800FC001D29083020003106031D0A292200B1
:10020800A701A70A6830A000013018290A30200089
:100218003106031D1D292200A701A70A2100A001FC
:10022800A0302200A0000030A1000130A200003060
:10023800A30022002708031D332940302100E300D2
:1002480063082000A1003030A2000030A3008430F1
:100258002100E30063082000A00084306329200007
:10026800B01F69292200230820003702031D4029F6
:1002780022002208200036020318492937082200E4
:10028800A300200036082200A20084312D248031EA
:1002980002302100E30063082200A400403021005E
:1002A800E30063082000A1003030A2000030A30062
:1002B80080302100E30063082000A000C83021003E
:1002C800E30063082000A40084292200A401A40AF2
:1002D8002000A501C8302100E30063082000A40025
:1002E80040302100E30063082000A100A030A200F4
:1002F8000030A300C8302100E30063082000A000FC
:100308003D000E12162A22002403031D032A200092
:1003180021082100E300E40120002008033921001E
:10032800E500E6016508E600E50163086504E90003
:1003380064086604EA0069082200A20721006A0826
:100348002200A33DA030A0000030A1000130210010
:10035800E9020030EA3B690A03196A0A0319CF293E
:100368002200200884002108850000082100E300FD
:1003780022002608860087012100630881000130D9
:100388002200A0070030A13D01302100E3006308EE
:100398002200A607AA292000201FD4298830D529A1
:1003A800C8302100E30063082000A000162A3D00A1
:1003B8001608031DEF2904307C06031DEF292000D1
:1003C80032083D0096001608031DEF29033021006E
:1003D800E3006308FC00023022002406031D032A00
:1003E80084312D2480312000241FFC298830FD29E8
:1003F800C8302100E30063082000A400162A220068
:10040800A40140302100E30063082000A10030303F
:10041800A2000030A30088302100E3006308200018
:10042800A000A4013D00901108000230F100003046
:10043800F200220029082100E000E1016008F30031
:100448006108F4008331DC23823171082100E20065
:100458006208FA002D30E0006008FB0022000E154B
:100468002000AD0122002B082300920022002A0858
:1004780023009100A43095002200280A031D482A71
:100488008431E1248231EA2A22002808031D5A2AED
:1004980011302100E00060082200AA000430210089
:1004A800E00060082200AB0004307F2A2200280305
:1004B800031D852A230015170130FA027A0A031949
:1004C8007C2A1514000000007B0886000130870094
:1004D80023001308C03F1408C13F02302100E00088
:1004E8006008FB070130230091070030923D602A25
:1004F80022002908053E2100E00060082000AD0028
:10050800EA2A033022002806031DA62A290821000A
:10051800E0006008FA000130FA027A0A0319E72AB3
:1005280023001516230055309600AA30960095141E
:10053800000000002300151223002030910700302E
:10054800923D8F2A0230220028060319C72AEA2A78
:100558007B08860001308700403F23009300413F1D
:10056800940002302100E0006008FB0723005530AA
:100578009600AA3096009514000000000130230070
:1005880091070030923D7A08FA032100E00002301A
:1005980060020318AC2A7B08860001308700403FC0
:1005A80023009300413F940002302100E0006008DE
:1005B800FB0723009512230055309600AA309600B9
:1005C8009514000000002000AD01AD0A20002D08A0
:1005D8000319F82A2C1FF22A8830F32AC830210080
:1005E800E00060082000AC0080302100E0006008D6
:1005F8002000A800080063348334273483343B3454
:1006080083344F34833409340234203400340134C1
:1006180001340034A0347D34093404340034003407
:100628000234FF34FF34FF34003407340534013416
:100638000234403400340034073405348134023441
:1006480040340034003414340334533400346534F3
:100658000034613400344934003463340034653480
:1006680000344C34003461340034623400341434BF
:10067800033450340034693400346E340034673441
:10068800003475340034693400346E3400346F3407
:100698000034003400341434033431340034363434
:1006A80000344634003431340034343400343534C2
:1006B8000034393400340034003400340034143445
:1006C8000334093404340034003400340034003472
:1006D8000034003400340034003400340034003472
:1006E8000034003400341234013400340234FF344E
:1006F800FF34FF344034D8340434AA34FE34173479
:100708000434013402340334013400302200E90097
:100718000530EA000030EB000530EC0023008C01C6
:100728008D018E01FC3021009900903027009B003C
:1007380021001A1C9C2B1A1F9F2B20009601970141
:1007480031309800FB302100EC006C088E05220047
:100758000E1520000C18B32B2100961DBA2B210072
:10076800961416148531002D2200ED0114303D0039
:10077800910040302100EC006C082000A900A03056
:10078800A6000030A7002830AE000130AF00843149
:10079800CB24833184317B2483312000111CCB2B63
:1007A800111004302100EC006C0822008E06CB2BBF
:1007B800F701F21FE62BF109F209F10A0319F20A0F
:1007C800F701F70AF41FF12BF309F409F30A0319E7
:1007D800F40A0130F5007508F706F801F901710807
:1007E80072040319202CF601F60AF21B052C0130BD
:1007F800F135F20D890BFC2B0130F5007508F60771
:10080800F92B0130F835F90D890B062C72087402A2
:10081800031D102C71087302031C172C7108F302B6
:100828007208F43B78140130F236F10C890B182C5D
:100838000130F602031D052C77080319282CF80946
:10084800F909F80A0319F90A7908F2007808F10099
:100858000800003022002302403003192202031846
:100868003A2C2308F4002208F3003E2C4030F30011
:100878000030F4007309F1007409F200F10A031959
:10088800F20A22087107A2002308723DA300FC3077
:10089800F10071082000A40574080339F1007108FB
:1008A800A4047308F1007108A500A030F1007108D4
:1008B8002200A6000130F3020030F43B730A03194A
:1008C800740A03190800200884002108850000081C
:1008D800F100260886008701710881000130A00711
:1008E8000030A13D0130F1007108A6075E2C0230EE
:1008F8007C02031C08003D00101C852C8431A824B0
:1009080084313D00101A1012101B1013901E9F2CDA
:10091800181C9E2C2200A40130302000A2000030B8
:10092800A30080302100EB006B082000A000A40188
:100938003D001810901203307C02031C0800901D23
:1009480008008031252008002200A4014030F10071
:1009580071082000A1003030A2000030A3008830C8
:10096800F1007108A000A40116303D009800220093
:10097800E8013D00900193019601901DC52C90114E
:10098800C12C0E120330F1007108FC000800200091
:100998000C18D52C3D008E19D52C8E018E15FC0116
:1009A800FC0A7C03031D08003D008E1A0800900114
:1009B8000230F1007108FC000800FF30F200FF303F
:1009C800F300200098013D008E108E11FB30F100DD
:1009D800710822008E058531002D08006400800111
:0A09E8000131890BF32C00340134B7
:020000040001F9
:04000E00C4D9CFDEA4
:00000001FF
