:020000040000FA
:1000000001EF05F0E2EF04F004EF06F000EF06F078
:100010001200B6EF04F000000CEF06F000C0E5FFA0
:1000200001C0E5FF02C0E5FF03C0E5FF04C0E5FF36
:1000300005C0E5FF06C0E5FF07C0E5FF08C0E5FF16
:1000400009C0E5FF61C000F0000E026E650E016E92
:10005000800E036E898804010D6B64C0F8FF63C0D5
:10006000F7FF62C0F6FFA40EA66E60C004F0045055
:10007000FF0A03E142EC04F06DD0045008E1120ED7
:100080000001626F040E636F04010D6F63D00450B2
:10009000010A24E1A68C01C005F002C006F003C0ED
:1000A00007F000C008F008C009F0080609500FE08A
:1000B0000900F5CFE5FF05C0E9FF06C0F3FF0750D3
:1000C000EEEC04F0052A02E3064A072AECD7050EF7
:1000D00000016125056E04010D6F3CD00450030A38
:1000E00019E100C005F005C006F0050606500EE057
:1000F000A688550EA76EAA0EA76EA682A698000027
:100100000F01400EF626000EF722EDD7010E040176
:100110000D6F20D00450020A1DE100C004F000065B
:1001200004500EE001C0E9FF02C0F3FF0350A5EC4C
:1001300004F0F56E012A02E3024A032A0D00EDD70E
:100140000A00550EA76EAA0EA76EA6820000010E29
:1001500004010D6F04010D5108E00CAD03D0880EB1
:100160000C6F03D0C80E04010C6F400E0401096F20
:10017000800E086FE4CF09F0E4CF08F0E4CF07F079
:10018000E4CF06F0E4CF05F0E4CF04F0E4CF03F0D1
:10019000E4CF02F0E4CF01F0E4CF00F0120000C0A1
:1001A000E5FF01C0E5FF6138E8441F0B010A05E1E6
:1001B00061B48DD00EEC00F08AD061B469D03C0EF1
:1001C00004010015006E0040E8403F0B0D0A01E0FD
:1001D00055D07F0E04010415046F7F0E0015006FCB
:1001E0000001A96B0001AC6B0001A66BA76BFBECD7
:1001F00002F00001AC510BE1080E0401016F000E8A
:10020000026F050E036F840E006F046F35D0050179
:1002100000AF24D006C500F007C501F00001A751CA
:10022000015C02E1A651005C04E200C0A6F001C03E
:10023000A7F000EC02F0020E0001A96F080E040105
:10024000016F000E026F050E036F800E006F080E27
:10025000066F050E076FC80E046F0ED0010E000169
:10026000A96F080E0401016F080E026F050E036FDF
:10027000C80E006F056B046F609829D00001A9516A
:10028000010A03E181EC02F022D0D5EC04F01FD08A
:1002900063500BE10001A851040A07E1AAC063FF03
:1002A000635003E1030E0001A86F0001A951020A87
:1002B0000CE100EC02F0040104AD03D0880E046FE1
:1002C00006D0C80E0401046F02D0D5EC04F0E4CFD0
:1002D00001F0E4CF00F01200D9CFE5FFE1CFD9FF64
:1002E00000C0E5FF01C0E5FF02C0E5FF03C0E5FF78
:1002F00004C0E5FF05C0E5FF06C0E5FF020EDBCF49
:1003000000F0030EDBCF01F0040EDBCF02F0050E90
:10031000DBCF03F0005016E1000E066E070E056EEF
:100320008A0E046E04C0E5FF05C0F4FF06C0F6FFA8
:1003300001C0E9FF02C0F3FF0350C6EC04F0F36A0A
:10034000040E4DD00050010A16E1000E066E070E95
:10035000056E8E0E046E04C0E5FF05C0F4FF06C0F6
:10036000F6FF01C0E9FF02C0F3FF0350C6EC04F042
:10037000F36A140E34D00050020A16E1000E066E25
:10038000070E056EA20E046E04C0E5FF05C0F4FF63
:1003900006C0F6FF01C0E9FF02C0F3FF0350C6EC40
:1003A00004F0F36A120E1BD00050030A16E1000E8F
:1003B000056E070E046EB40E006E00C0E5FF04C0AB
:1003C000F4FF05C0F6FF01C0E9FF02C0F3FF0350D0
:1003D000C6EC04F0F36A120E02D0F368E868E4CFCA
:1003E00006F0E4CF05F0E4CF04F0E4CF03F0E4CF6F
:1003F00002F0E4CF01F0E4CF00F0E4CFD9FF120027
:1004000000C0E5FF01C0E5FF02C0E5FF03C0E5FF56
:1004100004C0E5FF05C0E5FF06C0E5FF07C0E5FF36
:10042000000E0001A75D02E1080EA65D05E2A6C070
:1004300000F0A7C001F003D0080E006E016A005062
:100440000001A65F0150A75BFC0E04010415046FB8
:10045000030E0114026E045102120250046F005088
:10046000026E056F080E066F050E076F0001A16F83
:10047000080EA06F800EA26F00C002F001C003F052
:10048000FF0E00260122025003102AE0A0C002F055
:10049000A1C003F0A2C004F0A3C005F0A4C006F000
:1004A000A5C007F005C0E9FF06C0F3FF0750A5ECA3
:1004B00004F0056E0001A32B03E3A43F01D0A52B9C
:1004C00005C0E5FF02C0E9FF03C0F3FF0450EEECF6
:1004D00004F00001A02BD0E3A13F01D0A22BCCD788
:1004E000E4CF07F0E4CF06F0E4CF05F0E4CF04F06A
:1004F000E4CF03F0E4CF02F0E4CF01F0E4CF00F06A
:10050000120000C0E5FF01C0E5FF02C0E5FF03C027
:10051000E5FF04C0E5FF05C0E5FF06C0E5FF07C035
:10052000E5FF030E04010015016A036E026A01C4AF
:1005300000F0005002120150031202500001A627E1
:100540000350A723050E0001A46F080EA36F800EB1
:10055000A56F02C000F003C001F000C002F001C0AE
:1005600003F0FF0E00260122025003102AE0A0C073
:1005700002F0A1C003F0A2C004F0A3C005F0A4C023
:1005800006F0A5C007F005C0E9FF06C0F3FF07505D
:10059000A5EC04F0056E0001A32B03E3A43F01D0FA
:1005A000A52B05C0E5FF02C0E9FF03C0F3FF04501F
:1005B000EEEC04F00001A02BD0E3A13F01D0A22B70
:1005C000CCD7040100AD03D0880E006F03D0C80E55
:1005D0000401006FE4CF07F0E4CF06F0E4CF05F0AC
:1005E000E4CF04F0E4CF03F0E4CF02F0E4CF01F075
:1005F000E4CF00F0120000C0E5FF05010051600BE0
:10060000D8A458D001C500F00050050A09E1010E38
:100610000001AC6F040E0001A86F02C5AAF04AD019
:100620000050060A03E15DEC03F044D00050090AD3
:100630001CE1010E0001AC6F02C5ABF00001AB5133
:1006400004E1040E0001A86F35D01E0E6B6E400E43
:1006500004010C6F096F600E0A6F000E0B6F880E9D
:10066000086F050E0001A86F25D00050080A0FE1A1
:10067000010E0001AC6F000E0001A46FAB0EA36F62
:10068000800EA56F010E0001A66FA76B13D000505E
:100690000A0A10E1010E0001AC6F0501086B050E9E
:1006A0000001A46F080EA36F800EA56F010E00015C
:1006B000A66FA76BE4CF00F0120000C0E5FF0501B4
:1006C0000051800A01E045D003C500F00050010A46
:1006D0000FE1010E0001AC6F000E0001A56F070EC7
:1006E000A46F580EA36F120E0001A66FA76B31D036
:1006F0000050020A17E1010E0001AC6F000E00016C
:10070000A56F070EA46F6A0EA36F6C0EF66E070E30
:10071000F76E000EF86E0900F5CFA6F00900F5CFD0
:10072000A7F017D00050030A14E1010E0001AC6FCE
:10073000800EE56E000EE56EA30EE56E050102511A
:10074000E56E6CEC01F00001A66FF3CFA7F0040E8C
:10075000E126E4CF00F0120012010002FFFFFF08C3
:10076000D804AAFE180401020301090220000101B5
:1007700000A07D0904000002FFFFFF000705010241
:10078000400000070581024000000403090414032F
:100790005300650061004900630065004C00610082
:1007A00062001203500069006E0067007500690066
:1007B0006E006F001203310038004600340035002F
:1007C0004B0035003000700ED36ED3A4FED70F015E
:1007D0005B6B0F015C6B0F015D6B0F015E6B0F01BB
:1007E0005F6B92988988D0A204D0D0A002D0D0AEFE
:1007F00005D006EC00F0D082D080D08E140E626E50
:10080000600E04010E6F000E0F6F0001AB6B000154
:10081000A86BCE6ACF6A310ECD6E93EC04F017EC64
:1008200004F09EA0FCD79E908978F9D71200020EA2
:100830000001A85D26E365A405D0609265A402D0FE
:100840006594FCD760A201D01CD065A003D07DECDC
:1008500004F0659065A801D0659865AC01D0659CF1
:1008600065AA06D06AA003D0D5EC04F06A90659A18
:10087000030E0001A85D05E365A603D0CFEC00F0F0
:100880006596120000C0E5FF01C0E5FF02C0E5FF6C
:1008900003C0E5FFCD6A609260960068016800C001
:1008A00002F001C003F0FF0E0026012202500310E7
:1008B000F6E1899806EC00F0E4CF03F0E4CF02F013
:1008C000E4CF01F0E4CF00F01200F2CFEAFFF29E95
:1008D000A69EA69CA684E9CFA9FFE4CFA8FFF9ECC9
:1008E00004F0F4CFA8FFF9EC04F0F6CFA8FFF9EC80
:1008F00004F0A694EABEF28E1200656A676A636A23
:10090000160E6A6E608C609C65A602D06596FCD758
:100910006098D5EC04F00001AA6B0001AB6B030EEC
:100920000001A86F120060B605D0606A6086010EF3
:100930000001A86F0001A851010A06E160BA04D0C5
:10094000656A020E0001A86F1200E8AE04D0F3CF72
:10095000EAFFEE501200E8BC02EF00F0E9CFF6FF2C
:10096000F3CFF7FFF86E0900F5501200F2CFEAFF5F
:10097000F29EA69EA69CA684E9CFA9FFE4CFA8FF7D
:10098000F9EC04F0A694EABEF28E1200E8AE09D0AB
:10099000F3CFEAFFE4CFEEFFF4CFEEFFF6CFEEFFAA
:1009A0001200E8BC0FEF05F012000001A96B080E61
:1009B0000401016F000E026F050E036F880E006FB9
:1009C000046B1200F2CFF6FFF29EA69EA69CE9CF22
:1009D000A9FFA680A850F6BEF28E1200E8AE05D0A0
:1009E000F3CFEAFFE4CFEEFF1200E8BC09EF00F01E
:1009F0001200550EA76EAA0EA76EA682A6B2FED74B
:100A0000A94A11EEFEF021EEFEF0E3EC03F0FFD771
:100A1000010016000000A80000000100000065EFC2
:020A200004F0E0
:020000040030CA
:0400000003A85F3EB4
:020005009181E7
:060008000FC00FE00F40E5
:00000001FF
