:020000040000FA
:1000000053EF04F034EF04F004EF06F000EF06F0D5
:10001000120017EF04F000000CEF06F000C0E5FF3F
:1000200001C0E5FF02C0E5FF03C0E5FF04C0E5FF36
:1000300005C0E5FF06C0E5FF07C0E5FF6338E844FB
:100040001F0B010A05E163B4A0D1D6EC01F09DD1EC
:1000500063B47AD13C0E02010015006E0040E84006
:100060003F0B0D0A01E01BD102010451006E009EFE
:100070000050046F0051006E009E0050006F02019E
:10008000DA6B0201DB6B0201D86BD96B02011051F4
:10009000600BD8A47AD111C200F00050050A07E124
:1000A000010E0201DB6F040E0201D66FB3D00050C7
:1000B000060A01E06AD002011051800A01E0AAD0CC
:1000C00013C201F00150010A0FE1010E0201DB6FC2
:1000D000000E0201D56F060ED46F160ED36F120EEE
:1000E0000201D86FD96B96D00150020A17E1010EB8
:1000F0000201DB6F000E0201D56F060ED46F280ED1
:10010000D36F2A0EF66E060EF76E000EF86E09001B
:10011000F5CFD8F20900F5CFD9F27CD00150030A0F
:1001200001E078D0010E0201DB6F02011251030DD4
:10013000F450026EF3CF01F0036A980E0126060E0A
:100140000222000E032201C0F6FF02C0F7FF03C027
:10015000F8FF0900F5CFD3F20900F5CFD4F209007A
:10016000F5CFD5F2D3C201F0D4C202F0D5C203F06C
:1001700001C0E9FF02C0F3FF035006EC04F0016E7A
:1001800001C0D8F20201D96B45D00050090A1DE127
:10019000010E0201DB6F12C2D7F20201D75104E156
:1001A000040E0201D66F36D01E0E0F01546F400EA2
:1001B00002010C6F096F900E0A6F020E0B6F800E1A
:1001C000086F050E0201D66F25D00050080A0FE116
:1001D000010E0201DB6F020E0201D46FD70ED36F46
:1001E000800ED56F010E0201D86FD96B13D000506D
:1001F0000A0A10E1010E0201DB6F0201506B020ED0
:100200000201D46F500ED36F800ED56F010E020124
:10021000D86FD96B0201DB510BE1400E0201016F77
:10022000100E026F020E036F840E006F046F35D044
:10023000020110AF24D016C200F017C201F0020173
:10024000D951015C02E1D851005C04E200C0D8F24F
:1002500001C0D9F297EC02F0020E0201DA6F400EF3
:100260000201016F100E026F020E036F800E006F0D
:10027000500E066F020E076FC80E046F0ED0010EEF
:100280000201DA6F400E0201016F500E026F020E82
:10029000036FC80E006F056B046F649876D002017F
:1002A000DA51010A01E04DD001C200F0016A0050AC
:1002B0000201D8270150D923020E0201D46F500E3B
:1002C000D36F800ED56F00C002F001C003F0FF0EA7
:1002D00000260122025003102AE0D0C202F0D1C24F
:1002E00003F0D2C204F0D3C205F0D4C206F0D5C2E6
:1002F00007F005C0E9FF06C0F3FF075006EC04F065
:10030000056E0201D32B03E3D43F01D0D52B05C0EA
:10031000E5FF02C0E9FF03C0F3FF045040EC04F026
:100320000201D02B03E3D13F01D0D22BCCD7020165
:1003300000AD03D0880E006F28D0C80E0201006FF8
:1003400024D027EC04F021D00F015C510CE1020114
:10035000D651040A08E112C25CFF0F015C5103E1AF
:10036000030E0201D66F0201DA51020A0CE197EC8A
:1003700002F0020104AD03D0880E046F06D0C80E4F
:100380000201046F02D027EC04F0E4CF07F0E4CFC1
:1003900006F0E4CF05F0E4CF04F0E4CF03F0E4CFBF
:1003A00002F0E4CF01F0E4CF00F0120000C0E5FF5E
:1003B00001C0E5FF02C0E5FF03C0E5FF04C0E5FFA3
:1003C00005C0E5FF06C0E5FF07C0E5FF08C0E5FF83
:1003D00009C0E5FF91C200F0020E026E950E016E9B
:1003E000800E036E8B8402010D6B94C2F8FF93C2E2
:1003F000F7FF92C2F6FFA40EA66E90C204F004505E
:10040000FF0A03E1ACEC03F06DD0045008E1120EDA
:100410000201926F040E936F02010D6F63D00450BE
:10042000010A24E1A68C01C005F002C006F003C059
:1004300007F000C008F008C009F0080609500FE0F6
:100440000900F5CFE5FF05C0E9FF06C0F3FF07503F
:1004500040EC04F0052A02E3064A072AECD7050E11
:1004600002019125056E02010D6F3CD00450030A74
:1004700019E100C005F005C006F0050606500EE0C3
:10048000A688550EA76EAA0EA76EA682A698000093
:100490000F01400EF626000EF722EDD7010E0201E5
:1004A0000D6F20D00450020A1DE100C004F00006C8
:1004B00004500EE001C0E9FF02C0F3FF035006EC58
:1004C00004F0F56E012A02E3024A032A0D00EDD77B
:1004D0000A00550EA76EAA0EA76EA6820000010E96
:1004E00002010D6F02010D5108E00CAD03D0880E22
:1004F0000C6F03D0C80E02010C6F400E0201096F91
:10050000800E086FE4CF09F0E4CF08F0E4CF07F0E5
:10051000E4CF06F0E4CF05F0E4CF04F0E4CF03F03D
:10052000E4CF02F0E4CF01F0E4CF00F0120000C00D
:10053000E5FF01C0E5FF02C0E5FF03C0E5FF04C021
:10054000E5FF05C0E5FF06C0E5FF000E0201D95D2D
:1005500002E1400ED85D04E20201D851006E02D0E3
:10056000400E006E00C001F0026A01500201D85F27
:100570000250D95B02010451016EFC0E01160150BC
:10058000046F0050056F500E066F020E076F0201D8
:10059000D16F500ED06F800ED26F00C001F00006F8
:1005A00001502AE0D0C201F0D1C202F0D2C203F061
:1005B000D3C204F0D4C205F0D5C206F004C0E9FFEE
:1005C00005C0F3FF065006EC04F0046E0201D32BC5
:1005D00003E3D43F01D0D52B04C0E5FF01C0E9FF00
:1005E00002C0F3FF035040EC04F00201D02BD5E32E
:1005F000D13F01D0D22BD1D7E4CF06F0E4CF05F024
:10060000E4CF04F0E4CF03F0E4CF02F0E4CF01F054
:10061000E4CF00F0120012010002FFFFFF40D804F7
:10062000AAFE18040102030109022000010100A032
:100630007D0904000002FFFFFF00070501024000E2
:1006400000070581024000001403090400000000B7
:100650000000000000000000000000001403530030
:10066000650061004900630065004C0061006200A4
:100670001403500069006E006700750069006E0089
:100680006F000000140331003800460031003400D0
:100690004B003500300000004806005C0600700684
:1006A00000840600D350FC0BD36E9B8C7E6A7F6A5D
:1006B0009450006EFB0E0014946E8B84D08E80508C
:1006C000006E00B002D0D0B204D0D082D08006EC50
:1006D00000F0140E616E900E02010E6F020E0F6F8D
:1006E0000201D76B0201D66BCE6ACF6A310ECD6E96
:1006F000D3EC03F082EC03F09EA0FAD79E908B74AB
:10070000F7D71200020E0201D65D25E362A402D0E3
:100710006492629464A201D01ED062A003D0EDEC7A
:1007200003F0629062A801D0629862AC01D0629C32
:1007300062AA08D00F0153A105D027EC04F00F01E5
:100740005391629A030E0201D65D05E362A603D0BF
:100750000EEC00F06296120000C0E5FF01C0E5FF5C
:1007600002C0E5FF03C0E5FFCD6A649264960068AD
:10077000016800C002F001C003F0FF0E0026012254
:1007800002500310F6E18B50006EFB0E00148B6ECE
:1007900006EC00F0E4CF03F0E4CF02F0E4CF01F088
:1007A000E4CF00F0120000C0E5FF8050006E00B002
:1007B00007D064B605D0646A6486010E0201D66F64
:1007C0000201D651010A06E164BA04D0626A020E3F
:1007D0000201D66FE4CF00F01200626A0F015F6B76
:1007E0000F01536B648C0F015C6B030E0201D66F1B
:1007F0000201D76B6498649C160E0F01536F62A6BA
:1008000002D06296FCD727EC04F01200E8AE04D0C8
:10081000F3CFEAFFEE501200E8BC02EF00F0E9CFA0
:10082000F6FFF3CFF7FFF86E0900F5501200F2CF94
:10083000EAFFF29EA69EA69CA684E9CFA9FFE4CF7C
:10084000A8FF4BEC04F0A694EABEF28E120002015F
:10085000DA6B400E0201016F100E026F020E036F81
:10086000880E006F046B1200F2CFF6FFF29EA69E78
:10087000A69CE9CFA9FFA680A850F6BEF28E120072
:10088000E8AE05D0F3CFEAFFE4CFEEFF1200E8BCFC
:1008900009EF00F01200550EA76EAA0EA76EA682F1
:1008A000A6B2FED7A94A11EEFEF021EEFEF052EC00
:1008B00003F0FFD7010016000000D602000002007E
:0208C000000036
:020000040030CA
:040000000002191EC3
:020005008080F9
:0600080003C003E0034009
:00000001FF
