:040000008031102813
:100008007E14803120007F08F0008531042D7008AF
:100018002000FF007E100900803112287E10200089
:1000280083314F2B3D000F08F7000330F736890B5B
:100038001A287708F80078082100E7006703031DED
:100048002B283D000F1908008131B82108003D0018
:100058000F198B2920002008F7000230F736890B8A
:10006800322877080F39F80078082100E6000D30AB
:100078006606031D47297F30F70077082000A4058E
:100088007F30F7007708A0052100E201E401FA01BA
:10009800FB01200030086039031D080005303106D7
:1000A800031D5A282100E401E40AB828063020007C
:1000B8003106031DA72880303006031DF3283303BB
:1000C800031D6F282100E401E40AF730E0008230C4
:1000D800E1001230F028023020003306031D832887
:1000E8002100E401E40A8730E0008230E100893031
:1000F800840082308500003FFA00013FF228033077
:1001080020003306031DF3282100E401E40A20003F
:100118003208F700F801F735F80D7F3077078400CB
:100128008230783D8500003F2100E000013FE1007A
:1001380060088400610885000008F700F801770866
:10014800FA007808F228093020003106031DD62865
:100158002100E401E40A20003208F70077082100B2
:10016800E5006508031DBC280430F7007708D4288B
:100178001E303D0099004030F70077082000AC00A1
:100188004030F7007708A9002030AA000130AB0002
:100198008030F7007708A8000530F70077082100BD
:1001A800E300F328083020003106031DE22821006F
:1001B800E401E40AE530E0000030EE280A302000CF
:1001C8003106031DF3282100E401E40AA001A03050
:1001D800E0000030E1000130FA000030FB002100AF
:1001E8006408031D06294030F70077082000A100A5
:1001F8003030A2000030A3008430F7007708A00058
:10020800843041292000B01F2F297B083702031DA5
:100218000F297A083602031815293708FB00360813
:10022800FA008331092380310230F7007708210072
:10023800E2004030F70077082000A1003030A2002B
:100248000030A3008030F7007708A000A030A60097
:100258000030A70040292100E201E20A4030F700FF
:1002680077082000A100A030A2000030A300C83009
:10027800F7007708A000A501C830F7007708A400A8
:100288003D000E12080021006203031D882920008A
:100298002108F700F80177082100E8007808E9004C
:1002A80068087A07FA0069087B3DFB00A030E00087
:1002B8000030E1000130E8020030E93B680A031928
:1002C800690A03197B296008840061088500000811
:1002D800F7007C0886008701770881000130E00775
:1002E8000030E13D0130F7007708FC075E29200067
:1002F800201F83298830F7007708A0000800C8303D
:10030800F7007708A000080084310B2408003D009E
:100318001608031DA029043021006306031DA02927
:10032800200032083D0096001608031DA02903305E
:10033800F70077082100E300023021006206031D60
:10034800B5298331092380312000241FB029883042
:10035800F7007708A4000800C830F7007708A40061
:10036800080084310B24080022002136F4007408A8
:10037800F5002530F4007408F6000E152000AD01D4
:100388002200230823009200220022082300910063
:10039800A43095002200200A031DD6298331BF23EB
:1003A80081316A2A22002008031DE4291230F40052
:1003B8007408A2000430F4007408A3000430072A6B
:1003C80022002003031D0C2A230015170130F50213
:1003D800750A0319042A151400000000760886001F
:1003E8000130870023001308C03F1408C13F0230C2
:1003F800F4007408F607013091070030923DEA29AD
:1004080022002108053EF40074082000AD006A2A85
:10041800033022002006031D2C2A2108F40074084A
:10042800F5000130F502750A0319672A230015162D
:1004380055309600AA30960095140000000023005D
:10044800151200002300203091070030923D152A34
:1004580002302200200603194B2A6A2A76088600F1
:1004680001308700403F23009300413F9400023051
:10047800F4007408F60755309600AA3096009514D3
:10048800000000000130230091070030923D7508FC
:10049800F503F400023074020318322A7608860045
:1004A80001308700403F23009300413F9400023011
:1004B800F4007408F607951255309600AA30960095
:1004C8009514000000002000AD01AD0A20002D08A1
:1004D8000319762A2C1F722A8830732AC830F40030
:1004E8007408AC004030F4007408A9008030F400AF
:1004F8007408A8000800A7348234BB348234CF348F
:100508008234E33482340934023420340034013430
:1005180001340034A0347D34093404340034003408
:100528000234FF34FF34FF34003407340534013417
:100538000234403400340034073405348134023442
:10054800403400340034143403340934043400349F
:1005580000340034003400340034003400340034F3
:1005680000340034003400340034003400341434CF
:10057800033453340034653400346134003449346E
:10058800003463340034653400344C34003461344E
:100598000034623400341434033450340034693481
:1005A80000346E34003467340034753400346934F0
:1005B80000346E3400346F340034003400341434A2
:1005C80003343134003436340034463400343134A2
:1005D80000343434003435340034393400340034D1
:1005E8000034003400341234013400340234FF344F
:1005F800FF34FF344034D8340434AA34FE34183479
:100608000434013402340334013400307B024030B6
:1006180003197A020318122B7A08132B4030F100C1
:100628007108F3007308F100F201F109F209F10A07
:100638000319F20A7A087107FA007B08723DFB0079
:10064800FC30F10071082000A4057308F10071085E
:10065800A500A030A6000030A700A030F100710866
:10066800FC000130F302730A031908002100600836
:100678008400610885000008F1007C088600870175
:10068800710881000130E0070030E13D0130F100E0
:100698007108FC07352BFC302100990090302700A9
:1006A8009B0021001A1C552B1A1F582B23008C0164
:1006B8008D018E01FB302100EA006A088E052200B8
:1006C8000E1520000C186B2B2100961D712B210094
:1006D8009614161484311C24833114303D00910083
:1006E80020302000AE000130AF002100E501E30119
:1006F800200096019701313098008331DA23833145
:100708008331922383312000111C812B1110043076
:100718002100EA006A0822008E06812B023021009F
:100728006302031C08003D00101D9C2B8E10101145
:100738008E180800101CA52B8331F32383313D004C
:100748001010101A1012101B1013901A181CB22B2C
:1007580084310B2483313D0018109012033021009E
:100768006302031C08003D00901D0800803116201C
:100778003D0090110800FF30F200FF30F300200028
:1007880098013D008E108E110130F2020030F33BCB
:10079800720A031DC82B730A031DC82BFB30F10016
:1007A800710822008E0584311C24080020000C18D2
:1007B800E52B3D008E19E52B8E018E152100E301F6
:1007C800E30A21006303031D08003D008E1A080098
:1007D80090010230F10071082100E30008003D009B
:1007E8009001930198010E1796010330F2007208E8
:1007F8002100E300E5013D000E120E1316309800AB
:10080800901D082C9011042C84310B240800210021
:10081800E2014030F10071082000A1003030A20050
:100828000030A3008830F1007108A000A40108007E
:060838008531002D0800CF
:020000040001F9
:04000E00CCD9CFDE9C
:00000001FF
