:040000008031102813
:100008007E14803120007F08F000883104287008B1
:100018002000FF007E10090080311228FC013E30CC
:100028008400003085000A308631FD268031A030FA
:1000380084000030850040308631FD268031003054
:100048008400203085002030873103277E1020006F
:100058008231A12A3D000F08F7000330F736890BDB
:1000680032287708F8007808FA007A03031D482830
:100078000F1908002930F2008730F30086318A26EC
:10008800803181312B2108000F19F5281F30F2002B
:100098008730F30086318A26803120000008F70077
:1000A8000230F736890B552877080F39F800780899
:1000B800F9000D307906031DEB28E530F200863093
:1000C800F30086318A2680317F30F70077082000D8
:1000D80084057F30F7007708200080052000C301E1
:1000E800C201BE01BF0183312923803120004208AB
:1000F800031D9528013086002030870008308100D4
:100108002030200083001830200082008430F7005F
:100118007708200080000430860020308700843073
:10012800E7282000981FCC2820003F0820001F0245
:10013800031DA22820003E0820001E020318AC2838
:1001480020001F082000BF0020001E082000BE005D
:100158008331A42380310230F70077082000C300E0
:1001680001308600203087000830810020302000D0
:1001780083001830200082008030F70077082000C4
:100188008000203020008700103020008600E22800
:100198002000C301C30A01308600203087000830E0
:1001A8008100203020008300103020008200C830F9
:1001B800F7007708200080002000850104308600C1
:1001C80020308700C83081003D000E120800200052
:1001D8004303031DF2288431D524080086316026A4
:1001E80008003D30F2008730F30086318A268031DE
:1001F8003D001608031D0F2904307C06031D0F2936
:10020800200044083D0096001608031D0F290330FE
:10021800F7007708FC00023020004306031D282958
:100228008331A42380312000041F21290430860053
:100238002030870088308100080004308600203094
:100248008700C83081000800863160260800210038
:100258002136F4007408F500A530F4007408F6009F
:1002680022000E1520008D01210023082300920092
:100278002100220823009100A43095002100200AC3
:10028800031D4A29863145268131E22921002008AB
:10029800031D5C291230F4007408A2000430F40035
:1002A8007408A3000D308600203087000430E1294F
:1002B8002003031D8429230015170130F502750A50
:1002C80003197A29151400000000760886008701B2
:1002D80023001308C03F1408C13F0230F40074081B
:1002E800F607013091070030923D6129210021086D
:1002F800053EF4000D308600203087007408E1299F
:1003080003302006031DA3292108F4007408F50012
:100318000130F502750A0319DC292300151655303A
:100328009600AA30960095140000000023001512CC
:1003380000002300203091070030923D8C290230C4
:10034800210020060319C129E229760886008701C1
:10035800403F23009300413F94000230F4007408AA
:10036800F60755309600AA30960095140000000054
:100378000130230091070030923D7508F503F40021
:10038800023074020318A929760886008701403FC5
:1003980023009300413F94000230F4007408F607EC
:1003A800951255309600AA3096009514000000006A
:1003B8000D308600203087000130810020000D08B4
:1003C8000319F52920000C1FEF290C308600203076
:1003D80087008830F4290C30860020308700C83028
:1003E80081000930860020308700403081000830C5
:1003F8008600203087008030810008002D302000E2
:10040800A8002808BC0025082604031D0F2A303040
:100418008731552708002000B6010A30270603193E
:10042800A61F182AB601B60A3608A8002808B5007B
:10043800350803192F2A2D3087315527823120009E
:100448002509A8002609A900A80A0319A90A280845
:10045800B8002908322A2508B8002608B900890DED
:10046800893B8909BA00BB003B083A0439043804BF
:100478000319992A2708A800A901AA01AB012B088A
:10048800F4002A08F3002908F2002808F1003B08C4
:10049800F8003A08F7003908F6003808F500843102
:1004A8009324823171082000AC002C08B70027087B
:1004B800A800A901AA01AB012B08F4002A08F3003F
:1004C8002908F2002808F1003B08F8003A08F7006C
:1004D8003908F6003808F5008331FC2382317408A6
:1004E8002000BB007308BA007208B9007108B80090
:1004F8000A3037020318832A3708303E852A37081E
:10050800373EA8003C088600870128088100013092
:10051800A8002808BC07382A0130BC023C0886001D
:10052800870101088731552782312D302000A80026
:100538003C08280203180800902AFC302100990082
:10054800903027009B0021001A1CA72A1A1FAA2AEC
:1005580023008C018D018E0100302000A80000309E
:10056800A7002530A6008030A5008531942582316A
:100578000C308731552782310D30F2008630F30078
:1005880086318A26823104302000A5000030A6007A
:100598000A30BD003D08A7008231022282312E3088
:1005A80087315527823112302000A5000030A6007F
:1005B8000A30BD003D08A7008231022282312E3068
:1005C80087315527823107302000A5000030A6006A
:1005D8000A30BD003D08A7008231022282314E3028
:1005E800F2008730F30086318A268231FB30200002
:1005F800BD003D0821008E0522000E1514303D0077
:100608009100A03020008E00003020008F002000D4
:10061800C701FC019601970131309800D430F200EF
:100628008630F30086318A2682318531E925823188
:100638008531562582312000111C1C2B11100430E5
:10064800BD003D0822008E061C2B200018086039CA
:10065800031D0800053020001906031D412B20004A
:10066800C201C20A0430F6007608FC0020001A080D
:10067800F60076082000C40008000630200019069D
:10068800031D492B8531162508000930200019065D
:10069800031D7F2B2000C201C20A20001A08F600A1
:1006A80076082000C7004708031D5F2B0430F600BA
:1006B8007608FC0008001E303D0099000C308600CA
:1006C80020308700403081000930860020308700C4
:1006D80040308100A03020008A00003020008B00CC
:1006E8000830860020308700883081000530F60009
:1006F8007608FC000800083020001906031D902B1E
:100708002000C201C20A4730C5000030C6000130CF
:10071800BE000030BF0008000A3020001906031D83
:1007280008002000C201C20A2000900110302000F9
:10073800C5002030C6000130BE000030BF000800F0
:10074800003020003F02083003193E020318B12B85
:100758003F08F4003E08F300B52B0830F3000030E2
:10076800F4007309F1007409F200F10A0319F20A9E
:100778003E087107BE003F08723DBF00FC30F10023
:1007880071082000840574080339F10071082000FD
:1007980084040530860020308700730881002030EB
:1007A8002000870010302000860010302000C00094
:1007B8002030C1000130F3020030F43B730A031902
:1007C800740A0319080045088400460885000008D3
:1007D800F100400886004108870071088100013057
:1007E800C5070030C63D0130C0070030C13DDE2BD3
:1007F80000302000A3000030A2000030A10000302B
:10080800A00074087304720471040319462CA4012F
:10081800A40AF41B1B2C0130F135F20DF30DF40D75
:10082800890B102C0130F9007908A4070D2C013030
:10083800A035A10DA20DA30D890B1C2C74087802FC
:10084800031D302C73087702031D302C72087602C2
:10085800031D302C71087502031C3B2C7108F5022E
:100868007208F63B7308F73B7408F83B2014013014
:10087800F436F30CF20CF10C890B3C2C0130A40279
:10088800031D1B2C2308F4002208F3002108F200A2
:100898002008F1000800F4007408031D5F2C71089B
:1008A800860087010930C03F8630C13F0430F1001F
:1008B8000030F20008007403031D6E2C71088600D6
:1008C80087017630C03F8630C13F1430F1000030D8
:1008D800F200080002307406031D7E2C71088600A1
:1008E8008701B030C03F8630C13F1230F100003080
:1008F800F200080003307406031D8E2C7108860070
:1009080087019E30C03F8630C13F1230F100003071
:10091800F2000800FF30F100FF30F2000800740810
:100928007304720471040319CC2CFA01FA0AF41B3B
:10093800A92C0130F135F20DF30DF40D890B9E2C25
:100948000130F9007908FA079B2C74087802031D16
:10095800B72C73087702031DB72C72087602031DA3
:10096800B72C71087502031CC12C7108F5027208B6
:10097800F63B7308F73B7408F83B0130F436F30C88
:10098800F20CF10C890BC22C0130FA02031DA92CC0
:100998007808F4007708F3007608F2007508F1008B
:1009A8000800033020000005F1007108F300200062
:1009B8000108F200720820003E07BE0073083F3DA0
:1009C800BF001030C5002030C6000130F2020030F0
:1009D800F33B720A0319730A0319072D45088400AB
:1009E800460885000008F100400886004108870095
:1009F800710881000130C5070030C63D0130C007CD
:100A08000030C13DE92C2000001F102D8830F10076
:100A18007108200080000800C830F100710820002B
:100A280080000800803020001806031D0800200000
:100A38001B03031D2B2D2000C201C20AC230C500B2
:100A48008630C6001230BE000030BF0008000230F9
:100A580020001B06031D402D2000C201C20AC93018
:100A6800C5008530C600CB30840085308500003F46
:100A7800BE00013FBF000800033020001B06031D15
:100A880008002000C201C20A4530F5007508F100CF
:100A980020001A0884314F2472082000BF00710812
:100AA800BE00080002307C02031C08003D00101D37
:100AB8006A2DF130F2008630F30086318A268531BE
:100AC8003D008E10101D6A2D1011662D8E1808001D
:100AD800101C732D8631272685313D001010101A01
:100AE8001012101B1013901E892D1430F20087303D
:100AF800F30086318A2685313D00181C882D863101
:100B0800602685313D001810901203307C02031CCA
:100B18000800901D080080312E203D00901108002B
:100B280020002508A9002608AA002708AB002808E5
:100B3800AC000230A935AA0DAB0DAC0D890B9E2D6A
:100B48002C08F4002B08F3002A08F2002908F10009
:100B58000230F800DC30F7006C30F6000030F500A9
:100B68008331FC237108FF3EFA00FF30723DFB0021
:100B780023009D019E019F017B089C007A089B0031
:100B88001E159F159E169D1708000934023420343F
:100B98000034013401340034A0347D340934043481
:100BA800003400340234FF34FF34FF340034073497
:100BB8000534013402344034003400340734053439
:100BC800813402344034003400343D008E19F72D4E
:100BD8008E018E15FC01FC0A0930F2008730F30003
:100BE80086318A2685317C03031D08003D008E1A54
:100BF800080090010230F5007508FC003330F2005F
:100C08008730F30086318A26080004340334093417
:100C180004342A342A342A342034503449344E34A3
:100C28004734553449344E344F34203442344F34E9
:100C38004F3454344C344F344134443445345234B2
:100C48002034763400344630F2008730F3008631A1
:100C58008A2686313D00900193019601163098004E
:100C68000E170E13901D3A2E9011362E0E12863145
:100C780060262000C401C7010330F5007508FC0098
:100C88000800FF30F200FF30F300200098013D001B
:100C98008E108E110130F2020030F33B720A031DF0
:100CA8004E2E730A031D4E2EFB30F10071082200F0
:100CB8008E0587315C2708002000C30101308600BB
:100CC8002030870008308100203020008300183051
:100CD800200082008830F100710820008000200088
:100CE8008401080014340334533400346534003468
:100CF80061340034493400346334003465340034DA
:100D08004C34003461340034623400347208840096
:100D1800730885001200031908007208840073081C
:100D2800850000088731552786310130F2070030E9
:100D3800F33D8A2E1234033431340034363400340F
:100D4800463400343134003434340034353400341B
:100D5800393400342034003412340334503400342D
:100D6800693400346E340034673400347534003428
:100D7800693400346E3400346F3400341234013472
:100D880000340234FF34FF34FF340834D8340434D8
:100D9800AA34FE34183404340134023403340134E0
:100DA8005334743461347234743469346E3467344F
:100DB800203462346F346F3474342E340D340A3472
:100DC8000034503449344434203453344534543492
:100DD800553450340D340A34003441346334743497
:100DE8006934763461347434653464340D340A34C7
:100DF8000034640080010131890BFE2E0034640048
:100E080080010131890B042F003441347434743467
:100E1800613463346834653464340D340A3400341E
:100E28004534503420346534723472346F3472343B
:100E38000D340A34003445345034303420344F34BF
:100E4800553454340D340A34003445345034313474
:100E580020344F34553454340D340A34003450346B
:100E68006F34773465347234653464340D340A343D
:100E78000034453450343034203449344E340D3441
:100E88000A340034523465347334653474340D34A0
:100E98000A34003420342A342A342A340D340A34EB
:100EA8000034F10023009E1C562F71089A00080098
:060EB8008831002808004B
:020000040001F9
:04000E008CD9CFDEDC
:00000001FF
