:0400000055EF00F0C8
:0E0008003582FACF01F0FBCF02F0A0EF02F03C
:100018003580D8CF0FF0E8CF10F0E0CF11F0FACF4D
:1000280012F0FBCF13F0E9CF14F0EACF15F0E1CFCF
:1000380016F0E2CF17F0D9CF18F0DACF19F0F3CFD6
:100048001AF0F4CF1BF0F6CF1CF0F7CF1DF0F8CF65
:100058001EF0F5CF1FF00CEF06F01FC0F5FF1EC015
:10006800F8FF1DC0F7FF1CC0F6FF1BC0F4FF1AC045
:10007800F3FF19C0DAFF18C0D9FF17C0E2FF16C096
:10008800E1FF15C0EAFF14C0E9FF13C0FBFF12C06F
:10009800FAFF11C0E0FF10C0E8FF0FC0D8FF35908D
:1000A80010007CEF03F06338E8461F0B286E280425
:1000B800D8A405D063B41200D5EC01F0120063B4E3
:1000C8004CD102010041E8423F0B0F0B276E0D0E89
:1000D8002718D8A402D10201049F0201009F000E34
:1000E800316E000E336E000E306E000E2F6E00C59E
:1000F80025F0600E2516D8A4120001C5E8FF050AF0
:10010800D8A403D0010E336E67D001C5E8FF060AF4
:10011800D8A456D000C5E8FF800AD8A492D003C559
:10012800E8FF010AD8A40AD0010E336EED0E2D6E39
:100138000B0E2E6E000E306E120E72D003C5E8FF45
:10014800020AD8A411D0010E336E7D0E2D6E0B0E4F
:100158002E6E7F0EF66E0B0EF76E0900F5CF2FF0A0
:100168000A00F5CF30F06DD003C5E8FF030AD8A424
:1001780068D0010E336E02C525F02550020D750EAC
:10018800F324F66E0B0EF420F76E0900F5CF2DF070
:100198000A00F5CF2EF02DC0F6FF2EC0F7FFF86A43
:1001A800020EF76403D00800F55005D0F6CFE9FF3A
:1001B800F7CFEAFFEF50256E25502F6E306A41D0F9
:1001C80001C5E8FF090AD8A41DD0010E336E02C587
:1001D80034F03450D8A402D0040E12D01E0E0F01F1
:1001E800546F400E02010C6F400E0201096F000EA1
:1001F80002010B6F600E0A6F800E0201086F050E78
:10020800326E1FD001C5E8FF080AD8A40BD0010E32
:10021800336E340E2D6E000E12D0000E306E010EAD
:100228002F6E0FD001C5E8FF0A0AD8A40AD0010E24
:10023800336E000EE8CF40F5400E2D6E050E2E6E83
:10024800ECD73350D8A40DD0400E0201016F050E33
:100258000201036F000E026F840E0201006F840E0C
:1002680025D025EE00F0DFAE24D025EE06F02F5085
:10027800DE5C3050DE58D8B004D006C52FF007C574
:1002880030F05BEC02F0020E316E400E0201016F9D
:10029800050E0201036F000E026F800E0201006F4F
:1002A800050E0201076F400E066F13D00201046F9E
:1002B80012D0010E316E400E0201016F050E0201CF
:1002C800036F400E026FC80E0201006F000E02019C
:1002D800056FC80EEBD7649812003104D8A43AD041
:1002E80001C229F02A6A29502F242F6E2A50302063
:1002F800306E400E2D6E050E2E6E19D02DC0F6FFF5
:100308002EC0F7FFF86A2BC0D9FF2CC0DAFF020E07
:10031800F76403D00800F55005D0F6CFE9FFF7CF12
:10032800EAFFEF50DF6E2D4A2E2A2B4A2C2A290687
:10033800D8A02A062928E2E12A28D8A4DFD7020172
:1003480000AD04D0880E0201006F1200C80E020131
:10035800006F12006BEC03F012000F015C51D8A47F
:100368000CD0040E3218D8A408D002C55CFF0F01C7
:100378005C51D8A402D0030E326E020E3118D8A4F4
:100388000DD05BEC02F0020104AD04D0880E02012E
:10039800046F1200C80E0201046F12006BEC03F028
:1003A800120061C024F0650E226E000E236E8B844D
:1003B800000E02010D6F64C0F8FF63C0F7FF62C052
:1003C800F6FFA40EA66E00016029D8A403D059EC4C
:1003D80003F05AD000016051D8A408D0120E0001D1
:1003E800626F040E0001636F040E2FD000016005D8
:1003F800D8A413D0A68C09D0090022C0D9FF23C0E5
:10040800DAFFF5CFDFFF224A232A24062428D8A4BE
:10041800F3D700016151050F18D0030E00016019D0
:10042800D8B40ED015D0A688550EA76EAA0EA76E02
:10043800A682A69800F00F01400EF626000EF722BD
:1004480024062428D8B41ED0EED702010D6F1CD084
:10045800020E00016019D8B40AD016D022C0D9FF04
:1004680023C0DAFFDF50F56E224A232A0D00240646
:100478002428D8A4F3D70A00550EA76EAA0EA76E93
:10048800A68200F0010EE1D702010D51D8B408D0C0
:1004980002010CAD02D0880E01D0C80E02010C6F0B
:1004A800400E0201096F800E0201086F12003050E1
:1004B80007E1400E2F5CD8B003D02FC022F002D045
:1004C800400E226E2250206E216A201E211E204AD4
:1004D800212A2F5020242F6E30502120306EFC0E00
:1004E8000201041722C005F2050E0201076F400E33
:1004F800066F400E2B6E050E2C6E19D02DC0F6FF20
:100508002EC0F7FFF86A2BC0D9FF2CC0DAFF020E05
:10051800F76403D00800F55005D0F6CFE9FFF7CF10
:10052800EAFFEF50DF6E2D4A2E2A2B4A2C2A22068C
:100538002228D8B41200E2D7E9CF03F0EACF04F0BA
:10054800E1CF05F0E2CF06F0D9CF07F0DACF08F017
:10055800F3CF09F0F4CF0AF0F6CF0BF0F7CF0CF099
:10056800F8CF0DF0F5CF0EF004EF06F00EC0F5FF52
:100578000DC0F8FF0CC0F7FF0BC0F6FF0AC0F4FF70
:1005880009C0F3FF08C0DAFF07C0D9FF06C0E2FFC1
:1005980005C0E1FF04C0EAFF03C0E9FF02C0FBFF9A
:1005A80001C0FAFF35921100D3909B8C000E7E6E2D
:1005B800000E7F6E94948B84D08E80B002D0D0B21F
:1005C80004D0D082D08083EC03F0140E616E000E4C
:1005D80002010F6F600E0E6F000E346E000E326E49
:1005E800000ECE6E000ECF6E310ECD6E47EC03F0CE
:1005F80004EC03F09EA0FAD79E90040E8B1AF6D74F
:10060800020E326001D0120062A402D06492629499
:1006180064B2120062A003D02BEC03F0629062B8BF
:10062800629862BC629C62AA08D00F0153A105D0EF
:100638006BEC03F00F015391629A030E326001D004
:10064800120062A6120057EC00F062961200000E2B
:10065800626E000E0F015F6F000E0F01536F648C06
:10066800000E0F015C6F030E326E000E346E64983C
:10067800649C160E0F01536F01D0629662B6FDD7C7
:100688006BEC03F0120080A064B605D0000E646E17
:100698006486010E326E3204D8A4120064BA1200C5
:1006A800000E626E020E326E120020682168000E83
:1006B800CD6E649264962006D8A021062028FBE11E
:1006C8002128D8A4F8D78B9483EC03F01200000EED
:1006D800316E400E0201016F050E0201036F000E1C
:1006E800026F880E0201006F000E0201046F1200F3
:1006F80035903592000EF86E0001D8EF02F000EF49
:0407080006F01200E5
:100B7400009D0BB10BC50BD90B090220000101002C
:100B8400A07D0904000002FFFFFF000705010240E9
:100B9400000007058102400000140309040000005E
:100BA40000000000000000000000000000140353D7
:100BB40000650061004900630065004C006100624B
:100BC400001403500069006E006700750069006E30
:100BD400006F000000140331003800460031003477
:100BE400004B0035003000000012010002FFFFFF3F
:0C0BF40040D804AAFE180401020301000E
:020000040030CA
:0E0000000002191EFF8080FF03C003E00340D2
:00000001FF
