:080A00008531022D8731F02F32
:100A6800080023008C018D018E010800F0010E3072
:100A78008631FD260800FE0012001E00FE0B402DE8
:100A8800003400346C34DC34023401340034003473
:100A9800003421008C018D018E0120008C018D0114
:100AA8008E0108000E30853162258531F430200032
:100AB800A6000130A70087316C270800F4007408ED
:100AC8008531A9258531F2007208F3007308013ACF
:100AD800F2007208F000740886318E260800F401CE
:100AE800F501701C7B2D7208F4077308F53D013081
:100AF800F235F30D890B7C2D0130F136F00C890BA2
:100B0800812D70087104031D752D7508F100740896
:100B1800F000080021009618932D96141614FC3046
:100B280099001A1C952D1A1F972D85314D25853151
:100B380085313525853185313425853185313A250D
:100B48008531853156258531A52DF000DB2D7008BE
:100B5800003E840088300318013E8500000820000C
:100B68000C050319B92D0130080000300800700881
:100B7800003E840088300318013E850000082000EC
:100B88000D050319C92D0130080000300800700850
:100B9800003E840088300318013E850000082000CC
:100BA8000E050319D92D013008000030080070081F
:100BB800123E840088300318013E85000008003A80
:100BC8000319AB2D013A0319BB2D033A0319CB2D99
:100BD800ED2D0030080076082000A000A1012008B3
:100BE800F0002108F1007808A200A3012208F20011
:100BF8002308F3008531732585317108FB007008DF
:100C0800FA0076082000A000A1012008F0002108C1
:100C1800F1007908A200A3012208F2002308F300DA
:100C280085317325853170082000A500A4012408AA
:100C3800FA072508FB3D7708A000A1012008F0006D
:100C48002108F1007808A200A3012208F200230875
:100C5800F3008531732570082000A500A40124083D
:100C6800FA072508FB3D7B08F7007A08F60008001C
:100C78000030FC000030FB000030FA000030F900C2
:100C880077087604750474040319852EFD01FD0A9E
:100C9800F7195A2E0130F435F50DF60DF70D890BBD
:100CA8004F2E0130F8007808FD074C2E0130F93539
:100CB800FA0DFB0DFC0D890B5B2E77087302031DE3
:100CC8006F2E76087202031D6F2E75087102031DC0
:100CD8006F2E74087002031C7A2E7408F0027508CF
:100CE800F13B7608F23B7708F33B79140130F7368D
:100CF800F60CF50CF40C890B7B2E0130FD02031D5C
:100D08005A2E7C08F3007B08F2007A08F100790873
:100D1800F0000800F100EA2E700803199F2E7108F0
:100D2800003E840088300318013E85000008220038
:100D38000C048C0008007108003E840088300318F9
:100D4800013E85000008FF3A013EFF3E22000C05E7
:100D58008C00080070080319BD2E7108003E84003D
:100D680088300318013E8500000822000D048D001C
:100D780008007108003E840088300318013E850091
:100D88000008FF3A013EFF3E22000D058D000800D5
:100D980070080319DB2E7108003E840088300318A0
:100DA800013E8500000822000E048E00080071082C
:100DB800003E840088300318013E85000008FF3A91
:100DC800013EFF3E22000E058E0008007108123E0B
:100DD800840088300318013E85000008003A031992
:100DE800902E013A0319AE2E033A0319CC2EFC2E8D
:100DF8000800F100592F700803190E2F7108003EE2
:100E0800840088300318013E8500000821000C0486
:100E18008C0008007108003E840088300318013EE9
:100E280085000008FF3A013EFF3E21000C058C00BA
:100E38000800700803192C2F7108003E84008830C0
:100E48000318013E8500000821000D048D000800EC
:100E58007108003E840088300318013E85000008B0
:100E6800FF3A013EFF3E21000D058D000800700885
:100E780003194A2F7108003E840088300318013E88
:100E88008500000821000E048E0008007108003E4D
:100E9800840088300318013E85000008FF3A013EAF
:100EA800FF3E21000E058E0008007108123E8400E6
:100EB80088300318013E85000008003A0319FF2E08
:100EC800013A03191D2F033A03193B2F6B2F080012
:100ED80020003708F3003608F2003508F10034081E
:100EE800F0000030F7000030F6000F30F500A030B9
:100EF800F40086313C26873171082000B300700861
:100F0800B2003208503EB200F730333DB300320829
:100F1800F0003308F100F201F3010030F70000306F
:100F2800F6000330F5000530F40086313C268731A1
:100F380070082000A8002808B1003108A800A901FD
:100F48002808F6002908F7000530F8000330F900F2
:100F58008531EF25873176092000AA007709AB0093
:100F6800AA0A0319AB0A32082A07AC0033082B3D3A
:100F7800AD002C08053EF00000302D3DF100F201D7
:100F8800F3010030F7000030F6000030F5000330C0
:100F9800F40086313C26873170082000A800280814
:100FA800AE000130A6020030A73B2608270403192B
:100FB80008002E08013EA8002808AF003108013EAD
:100FC800A8002808B0000130B0020319D52F01305D
:100FD800AF020319E72FEB2F4530840085308500D9
:100FE8003430860000308700083085313F252A00DC
:100FF8008001200085318E2D2034103408342034AF
:101008001034083440348034803401340234FF34DE
:1010180001340234043410342034403400340034B1
:10102800003402340234023402340234013400340D
:101038000034FF3402340234023401340134013400
:00000001FF
