:020000040000FA
:100C000002EF06F017EEFFF027EEFFF0F86AA68E6F
:100C1000A69CBF0EE96E0E0EEA6E0068ED6A0050EB
:100C2000FDE1000EF66E0E0EF76E000EF86E090076
:100C3000F5CF05F00900F5CF06F034D00900F5CF67
:100C400000F00900F5CF01F00900F5CF02F009002E
:100C50000900F5CFE9FF0900F5CFEAFF0900090017
:100C60000900F5CF03F00900F5CF04F009000900F1
:100C7000F6CF07F0F7CF08F0F8CF09F000C0F6FF85
:100C800001C0F7FF02C0F8FF03D00900F5CFEEFF67
:100C90000306FBE20406F9E207C0F6FF08C0F7FF0F
:100CA00009C0F8FF0506CAE20606C8E2CBEC06F06A
:100CB000FFD7D9CFE5FFE1CFD9FF00C0E5FF01C0E5
:100CC000E5FF02C0E5FF03C0E5FF020EDBCF00F049
:100CD000030EDBCF01F0026A036A0150035C02E1FC
:100CE0000050025C06E20C0EACEC06F0024A032A4D
:100CF000F4D7E4CF03F0E4CF02F0E4CF01F0E4CF87
:100D000000F0E4CFD9FF1200D9CFE5FFE1CFD9FF42
:100D100000C0E5FF01C0E5FF02C0E5FF03C0E5FF3D
:100D2000020EDBCF00F0030EDBCF01F0026A036A94
:100D30000150035C02E10050025C03E2024A032A14
:100D4000F7D7E4CF03F0E4CF02F0E4CF01F0E4CF33
:100D500000F0E4CFD9FF1200E806E56E630EBFECA9
:100D600006F0E4500BE000D0E56E630EBFEC06F039
:100D700000D000D00000E450E82EF6D71200E806BC
:100D80000000E85007E000D000D000D000D0000004
:100D9000E82EFAD71200D350030B800F7D0F02E329
:100DA000D3A4FED7D08EF29EF29CF0EC06F007ECB6
:100DB00007F00CEC07F0DFEC06F0FDD71200899885
:100DC000E56A320EE56E59EC06F0E652E652898885
:100DD000E56A320EE56E59EC06F0E652E652120074
:100DE000896A8A6A400E8B6E8C6A8D6A926A936AEF
:100DF000949094929494949C949E956A966A12000E
:100E000001001C0E000000040000010000000F0E95
:0E0E1000C16E070EB46E120092981200000020
:00000001FF
