:020000040000FA
:100C000020EF69F00001120056EF6DF00F01486906
:100C10001F0E0F01496F12007BEF6DF0D9CFE5FF7A
:100C2000E1CFD9FF00C0E5FF01C0E5FF02C0E5FF4D
:100C300003C0E5FF04C0E5FF05C0E5FF06C0E5FF12
:100C400007C0E5FF08C0E5FF09C0E5FF0AC0E5FFF2
:100C50000BC0E5FF0CC0E5FF0DC0E5FF0EC0E5FFD2
:100C60000FC0E5FF10C0E5FF11C0E5FF12C0E5FFB2
:100C700013C0E5FF14C0E5FF15C0E5FF16C0E5FF92
:100C800017C0E5FF18C0E5FF19C0E5FF1AC0E5FF72
:100C90001BC0E5FF1CC0E5FF1DC0E5FF1EC0E5FF52
:100CA0001FC0E5FF20C0E5FF21C0E5FF22C0E5FF32
:100CB00023C0E5FF24C0E5FF25C0E5FF26C0E5FF12
:100CC00027C0E5FF28C0E5FF29C0E5FF2AC0E5FFF2
:100CD0002BC0E5FF2CC0E5FF2DC0E5FF2EC0E5FFD2
:100CE0002FC0E5FF020EDBCF00F0030EDBCF01F0DB
:100CF000040EDBCF02F0050EDBCF03F0060EDBCFD8
:100D000004F0070EDBCF05F0080EDBCF06F000C0C5
:100D1000E9FF01C0F3FF0250FAEC6DF0076EF3CF6C
:100D200008F0F4CF09F007C0E9FF08C0F3FF09504D
:100D3000EAEC6EF00A6E0B6A0ABE0B68D00E0A2649
:100D4000D8A00B06000E0B5C02E10A0E0A5C23E23F
:100D50000750010F0C6E000E08200D6E000E0920CA
:100D60000CC0E9FF0DC0F3FFEAEC6EF03A0A13E1A4
:100D7000020E0726000E0822092207C0E5FF08C060
:100D8000F4FF09C0F6FF00C0E9FF01C0F3FF025005
:100D90001BEC6FF002D00A6A0B6AE56AF46AF66A25
:100DA00003C0E9FF04C0F3FF05501BEC6FF0000E19
:100DB0000B5C02E1010E0A5C03E30B0E9DEF0FF0EA
:100DC0000B50E56E0A50E56EE56A030EE56E2BECFE
:100DD0006BF0006EF3CF01F0040EE126D90E002671
:100DE000080E012200C0E9FF01C0EAFFEECF00F0CB
:100DF000EECF01F0EFCF02F000500110021003E13E
:100E00000C0E9DEF0FF000C0E5FF01C0F4FF02C023
:100E1000F6FF03C0E9FF04C0F3FF05501BEC6FF0C1
:100E200000C0E9FF01C0F3FF0250EAEC6EF0036E70
:100E300003501FE00050010F036E000E0120046EEE
:100E4000000E022003C0E9FF04C0F3FFEAEC6EF0DD
:100E5000E56EA0EC6EF0036EE65203B00AD00650C9
:100E600005E003A403D00A0E9DEF0FF0E86A9DEFA2
:100E70000FF0E56A00C0E9FF01C0F3FF02505FEC2C
:100E80006FF00050010F046E000E0120056E000E81
:100E90000220076E0AC0E5FF04C0E9FF05C0F3FFAA
:100EA0005FEC6FF00A50E56EA5EC52F0036EE6526F
:100EB00003A003D0030E9DEF0FF0065005E003A43E
:100EC00003D00A0E9DEF0FF0036A066A086A096AEA
:100ED000E56AE56AE56AE56A0250E56E0150E56E8D
:100EE0000050E56E73EC4BF00A6E070EE1260A50D7
:100EF000010A01E090D00050320F0B6E000E01206D
:100F00000C6E000E02200D6EBE0E0B26010E0C2282
:100F1000000E0D220B50040F0E6E000E0C200F6EF3
:100F2000000E0D200EC0E9FF0FC0F3FFEAEC6EF0DB
:100F30000E6E0E50D8B46FD0080E0B26000E0C2289
:100F40000B500E6E0C500F6E030E0E26D8B00F2AEB
:100F50000EC0E9FF0FC0EAFFEFCF0EF00E50156E86
:100F6000126A136A146A0BC00EF00CC00FF0020E66
:100F70000E26D8B00F2A0EC0E9FF0FC0EAFFEFCF50
:100F80000EF0196A0E50186E166A165012121312CD
:100F900018501412195015120BC00EF00CC00FF09F
:100FA0000E4A0F2A0EC0E9FF0FC0EAFFEFCF0EF086
:100FB0000E50116E0E6A11C00FF0166A0E5012120A
:100FC0000F5013121650141215120BC0E9FF0CC06B
:100FD000EAFFEFCF0BF00C6A0D6A0B501210036E94
:100FE0000C501310066E0D501410086E0E50151094
:100FF000096EE56E0850E56E0650E56E0350E56E2D
:101000000250E56E0150E56E0050E56E73EC4BF05A
:101010000A6E070EE1260A50030A03E1010E9DEF56
:101020000FF00A5003E00D0E9DEF0FF00050320F4D
:101030000B6E000E01200C6E000E02200D6E0B5088
:101040000B0F0E6E000E0C200F6E000E0D20106E9A
:101050000B500C0F116E000E0C20126E000E0D20A6
:1010600011C0E9FF12C0F3FFEAEC6EF0146E136AD0
:101070000EC0E9FF0FC0F3FF1050EAEC6EF00F6AEC
:1010800013120F501412135003E11450020A03E01C
:101090000D0E9DEF0FF00B50160F0E6E000E0C2074
:1010A0000F6E000E0D20106E0B50170F116E000EFC
:1010B0000C20126E000E0D2011C0E9FF12C0F3FFCC
:1010C000EAEC6EF0146E136A0EC0E9FF0FC0F3FF76
:1010D0001050EAEC6EF00F6A13120F50141213C086
:1010E0000EF014C00FF0106A116A0E500F1010109D
:1010F0001110D8A462D00B50240F126E000E0C20D9
:10110000136E000E0D20146E0B50270F156E000E7F
:101110000C20166E000E0D2015C0E9FF16C0F3FF5F
:10112000EAEC6EF01C6E196A1A6A1B6A0B50260FE5
:10113000156E000E0C20166E000E0D2015C0E9FF76
:1011400016C0F3FFEAEC6EF0206A1F6E1D6A1D5098
:1011500019121A121F501B1220501C120B50250F6F
:10116000156E000E0C20166E000E0D2015C0E9FF46
:1011700016C0F3FFEAEC6EF0186E156A18C016F090
:101180001D6A1550191216501A121D501B121C12EE
:1011900012C0E9FF13C0F3FF1450EAEC6EF0136ABB
:1011A000146A156A19100E6E13501A100F6E14502F
:1011B0001B10106E15501C10116E00501A0F126E7D
:1011C000000E0120136E000E0220146E0EC0E5FF0B
:1011D0000FC0F4FF10C0F6FF11C0F7FF12C0E9FF07
:1011E00013C0F3FFD9EC6EF00050030F156E000E24
:1011F0000120166E000E0220176E0B50100F186E95
:10120000000E0C20196E000E0D2018C0E9FF19C049
:10121000F3FFEAEC6EF0186E18C019F018C0E5FF85
:1012200015C0E9FF16C0F3FF17505FEC6FF01950BF
:10123000010A06E01950020A03E00D0E9DEF0FF0BF
:1012400019C015F0E56AE56AE56A1550E56E1150BA
:10125000E56E1050E56E0F50E56E0E50E56E26EC13
:1012600057F00E6EF3CF0FF0F4CF10F0E9CF11F07E
:10127000080EE1260050020F156E000E0120166EBA
:10128000000E0220176E0B500D0F186E000E0C2072
:101290001A6E000E0D2018C0E9FF1AC0F3FFEAEC29
:1012A0006EF0186E18C019F018C0E5FF15C0E9FF00
:1012B00016C0F3FF17505FEC6FF019500EE0186A7C
:1012C0001950FF0F1A6EFF0E18201B6E1A501916B8
:1012D0001B5018161950181003E00D0E9DEF0FF05B
:1012E0000050080F186E000E0120196E000E02202B
:1012F0001A6E0B50110F1B6E000E0C201C6E000E90
:101300000D201D6E0B50120F1E6E000E0C201F6E56
:10131000000E0D201EC0E9FF1FC0F3FFEAEC6EF0C7
:10132000216E206A1BC0E9FF1CC0F3FF1D50EAECD0
:101330006EF01C6A20121C50211220C0E5FF21C053
:10134000F4FF18C0E9FF19C0F3FF1A5052EC6FF018
:1013500020500F0B03E00D0E9DEF0FF00B50130FFD
:101360001B6E000E0C201C6E000E0D201D6E0B500F
:10137000140F1E6E000E0C201F6E000E0D201EC0DE
:10138000E9FF1FC0F3FFEAEC6EF0216E206A1BC07C
:10139000E9FF1CC0F3FF1D50EAEC6EF01C6A20123E
:1013A0001C50211220C01BF021C01CF01D6A1E6AB7
:1013B0001B501C101D101E10D8A462D00B50200F03
:1013C0001F6E000E0C20206E000E0D20216E0B50A3
:1013D000230F226E000E0C20236E000E0D2022C063
:1013E000E9FF23C0F3FFEAEC6EF0296E266A276A54
:1013F000286A0B50220F226E000E0C20236E000E66
:101400000D2022C0E9FF23C0F3FFEAEC6EF02D6A45
:101410002C6E2A6A2A50261227122C5028122D5080
:1014200029120B50210F226E000E0C20236E000E8D
:101430000D2022C0E9FF23C0F3FFEAEC6EF0256E19
:10144000226A25C023F02A6A22502612235027122E
:101450002A50281229121FC0E9FF20C0F3FF215093
:10146000EAEC6EF0206A216A226A26101B6E205078
:1014700027101C6E215028101D6E225029101E6E40
:101480000B500E0F1F6E000E0C20206E000E0D2054
:10149000216E0B500F0F226E000E0C20236E000EDB
:1014A0000D2022C0E9FF23C0F3FFEAEC6EF0256EA9
:1014B000246A1FC0E9FF20C0F3FF2150EAEC6EF060
:1014C0001F6E206A24501F12255020121F5020101A
:1014D00003E10D0E9DEF0FF0216A226A0E501F24CA
:1014E000236E0F502020246E10502120256E1150A5
:1014F0002220266E18C0E9FF19C0F3FF1A5075ECC0
:101500006EF0276EF3CF28F0F00E2716273A283A10
:101510002814281A2726296A2A6A275023262850A1
:101520002422295025222A50262226501E5C08E11A
:1015300025501D5C05E124501C5C02E123501B5C1E
:1015400003E20D0E9DEF0FF023501B5E24501C5A3A
:1015500025501D5A26501E5A15C0E9FF16C0F3FF2C
:101560001750EAEC6EF0E56AE56AE56AE56E1E5032
:10157000E56E1D50E56E1C50E56E1B50E56E16ECD9
:1015800065F0156EF3CF16F0F4CF17F0E9CF1BF02E
:10159000080EE1261550161017101B1003E10D0E52
:1015A0009DEF0FF0010E0A6E000E1B5C08E1000EAD
:1015B000175C05E10F0E165C02E1F60E155C02E306
:1015C000020E0A6E000E1B5C08E1000E175C05E1BE
:1015D000FF0E165C02E1F60E155C02E3030E0A6EC6
:1015E0000050160F1C6E000E01201D6E000E022012
:1015F0001E6E020E1526000E162217221B2215C083
:10160000E5FF16C0F4FF17C0F6FF1BC0F7FF1CC0B4
:10161000E9FF1DC0F3FF1E50D9EC6EF000501E0F05
:10162000156E000E0120166E000E022003C0E5FFAD
:1016300006C0F4FF08C0F6FF09C0F7FF15C0E9FFB8
:1016400016C0F3FFD9EC6EF00050220F156E000E9D
:101650000120166E000E0220176E03501F26065042
:10166000202208502122095022221FC0E5FF20C05D
:10167000F4FF21C0F6FF22C0F7FF15C0E9FF16C036
:10168000F3FF1750D9EC6EF000502A0F1B6E000EBE
:1016900001201F6E000E0220206E035023260650EC
:1016A0002422085025220950262223C0E5FF24C009
:1016B000F4FF25C0F6FF26C0F7FF1BC0E9FF1FC0DF
:1016C000F3FF2050D9EC6EF01B6A0A50030A01E1C7
:1016D0001B2A1B50D8B4A7D018C0E9FF19C0F3FFCC
:1016E0001A5075EC6EF0F3CF20F0201003E00D0ED1
:1016F0009DEF0FF00050260F1F6E000E0120206E90
:10170000000E0220216E0B502C0F226E000E0C20BA
:10171000236E000E0D20246E0B502F0F256E000E31
:101720000C20266E000E0D2025C0E9FF26C0F3FF19
:10173000EAEC6EF02C6E296A2A6A2B6A0B502E0F87
:10174000256E000E0C20266E000E0D2025C0E9FF30
:1017500026C0F3FFEAEC6EF02F6A2E6E2D6A2D5034
:1017600029122A122E502B122F502C120B502D0FF3
:10177000256E000E0C20266E000E0D2025C0E9FF00
:1017800026C0F3FFEAEC6EF0286E256A28C026F02A
:101790002D6A2550291226502A122D502B122C1258
:1017A00022C0E9FF23C0F3FF2450EAEC6EF0236A65
:1017B000291223502A122B122C1229C0E5FF2AC00D
:1017C000F4FF2BC0F6FF2CC0F7FF1FC0E9FF20C0BD
:1017D000F3FF2150D9EC6EF01CC0E9FF1DC0F3FFF0
:1017E0001E50BFEC6DF01F6EF3CF20F0F4CF21F050
:1017F000E9CF22F02250E56E2150E56E2050E56ED3
:101800001F50E56EE56AE56AE56A040EE56E26ECB2
:1018100057F01F6EF3CF20F0F4CF21F0E9CF22F084
:10182000080EE126A8D018C0E9FF19C0F3FF1A502E
:1018300075EC6EF0F3CF19F0191003E10D0E9DEF6A
:101840000FF00050260F186E000E0120196E000ECA
:1018500002201A6E15C0E9FF16C0F3FF1750BFEC47
:101860006DF0F3CF16F0F4CF17F0E9CF23F00E268A
:1018700016500F2217501022235011220EC0E5FFE0
:101880000FC0F4FF10C0F6FF11C0F7FF18C0E9FF4A
:1018900019C0F3FF1A50D9EC6EF00A50020A27E182
:1018A0001CC0E9FF1DC0F3FF1E50BFEC6DF00E6EB3
:1018B000F3CF0FF0F4CF10F0E9CF11F01150E56E37
:1018C0001050E56E0F50E56E0E50E56EE56AE56A64
:1018D000E56A020EE56E26EC57F00E6EF3CF0FF0C0
:1018E000F4CF10F0E9CF11F0080EE1263CD01CC077
:1018F000E9FF1DC0F3FF1E50BFEC6DF01C6EF3CF6F
:101900001DF0F4CF1EF0E9CF15F01550E56E1E5016
:10191000E56E1D50E56E1C50E56EE56AE56AE56A08
:10192000030EE56E26EC57F0166EF3CF17F0F4CFEA
:1019300018F0E9CF19F0080EE126D89019321832C4
:1019400017321632010E1C161D6A1E6A156A1C50CB
:1019500016240E6E1D5017200F6E1E501820106E8C
:1019600015501920116E0EC01FF00FC020F010C0CE
:1019700021F011C022F012C0E9FF13C0F3FF145090
:10198000BFEC6DF0126EF3CF13F0F4CF14F0E9CF8B
:101990000EF0FF0E1F26010E2022000E2122222211
:1019A00020501F6E2150206E2250216ED890226A46
:1019B000213220321F3222500E5C08E12150145C8B
:1019C00005E12050135C02E11F50125C03E20D0E92
:1019D0009DEF0FF000500E0F0E6E000E01200F6EE7
:1019E000000E0220106EE568F468F668F7680EC015
:1019F000E9FF0FC0F3FFD9EC6EF000500A0F116E33
:101A0000000E0120126E000E0220136EE56AF46AC9
:101A1000F66AF76A11C0E9FF12C0F3FFD9EC6EF065
:101A20001B50D8B45CEF0FF00050050F146E000E81
:101A30000120156E000E0220E56A14C0E9FF15C0F2
:101A4000F3FF5FEC6FF00050120F146E000E0120D8
:101A5000156E000E0220166E0B50300F176E000E22
:101A60000C20186E000E0D20196E0B50310F1A6EDF
:101A7000000E0C201B6E000E0D201AC0E9FF1BC0CB
:101A8000F3FFEAEC6EF01D6E1C6A17C0E9FF18C088
:101A9000F3FF1950EAEC6EF0186A1C1218501D1270
:101AA000176A1C5003261D50062217500822185092
:101AB000092203C0E5FF06C0F4FF08C0F6FF09C015
:101AC000F7FF14C0E9FF15C0F3FF1650D9EC6EF014
:101AD00004C0E9FF05C0F3FF0750EAEC6EF0046EA6
:101AE0000050320F056E000E0120076E000E02201E
:101AF000146E010EE56E0950E56E0850E56E065055
:101B0000E56E0350E56E1450E56E0750E56E055026
:101B1000E56E0450E56EE3EC53F0036E090EE1262A
:101B20000350D8A4C9D10B50FE0F036E010E0C2038
:101B3000046E000E0D20056EFF0E0B26010E0C220A
:101B4000000E0D220BC0E9FF0CC0F3FF0D50EAECB4
:101B50006EF0086E076A03C0E9FF04C0F3FF05508A
:101B6000EAEC6EF0046A0712045008120750550A96
:101B700003E10850AA0A01E09FD10050320F036E22
:101B8000000E0120046E000E0220056E0350030FAC
:101B9000066E000E0420076E000E052006C0E9FF49
:101BA00007C0F3FFEAEC6EF0146E0B6A0C6A0D6A64
:101BB0000350020F066E000E0420076E000E052073
:101BC00006C0E9FF07C0F3FFEAEC6EF0186A176E73
:101BD000156A15500B120C1217500D1218501412D2
:101BE0000350010F066E000E0420076E000E052044
:101BF00006C0E9FF07C0F3FFEAEC6EF0096E066A63
:101C000009C007F0156A06500B1207500C12155048
:101C10000D12141203C0E9FF04C0F3FF0550EAECF3
:101C20006EF0076A0B1207500C120D1214120B50B3
:101C3000520A09E10C50520A06E10D50610A03E113
:101C40001450410A01E038D10350E40F066E010E32
:101C50000420076E000E0520086E0350E70F096E82
:101C6000010E04200B6E000E052009C0E9FF0BC019
:101C7000F3FFEAEC6EF0176E146A156A166A0350E9
:101C8000E60F096E010E04200B6E000E052009C040
:101C9000E9FF0BC0F3FFEAEC6EF01B6A1A6E186ADC
:101CA0001850141215121A5016121B501712035006
:101CB000E50F096E010E04200B6E000E052009C011
:101CC000E9FF0BC0F3FFEAEC6EF00D6E096A0DC080
:101CD0000BF0186A095014120B50151218501612F6
:101CE000171206C0E9FF07C0F3FF0850EAEC6EF0D8
:101CF000076A141207501512161217121450720A9E
:101D000009E11550720A06E11650410A03E1175025
:101D1000610A01E0D1D00350EC0F066E010E0420E1
:101D2000076E000E0520086E0350EF0F096E010EBE
:101D300004200B6E000E052009C0E9FF0BC0F3FF65
:101D4000EAEC6EF0176E146A156A166A0350EE0F0D
:101D5000096E010E04200B6E000E052009C0E9FF7C
:101D60000BC0F3FFEAEC6EF01B6A1A6E186A18508B
:101D7000141215121A5016121B5017120350ED0FA1
:101D8000096E010E04200B6E000E052009C0E9FF4C
:101D90000BC0F3FFEAEC6EF00D6E096A0DC00BF09C
:101DA000186A095014120B501512185016121712F7
:101DB00006C0E9FF07C0F3FF0850EAEC6EF0076ABF
:101DC0001412075015121612171214C0E5FF15C091
:101DD000F4FF16C0F6FF17C0F7FF11C0E9FF12C0ED
:101DE000F3FF1350D9EC6EF00350E80F066E010EAE
:101DF0000420076E000E0520086E0350EB0F096EDD
:101E0000010E04200B6E000E052009C0E9FF0BC077
:101E1000F3FFEAEC6EF0146E116A126A136A035053
:101E2000EA0F096E010E04200B6E000E052009C09A
:101E3000E9FF0BC0F3FFEAEC6EF0186A176E156A43
:101E40001550111212121750131218501412E90ED5
:101E50000326010E0422000E052203C0E9FF04C080
:101E6000F3FF0550EAEC6EF0096E036A09C004F056
:101E70000B6A03501112045012120B501312141259
:101E800006C0E9FF07C0F3FF0850EAEC6EF0036AF2
:101E90001112035012121312141211C0E5FF12C0D6
:101EA000F4FF13C0F6FF14C0F7FF0EC0E9FF0FC028
:101EB000F3FF1050D9EC6EF00AC0E5FF00C0E9FF57
:101EC00001C0F3FF02505FEC6FF00050060F036E8D
:101ED000000E0120046E000E0220056E0801E73F8F
:101EE00001D0E82BE7C8E5FFE8C8F4FF03C0E9FF2D
:101EF00004C0F3FF055052EC6FF000502E0F036E3C
:101F0000000E0120046E000E0220E56AF46AF66AF3
:101F1000F76A03C0E9FF04C0F3FFD9EC6EF0040ECA
:101F20000026000E01220222E56A00C0E9FF01C07E
:101F3000F3FF02505FEC6FF0E86AE4CF2FF0E4CFDC
:101F40002EF0E4CF2DF0E4CF2CF0E4CF2BF0E4CF53
:101F50002AF0E4CF29F0E4CF28F0E4CF27F0E4CF53
:101F600026F0E4CF25F0E4CF24F0E4CF23F0E4CF53
:101F700022F0E4CF21F0E4CF20F0E4CF1FF0E4CF53
:101F80001EF0E4CF1DF0E4CF1CF0E4CF1BF0E4CF53
:101F90001AF0E4CF19F0E4CF18F0E4CF17F0E4CF53
:101FA00016F0E4CF15F0E4CF14F0E4CF13F0E4CF53
:101FB00012F0E4CF11F0E4CF10F0E4CF0FF0E4CF53
:101FC0000EF0E4CF0DF0E4CF0CF0E4CF0BF0E4CF53
:101FD0000AF0E4CF09F0E4CF08F0E4CF07F0E4CF53
:101FE00006F0E4CF05F0E4CF04F0E4CF03F0E4CF53
:101FF00002F0E4CF01F0E4CF00F0E4CFD9FF12000B
:10200000D9CFE5FFE1CFD9FF00C0E5FF01C0E5FF73
:1020100002C0E5FF03C0E5FF04C0E5FF05C0E5FF22
:1020200006C0E5FF07C0E5FF08C0E5FF09C0E5FF02
:102030000AC0E5FF0BC0E5FF0CC0E5FF0DC0E5FFE2
:102040000EC0E5FF0FC0E5FF10C0E5FF11C0E5FFC2
:1020500012C0E5FF13C0E5FF14C0E5FF15C0E5FFA2
:1020600016C0E5FF17C0E5FF18C0E5FF19C0E5FF82
:102070001AC0E5FF1BC0E5FF1CC0E5FF1DC0E5FF62
:102080001EC0E5FF1FC0E5FF20C0E5FF21C0E5FF42
:1020900022C0E5FF23C0E5FF24C0E5FF25C0E5FF22
:1020A00026C0E5FF27C0E5FF28C0E5FF29C0E5FF02
:1020B0002AC0E5FF020EDBCF00F0030EDBCF01F0FC
:1020C000040EDBCF02F0050EDBCF03F0060EDBCFF4
:1020D00004F0070EDBCF05F0080EDBCF06F0090E8B
:1020E000DBCF07F00A0EDBCF08F00B0EDBCF09F0D9
:1020F0000C0EDBCF0AF0E56AF46A08C0E9FF09C0FC
:10210000F3FF0A5052EC6FF002500D6E01500C6E4E
:1021100000500B6E0D50E56E0C50E56E0B50E56EE9
:10212000A2EC65F00B6E030EE1260B5003E00B50A2
:10213000D0EF15F00050050F0B6E000E01200C6E55
:10214000000E02200D6E0BC0E9FF0CC0F3FFEAEC9D
:102150006EF00E6E0EAE03D0020ED0EF15F00EB282
:1021600003D0070ED0EF15F000500B0F0E6E000ECF
:1021700001200F6E000E0220106E0EC0E9FF0FC08E
:10218000F3FFBFEC6DF0116EF3CF12F0F4CF13F04C
:10219000E9CF14F006C015F007C016F0176A186AE8
:1021A0001526125016221350172214501822185CAC
:1021B00008E11350175C05E11250165C02E1115062
:1021C000155C02E2066A076A0050130F116E000EDA
:1021D0000120126E000E0220136E0050170F146EB5
:1021E000000E0120156E000E0220166E065007101C
:1021F000D8B464EF15F00050070F176E000E0120E1
:10220000186E000E0220196E17C0E9FF18C0F3FF08
:102210001950BFEC6DF01A6EF3CF1BF0F4CF1CF029
:10222000E9CF1DF01A50D8A45EEF14F01BB05EEF9A
:1022300014F0D8901D30216A1C301B301E6E00C077
:10224000E9FF01C0F3FF0250FAEC6DF0226EF3CF0C
:1022500023F0F4CF24F0020F256E000E2320266E0B
:10226000000E242025C0E9FF26C0F3FFEAEC6EF043
:10227000256E250625501E161E50D8A4CCD01A5007
:102280001B101C101D10D8A448D000500F0F1A6E40
:10229000000E01201B6E000E02201C6E1AC0E9FF0A
:1022A0001BC0F3FFBFEC6DF01D6EF3CF1FF0F4CF3A
:1022B00020F0E9CF21F01F1020102110D8A454D015
:1022C000E56AE56AE56AE56A2450E56E2350E56E45
:1022D0002250E56ED6EC40F0256EF3CF26F0F4CF19
:1022E00027F0E9CF28F0070EE12625C01DF026C013
:1022F0001FF027C020F028C021F025C0E5FF26C030
:10230000F4FF27C0F6FF28C0F7FF1AC0E9FF1BC083
:10231000F3FF1C50D9EC6EF027D011C0E9FF12C0BA
:10232000F3FF1350BFEC6DF01A6EF3CF1BF0F4CF38
:102330001CF0E9CF25F02550E56E1C50E56E1B50D2
:10234000E56E1A50E56E2450E56E2350E56E22507E
:10235000E56ED6EC40F01D6EF3CF1FF0F4CF20F009
:10236000E9CF21F0070EE1261D501F10201021108B
:10237000D8B464EF15F01D50010A06E11F5004E1C6
:10238000205002E1215001E015D00BC0E9FF0CC044
:10239000F3FF0D50EAEC6EF01A6E1A8E1AC0E5FFCC
:1023A0000BC0E9FF0CC0F3FF0D505FEC6FF0020EA5
:1023B000D0EF15F01D50FF0A09E11F50FF0A06E19A
:1023C0002050FF0A03E12150FF0A01E015D00BC0A5
:1023D000E9FF0CC0F3FF0D50EAEC6EF01A6E1A8E96
:1023E0001AC0E5FF0BC0E9FF0CC0F3FF0D505FEC16
:1023F0006FF0010ED0EF15F01DC0E5FF1FC0F4FF18
:1024000020C0F6FF21C0F7FF11C0E9FF12C0F3FFA3
:102410001350D9EC6EF000C0E9FF01C0F3FF025089
:10242000FAEC6DF01A6EF3CF1BF0F4CF1CF02E0F08
:102430001D6E000E1B201F6E000E1C201DC0E9FF2C
:102440001FC0F3FFBFEC6DF01D6EF3CF1FF0F4CF94
:1024500020F0E9CF21F014C0E9FF15C0F3FF1650BA
:10246000BFEC6DF0226EF3CF23F0F4CF24F0E9CF70
:1024700025F01D50221809E11F50231806E12050B5
:10248000241803E12150251801E022D01C50E56EEC
:102490001B50E56E1A50E56EF8EC4CF01A6E030E08
:1024A000E1261A5015E00BC0E9FF0CC0F3FF0D50F8
:1024B000EAEC6EF01A6E1A8E1AC0E5FF0BC0E9FF47
:1024C0000CC0F3FF0D505FEC6FF0010ED0EF15F074
:1024D00000C0E9FF01C0F3FF0250FAEC6DF01A6E84
:1024E000F3CF1BF0F4CF1CF011C0E9FF12C0F3FFD3
:1024F0001350BFEC6DF01D6EF3CF1FF0F4CF20F042
:10250000E9CF21F02150E56E2050E56E1F50E56EB9
:102510001D50E56E1C50E56E1B50E56E1A50E56EC1
:10252000EEEC5FF01A6EF3CF1BF0F4CF1CF0E9CFA6
:102530001DF0070EE1261A501B101C101D1015E18E
:102540000BC0E9FF0CC0F3FF0D50EAEC6EF01F6EFC
:102550001F8E1FC0E5FF0BC0E9FF0CC0F3FF0D503D
:102560005FEC6FF0020ED0EF15F01EC01FF0206A76
:10257000216A226A1F501A2620501B2221501C2239
:1025800022501D2207407F0B1F6E2010D8B411D19E
:102590008188216A1E50226E236A1F5022262050F5
:1025A000232200C0E9FF01C0F3FF0250FAEC6DF0F6
:1025B000246EF3CF25F0F4CF26F0020E2426000E71
:1025C0002522262224C0E9FF25C0F3FF2650EAEC8D
:1025D0006EF0246E24C025F0266A2350265C02E1AA
:1025E0002250255C07E2226A1E50245C1F6E215097
:1025F0002258206E00C0E9FF01C0F3FF0250FAEC40
:102600006DF01E6EF3CF21F0F4CF22F01E2A02E30C
:10261000214A222A1EC0E9FF21C0F3FF2250EAEC22
:102620006EF01E6E1F50E56E1D50E56E1C50E56E7F
:102630001B50E56E1A50E56E0550E56E0450E56ED0
:102640000350E56E1E50E56E30EC58F01E6E090E1C
:10265000E1261E5015E00BC0E9FF0CC0F3FF0D5042
:10266000EAEC6EF01E6E1E8E1EC0E5FF0BC0E9FF89
:102670000CC0F3FF0D505FEC6FF0010ED0EF15F0C2
:1026800000C0E9FF01C0F3FF0250FAEC6DF01E6ECE
:10269000F3CF21F0F4CF22F02E0F236E000E212075
:1026A000246E000E222023C0E9FF24C0F3FFBFECFC
:1026B0006DF0236EF3CF24F0F4CF25F0E9CF26F0B0
:1026C0001A50235E1B50245A1C50255A1D50265A5E
:1026D0001FC027F020C028F0296A2A6A2A50265CE9
:1026E00008E12950255C05E12850245C02E12750CF
:1026F000235CD8B04ED0320E1E26000E212222229C
:102700002650E56E2550E56E2450E56E2350E56EAB
:10271000E56AE56A020EE56E000EE56A26EC57F002
:10272000236EF3CF24F0F4CF25F0080EE1260350FA
:1027300023260450242205502522020EE56EE56A68
:102740002550E56E2450E56E2350E56E2250E56E6F
:102750002150E56E1E50E56EB5EC68F0080EE126DE
:1027600000C0E9FF01C0F3FF0250FAEC6DF01E6EED
:10277000F3CF21F0F4CF22F0040E1E26000E21220A
:102780002222E56A1EC0E9FF21C0F3FF22505FEC60
:102790006FF02050E56E1F50E56E020EE56E000EE4
:1027A000E56A2BEC6BF01E6EF3CF1FF0040EE126F2
:1027B0003BD117C0E9FF18C0F3FF1950BFEC6DF013
:1027C000206EF3CF21F0F4CF22F0E9CF23F00EC03A
:1027D000E9FF0FC0F3FF1050BFEC6DF0246EF3CF94
:1027E00025F0F4CF26F0E9CF27F02750235C08E14D
:1027F0002650225C05E12550215C02E12450205C3A
:10280000D8A04DD000C0E9FF01C0F3FF0250FAECA0
:102810006DF0206EF3CF21F0F4CF22F02250E56E60
:102820002150E56E2050E56EF8EC4CF0206E030E62
:10283000E126205014E00BC0E9FF0CC0F3FF0D505F
:10284000EAEC6EF0206E208E20C0E5FF0BC0E9FFA1
:102850000CC0F3FF0D505FEC6FF0010EA1D100C072
:10286000E9FF01C0F3FF0250FAEC6DF0206EF3CFE8
:1028700021F0F4CF22F02E0E2026000E212222225B
:102880001AC0E5FF1BC0F4FF1CC0F6FF1DC0F7FF18
:1028900020C0E9FF21C0F3FF2250D9EC6EF01AC02E
:1028A000E5FF1BC0F4FF1CC0F6FF1DC0F7FF14C0FE
:1028B000E9FF15C0F3FF1650D9EC6EF017C0E9FF21
:1028C00018C0F3FF1950BFEC6DF01A6EF3CF1BF078
:1028D000010E1B161A5000081E6E020E1B541F6EAE
:1028E000075C02E11E50065C04E206C01EF007C051
:1028F0001FF000C0E9FF01C0F3FF0250FAEC6DF0D9
:102900001A6EF3CF1BF0F4CF1CF014C0E9FF15C012
:10291000F3FF1650BFEC6DF01D6EF3CF20F0F4CF37
:1029200021F0E9CF22F02250E56E2150E56E2050D3
:10293000E56E1D50E56E1C50E56E1B50E56E1A509D
:10294000E56E64EC5EF01A6E070EE1261A5014E094
:102950000BC0E9FF0CC0F3FF0D50EAEC6EF01A6EED
:102960001A8E1AC0E5FF0BC0E9FF0CC0F3FF0D5033
:102970005FEC6FF0010E14D100C0E9FF01C0F3FF5E
:102980000250FAEC6DF01A6EF3CF1BF0F4CF1CF08E
:10299000320E1A26000E1B221C2217C0E9FF18C097
:1029A000F3FF1950BFEC6DF01D6EF3CF20F0010E58
:1029B0002016216A1D501A2620501B2221501C224D
:1029C0000550216E0450206E03501D6E1F50E56EA1
:1029D0001E50E56E2150E56E2050E56E1D50E56EEF
:1029E0001C50E56E1B50E56E1A50E56EB5EC68F0B4
:1029F000080EE12600C0E9FF01C0F3FF0250FAEC27
:102A00006DF01A6EF3CF1BF0F4CF1CF0040E1A26F3
:102A1000000E1B221C22010EE56E1AC0E9FF1BC02E
:102A2000F3FF1C505FEC6FF01E5003261F50042272
:102A3000E86A052217C0E9FF18C0F3FF1950BFEC80
:102A40006DF01A6EF3CF1BF0F4CF1CF0E9CF1DF040
:102A50001EC020F01FC021F0226A236A20501A26CF
:102A600021501B2222501C2223501D221AC0E5FF98
:102A70001BC0F4FF1CC0F6FF1DC0F7FF17C0E9FF25
:102A800018C0F3FF1950D9EC6EF008C0E9FF09C077
:102A9000F3FF0A5075EC6EF0176EF3CF18F01E506E
:102AA00017261F50182217C0E5FF18C0F4FF08C0F2
:102AB000E9FF09C0F3FF0A5052EC6FF01E50065EAA
:102AC0001F50075AF6EF10F00050070F036E000E6C
:102AD0000120046E000E022003C0E9FF04C0F3FFD2
:102AE000BFEC6DF0036EF3CF04F0F4CF05F0E9CF47
:102AF00006F00EC0E9FF0FC0F3FF1050BFEC6DF001
:102B0000076EF3CF08F0F4CF09F0E9CF0AF00650D2
:102B10000A5C08E10550095C05E10450085C02E12B
:102B20000350075C0FE203C0E5FF04C0F4FF05C0DB
:102B3000F6FF06C0F7FF0EC0E9FF0FC0F3FF10500D
:102B4000D9EC6EF00BC0E9FF0CC0F3FF0D50EAECBE
:102B50006EF0036E038A03C0E5FF0BC0E9FF0CC0F3
:102B6000F3FF0D505FEC6FF000C0E9FF01C0F3FF11
:102B70000250FAEC6DF0006EF3CF01F0F4CF02F0EA
:102B8000040E0026000E0122022200C0E9FF01C04F
:102B9000F3FF0250EAEC6EF0010A01E18188E86A75
:102BA000E4CF2AF0E4CF29F0E4CF28F0E4CF27F0F7
:102BB000E4CF26F0E4CF25F0E4CF24F0E4CF23F0F7
:102BC000E4CF22F0E4CF21F0E4CF20F0E4CF1FF0F7
:102BD000E4CF1EF0E4CF1DF0E4CF1CF0E4CF1BF0F7
:102BE000E4CF1AF0E4CF19F0E4CF18F0E4CF17F0F7
:102BF000E4CF16F0E4CF15F0E4CF14F0E4CF13F0F7
:102C0000E4CF12F0E4CF11F0E4CF10F0E4CF0FF0F6
:102C1000E4CF0EF0E4CF0DF0E4CF0CF0E4CF0BF0F6
:102C2000E4CF0AF0E4CF09F0E4CF08F0E4CF07F0F6
:102C3000E4CF06F0E4CF05F0E4CF04F0E4CF03F0F6
:102C4000E4CF02F0E4CF01F0E4CF00F0E4CFD9FF0D
:102C50001200D9CFE5FFE1CFD9FF00C0E5FF01C0E9
:102C6000E5FF02C0E5FF03C0E5FF04C0E5FF05C0C6
:102C7000E5FF06C0E5FF07C0E5FF08C0E5FF09C0A6
:102C8000E5FF0AC0E5FF0BC0E5FF0CC0E5FF0DC086
:102C9000E5FF0EC0E5FF0FC0E5FF10C0E5FF11C066
:102CA000E5FF12C0E5FF13C0E5FF14C0E5FF15C046
:102CB000E5FF16C0E5FF17C0E5FF18C0E5FF19C026
:102CC000E5FF020EDBCF00F0030EDBCF01F0040EB8
:102CD000DBCF02F0050EDBCF03F0060EDBCF04F0F6
:102CE000070EDBCF05F0080EDBCF06F0090EDBCFB9
:102CF00007F00A0EDBCF08F0096A020E0A6E03C065
:102D0000E9FF04C0F3FF0550EAEC6EF00B6E0B50C8
:102D100002E1EFEF1AF00C6A0B50250A02E0D6EF41
:102D20001AF00B6A0D6A032A02E3044A052A03C05B
:102D3000E9FF04C0F3FF0550EAEC6EF00E6E0E5092
:102D4000D8B4EFEF1AF00E50250A02E1D6EF1AF0D0
:102D50000E502D0A06E1032A02E3044A052A010E59
:102D60000B6E03C00EF004C00FF005C010F00EC0D3
:102D7000E9FF0FC0F3FF1050EAEC6EF0300A06E1F5
:102D80000E2A02E30F4A102A0B82F1D70EC0E9FF88
:102D90000FC0F3FF1050EAEC6EF0116E300E115CB4
:102DA00013E33A0E115C10E20D500A0DF3CF0DF053
:102DB000D00E11260D50126E115012240D6E0E2AD7
:102DC00002E30F4A102AE2D70EC003F00FC004F04E
:102DD00010C005F00EC0E9FF0FC0F3FF1050EAEC81
:102DE0006EF02E0A34E10E50010F036E000E0F201C
:102DF000046E000E1020056E0A6A03C00EF004C0B7
:102E00000FF005C010F00EC0E9FF0FC0F3FF105027
:102E1000EAEC6EF0116E300E115C13E33A0E115CA9
:102E200010E20A500A0DF3CF0AF0D00E11260A5014
:102E3000126E115012240A6E0E2A02E30F4A102A53
:102E4000E2D70EC003F00FC004F010C005F003C0BD
:102E5000E9FF04C0F3FF0550EAEC6EF00E6E660A5F
:102E600001E040D00650040F0F6E000E0720106ED8
:102E7000000E0820116E0FC006F010C007F011C040
:102E800008F0FC0E0F26FF0E102211220FC0E9FFE2
:102E900010C0F3FF1150BFEC6DF00F6EF3CF10F0C8
:102EA000F4CF11F0E9CF12F00A50E56EE56A0B504D
:102EB000E56E0D50E56E1250E56E1150E56E105046
:102EC000E56E0F50E56E0250E56E0150E56E005064
:102ED000E56ED7EC35F00F6E0B0EE1260F5009268C
:102EE000E9EF1AF00E50730A01E045D00650030FC7
:102EF0000F6E000E0720106E000E0820116E0FC01E
:102F000006F010C007F011C008F0FD0E0F26FF0EEE
:102F1000102211220FC0E9FF10C0F3FF1150FAEC8C
:102F20006DF00F6EF3CF10F0F4CF11F01010111000
:102F300006E1000E116EC10E106E7E0E0F6E0B506C
:102F4000E56E0D50E56E1150E56E1050E56E0F50B8
:102F5000E56E0250E56E0150E56E0050E56EFDEC49
:102F60005BF00F6E080EE1260950106E0F50102412
:102F7000096EE9EF1AF00E506C0A06E1032A02E32B
:102F8000044A052A010E0C6E03C0E9FF04C0F3FFDA
:102F90000550EAEC6EF00E6E750A01E06CD00C5034
:102FA00023E00650040F0F6E000E0720106E000E77
:102FB0000820116E0FC006F010C007F011C008F015
:102FC000FC0E0F26FF0E102211220FC0E9FF10C0C9
:102FD000F3FF1150BFEC6DF00F6EF3CF10F0F4CF94
:102FE00011F0E9CF12F024D00650020F136E000E3C
:102FF0000720146E000E0820156E13C006F014C0D2
:1030000007F015C008F0FE0E1326FF0E142215223D
:1030100013C0E9FF14C0F3FF155075EC6EF0136E8A
:10302000F3CF14F013C00FF014C010F0116A126A3D
:10303000610EE56EE56A0B50E56E0D50E56EE56AD2
:103040000A0EE56E0C50E56E1250E56E1150E56EFD
:103050001050E56E0F50E56E0250E56E0150E56EC2
:103060000050E56EBFEC49F0136E0E0EE1261350D2
:103070000926E9EF1AF00E50640A04E00E50690ABE
:1030800001E075D00C5023E00650040F136E000EC3
:103090000720146E000E0820156E13C006F014C031
:1030A00007F015C008F0FC0E1326FF0E142215229F
:1030B00013C0E9FF14C0F3FF1550BFEC6DF0136EA1
:1030C000F3CF14F0F4CF15F0E9CF16F024D006506A
:1030D000020F176E000E0720186E000E0820196EE2
:1030E00017C006F018C007F019C008F0FE0E17262A
:1030F000FF0E1822192217C0E9FF18C0F3FF19505C
:1031000075EC6EF0176EF3CF18F017C013F018C0FF
:1031100014F0156A166A13C00FF014C010F015C031
:1031200011F016C012F0610EE56EE56A0B50E56E07
:103130000D50E56E010EE56E0A0EE56E0C50E56E63
:103140001250E56E1150E56E1050E56E0F50E56EB1
:103150000250E56E0150E56E0050E56EBFEC49F09F
:10316000136E0E0EE12613500926E9EF1AF00E50E9
:10317000780A04E00E50700A01E073D00C5023E08E
:103180000650040F136E000E0720146E000E082068
:10319000156E13C006F014C007F015C008F0FC0E41
:1031A0001326FF0E1422152213C0E9FF14C0F3FFEB
:1031B0001550BFEC6DF0136EF3CF14F0F4CF15F093
:1031C000E9CF16F024D00650020F176E000E07202C
:1031D000186E000E0820196E17C006F018C007F010
:1031E00019C008F0FE0E1726FF0E1822192217C06C
:1031F000E9FF18C0F3FF195075EC6EF0176EF3CFAE
:1032000018F017C013F018C014F0156A166A13C02E
:103210000FF014C010F015C011F016C012F0610EBE
:10322000E56EE56A0B50E56E0D50E56EE56A100E31
:10323000E56E0C50E56E1250E56E1150E56E1050C3
:10324000E56E0F50E56E0250E56E0150E56E0050E0
:10325000E56EBFEC49F0136E0E0EE1261350092601
:10326000B8D10E50580A04E00E50500A01E073D055
:103270000C5023E00650040F136E000E0720146E4E
:10328000000E0820156E13C006F014C007F015C01C
:1032900008F0FC0E1326FF0E1422152213C0E9FFBE
:1032A00014C0F3FF1550BFEC6DF0136EF3CF14F0A4
:1032B000F4CF15F0E9CF16F024D00650020F176EA8
:1032C000000E0720186E000E0820196E17C006F0B9
:1032D00018C007F019C008F0FE0E1726FF0E1822BE
:1032E000192217C0E9FF18C0F3FF195075EC6EF0F2
:1032F000176EF3CF18F017C013F018C014F0156A4A
:10330000166A13C00FF014C010F015C011F016C0EB
:1033100012F0410EE56EE56A0B50E56E0D50E56E5C
:10332000E56A100EE56E0C50E56E1250E56E115018
:10333000E56E1050E56E0F50E56E0250E56E0150DF
:10334000E56E0050E56EBFEC49F0136E0E0EE126FF
:10335000135009263ED10E50620A01E073D00C5082
:1033600023E00650040F136E000E0720146E000EAB
:103370000820156E13C006F014C007F015C008F041
:10338000FC0E1326FF0E1422152213C0E9FF14C0F1
:10339000F3FF1550BFEC6DF0136EF3CF14F0F4CFC4
:1033A00015F0E9CF16F024D00650020F176E000E6C
:1033B0000720186E000E0820196E17C006F018C0FE
:1033C00007F019C008F0FE0E1726FF0E182219226A
:1033D00017C0E9FF18C0F3FF195075EC6EF0176EB7
:1033E000F3CF18F017C013F018C014F0156A166A5E
:1033F00013C00FF014C010F015C011F016C012F079
:10340000610EE56EE56A0B50E56E0D50E56EE56AFE
:10341000020EE56E0C50E56E1250E56E1150E56E31
:103420001050E56E0F50E56E0250E56E0150E56EEE
:103430000050E56EBFEC49F0136E0E0EE1261350FE
:103440000926C7D00E506F0A01E073D00C5023E05C
:103450000650040F136E000E0720146E000E082095
:10346000156E13C006F014C007F015C008F0FC0E6E
:103470001326FF0E1422152213C0E9FF14C0F3FF18
:103480001550BFEC6DF0136EF3CF14F0F4CF15F0C0
:10349000E9CF16F024D00650020F176E000E072059
:1034A000186E000E0820196E17C006F018C007F03D
:1034B00019C008F0FE0E1726FF0E1822192217C099
:1034C000E9FF18C0F3FF195075EC6EF0176EF3CFDB
:1034D00018F017C013F018C014F0156A166A13C05C
:1034E0000FF014C010F015C011F016C012F0610EEC
:1034F000E56EE56A0B50E56E0D50E56EE56A080E67
:10350000E56E0C50E56E1250E56E1150E56E1050F0
:10351000E56E0F50E56E0250E56E0150E56E00500D
:10352000E56EBFEC49F00C6E0E0EE1260C5009263C
:1035300050D00E50630A01E04CD00650020F0C6EC2
:10354000000E07200E6E000E08200F6E0CC006F055
:103550000EC007F00FC008F0FE0E0C26FF0E0E2264
:103560000F220CC0E9FF0EC0F3FF0F5075EC6EF098
:103570000801EB6FEC6B0B50E56E0D50E56E800EA5
:10358000E56E080EE56EEB0EE56E0250E56E01503D
:10359000E56E0050E56EFDEC5BF00B6E080EE1266B
:1035A00009500C6E0B500C24096E13D003C0E9FFB8
:1035B00004C0F3FF0550EAEC6EF0E56E0250E56ED4
:1035C0000150E56E0050E56ECAEC67F0040EE1268E
:1035D000092A032A02E3044A052A7FEF16F0005065
:1035E0000110021014E000C0E9FF01C0F3FF025017
:1035F000FAEC6DF0006EF3CF01F0F4CF02F0E56A63
:1036000000C0E9FF01C0F3FF02505FEC6FF009500A
:10361000E4CF19F0E4CF18F0E4CF17F0E4CF16F0C0
:10362000E4CF15F0E4CF14F0E4CF13F0E4CF12F0C0
:10363000E4CF11F0E4CF10F0E4CF0FF0E4CF0EF0C0
:10364000E4CF0DF0E4CF0CF0E4CF0BF0E4CF0AF0C0
:10365000E4CF09F0E4CF08F0E4CF07F0E4CF06F0C0
:10366000E4CF05F0E4CF04F0E4CF03F0E4CF02F0C0
:10367000E4CF01F0E4CF00F0E4CFD9FF1200D9CFBE
:10368000E5FFE1CFD9FF00C0E5FF01C0E5FF02C0C3
:10369000E5FF03C0E5FF04C0E5FF05C0E5FF06C088
:1036A000E5FF07C0E5FF08C0E5FF09C0E5FF0AC068
:1036B000E5FF0BC0E5FF0CC0E5FF0DC0E5FF0EC048
:1036C000E5FF0FC0E5FF10C0E5FF11C0E5FF12C028
:1036D000E5FF13C0E5FF14C0E5FF15C0E5FF16C008
:1036E000E5FF17C0E5FF18C0E5FF19C0E5FF1AC0E8
:1036F000E5FF1BC0E5FF1CC0E5FF1DC0E5FF1EC0C8
:10370000E5FF1FC0E5FF20C0E5FF21C0E5FF22C0A7
:10371000E5FF23C0E5FF24C0E5FF25C0E5FF26C087
:10372000E5FF27C0E5FF020EDBCF00F0030EDBCF85
:1037300001F0040EDBCF02F0050EDBCF03F0060E26
:10374000DBCF04F0070EDBCF05F0080EDBCF06F071
:103750000250096E0150086E0050076E0950E56E68
:103760000850E56E0750E56EA2EC65F0076E030E9B
:10377000E126075003E00750B3EF1FF00050050F9C
:10378000086E000E0120096E000E02200A6E08C0AD
:10379000E9FF09C0F3FFEAEC6EF00B6E0BAE03D04D
:1037A000020EB3EF1FF000500B0F0C6E000E012045
:1037B0000D6E000E02200E6E0CC0E9FF0DC0F3FF6F
:1037C000BFEC6DF00F6EF3CF10F0F4CF11F0E9CF36
:1037D00012F00650125C08E10550115C05E104503E
:1037E000105C02E103500F5C0AE20BB208D00FC07C
:1037F00003F010C004F011C005F012C006F0005034
:10380000070F0B6E000E01200F6E000E0220106ECF
:103810000BC0E9FF0FC0F3FFBFEC6DF0116EF3CFEB
:1038200012F0F4CF13F0E9CF14F0156A166A176A94
:10383000186AE56AF46AF66AF76A0BC0E9FF0FC016
:10384000F3FF1050D9EC6EF0035004100510061071
:10385000D8B42DEF1FF000C0E9FF01C0F3FF025004
:10386000FAEC6DF0196EF3CF1AF0F4CF1BF0020FE3
:103870001C6E000E1A201D6E000E1B201CC0E9FFDE
:103880001DC0F3FFEAEC6EF0E56AE56AE56AE56EF5
:10389000E56AE56A020EE56E000EE56A26EC57F071
:1038A0001C6EF3CF1DF0F4CF1EF0E9CF1FF0080E11
:1038B000E1261150121013101410D8B499D00350EF
:1038C000FF0F206EFF0E0420216EFF0E0520226EDA
:1038D000FF0E0620236E1F50E56E1E50E56E1D5034
:1038E000E56E1C50E56E2350E56E2250E56E2150CA
:1038F000E56E2050E56E16EC65F0206EF3CF21F0FA
:10390000F4CF22F0E9CF23F0080EE126FF0E1126B6
:103910001222132214221F50E56E1E50E56E1D5018
:10392000E56E1C50E56E1450E56E1350E56E1250B6
:10393000E56E1150E56E16EC65F0246EF3CF25F0C0
:10394000F4CF26F0E9CF27F0080EE1262750235CBC
:1039500008E12650225C05E12550215C02E124505B
:10396000205CD8A045D01C50FF0F206EFF0E1D20FC
:10397000216EFF0E1E20226EFF0E1F20236E201EC2
:10398000211E221E231E20501116215012162250D5
:1039900013162350141611C0E5FF12C0F4FF13C014
:1039A000F6FF14C0F7FF0BC0E9FF0FC0F3FF105084
:1039B000D9EC6EF01150035E1250045A1350055AA0
:1039C0001450065A0050130F116E000E0120126E93
:1039D000000E022011C0E9FF12C0F3FFBFEC6DF032
:1039E000116EF3CF12F0F4CF13F0E9CF14F096D0AC
:1039F00000500F0F206E000E0120216E000E0220DD
:103A0000226E20C0E9FF21C0F3FFBFEC6DF0116E04
:103A1000F3CF12F0F4CF13F0E9CF14F0121013101B
:103A20001410D8A465D0E56AE56AE56AE56A1B501A
:103A3000E56E1A50E56E1950E56ED6EC40F0116E49
:103A4000F3CF12F0F4CF13F0E9CF14F0070EE12614
:103A50001150010A06E1125004E1135002E1145022
:103A600001E015D008C0E9FF09C0F3FF0A50EAECF5
:103A70006EF0196E198E19C0E5FF08C0E9FF09C084
:103A8000F3FF0A505FEC6FF0020EB3EF1FF011501E
:103A9000FF0A09E11250FF0A06E11350FF0A03E191
:103AA0001450FF0A01E015D008C0E9FF09C0F3FF78
:103AB0000A50EAEC6EF0196E198E19C0E5FF08C0C5
:103AC000E9FF09C0F3FF0A505FEC6FF0010EB3EF9E
:103AD0001FF011C0E5FF12C0F4FF13C0F6FF14C0C1
:103AE000F7FF20C0E9FF21C0F3FF2250D9EC6EF0B0
:103AF0000050130F196E000E01201A6E000E0220E6
:103B000011C0E5FF12C0F4FF13C0F6FF14C0F7FFA9
:103B100019C0E9FF1AC0F3FFD9EC6EF01150121072
:103B200013101410D8B499D106501F5C08E1055049
:103B30001E5C05E104501D5C02E103501C5CD8B022
:103B400012D108C0E9FF09C0F3FF0A50EAEC6EF099
:103B5000196E19A233D000C0E9FF01C0F3FF025073
:103B6000FAEC6DF0196EF3CF1AF0F4CF1BF014508D
:103B7000E56E1350E56E1250E56E1150E56E1B5068
:103B8000E56E1A50E56E1950E56ED6EC40F0116EF8
:103B9000F3CF12F0F4CF13F0E9CF14F0070EE126C3
:103BA00011501210131014102EE11CC003F01DC090
:103BB00004F01EC005F01FC006F0D5D000C0E9FF1C
:103BC00001C0F3FF0250FAEC6DF0196EF3CF1AF05A
:103BD000F4CF1BF01450E56E1350E56E1250E56EF5
:103BE0001150E56E1B50E56E1A50E56E1950E56EEA
:103BF000ACEC38F0116EF3CF12F0F4CF13F0E9CF44
:103C000014F0070EE1261150FF0A09E11250FF0AD5
:103C100006E11350FF0A03E11450FF0A01E014D03B
:103C200008C0E9FF09C0F3FF0A50EAEC6EF0196E14
:103C3000198E19C0E5FF08C0E9FF09C0F3FF0A505B
:103C40005FEC6FF0010E8FD1000E145C08E1000EE6
:103C5000135C05E1000E125C02E1020E115C2BE325
:103C600000C0E9FF01C0F3FF0250FAEC6DF0196EDD
:103C7000F3CF1AF0F4CF1BF0160E1926000E1A22FD
:103C80001B2219C0E9FF1AC0F3FF1B50BFEC6DF0F7
:103C9000196EF3CF1AF0F4CF1BF0E9CF20F02050CB
:103CA000145C08E11B50135C05E11A50125C02E140
:103CB0001950115C14E308C0E9FF09C0F3FF0A5072
:103CC000EAEC6EF0196E198E19C0E5FF08C0E9FF25
:103CD00009C0F3FF0A505FEC6FF0020E44D10050B0
:103CE000130F196E000E01201A6E000E022011C073
:103CF000E5FF12C0F4FF13C0F6FF14C0F7FF19C0B0
:103D0000E9FF1AC0F3FFD9EC6EF00BC0E9FF0FC05A
:103D1000F3FF1050BFEC6DF0196EF3CF1AF0F4CF33
:103D20001BF0E9CF20F01C5019261D501A221E50FE
:103D30001B221F50202219C0E5FF1AC0F4FF1BC030
:103D4000F6FF20C0F7FF0BC0E9FF0FC0F3FF1050D4
:103D5000D9EC6EF01C50035E1D50045A1E50055ADB
:103D60001F50065AE1D60BC0E9FF0FC0F3FF1050F9
:103D7000BFEC6DF0196EF3CF1AF0F4CF1BF0E9CF62
:103D80001CF00350192604501A2205501B2206501D
:103D90001C2219C0E5FF1AC0F4FF1BC0F6FF1CC0AF
:103DA000F7FF0BC0E9FF0FC0F3FF1050D9EC6EF026
:103DB000035002E104A051D000C0E9FF01C0F3FFAD
:103DC0000250FAEC6DF0196EF3CF1AF0F4CF1BF03D
:103DD0001450E56E1350E56E1250E56E1150E56E0D
:103DE0001B50E56E1A50E56E1950E56EEEEC5FF073
:103DF000156EF3CF16F0F4CF17F0E9CF18F0070ED9
:103E0000E126155016101710181014E108C0E9FF2C
:103E100009C0F3FF0A50EAEC6EF0116E118E11C06A
:103E2000E5FF08C0E9FF09C0F3FF0A505FEC6FF03F
:103E3000020E99D00450036E0550046E0650056EB4
:103E4000D890066A05320432033203501526045016
:103E5000162205501722065018220BC0E9FF0FC08A
:103E6000F3FF1050BFEC6DF0036EF3CF04F003507E
:103E700002E104A02ED0170E0026000E012202221D
:103E800000C0E9FF01C0F3FF0250BFEC6DF0036E0C
:103E9000F3CF04F0F4CF05F0E9CF06F01550031886
:103EA00009E11650041806E11750051803E11850EF
:103EB00006180FE015C0E5FF16C0F4FF17C0F6FFA7
:103EC00018C0F7FF00C0E9FF01C0F3FF0250D9ECB2
:103ED0006EF00BC0E9FF0FC0F3FF1050BFEC6DF0A8
:103EE000006EF3CF01F0F4CF02F0E9CF03F00CC085
:103EF000E9FF0DC0F3FF0E50BFEC6DF0046EF3CF81
:103F000005F0F4CF06F0E9CF0BF003500B5C08E1AD
:103F10000250065C05E10150055C02E10050045CC2
:103F200021E200C0E5FF01C0F4FF02C0F6FF03C0BC
:103F3000F7FF0CC0E9FF0DC0F3FF0E50D9EC6EF097
:103F400008C0E9FF09C0F3FF0A50EAEC6EF0006E0A
:103F5000008A00C0E5FF08C0E9FF09C0F3FF0A506E
:103F60005FEC6FF00750E4CF27F0E4CF26F0E4CF0A
:103F700025F0E4CF24F0E4CF23F0E4CF22F0E4CF27
:103F800021F0E4CF20F0E4CF1FF0E4CF1EF0E4CF27
:103F90001DF0E4CF1CF0E4CF1BF0E4CF1AF0E4CF27
:103FA00019F0E4CF18F0E4CF17F0E4CF16F0E4CF27
:103FB00015F0E4CF14F0E4CF13F0E4CF12F0E4CF27
:103FC00011F0E4CF10F0E4CF0FF0E4CF0EF0E4CF27
:103FD0000DF0E4CF0CF0E4CF0BF0E4CF0AF0E4CF27
:103FE00009F0E4CF08F0E4CF07F0E4CF06F0E4CF27
:103FF00005F0E4CF04F0E4CF03F0E4CF02F0E4CF27
:1040000001F0E4CF00F0E4CFD9FF1200D9CFE5FFF3
:10401000E1CFD9FF00C0E5FF01C0E5FF02C0E5FF29
:1040200003C0E5FF04C0E5FF05C0E5FF06C0E5FFEE
:1040300007C0E5FF08C0E5FF09C0E5FF0AC0E5FFCE
:104040000BC0E5FF0CC0E5FF0DC0E5FF0EC0E5FFAE
:104050000FC0E5FF10C0E5FF11C0E5FF12C0E5FF8E
:1040600013C0E5FF14C0E5FF15C0E5FF16C0E5FF6E
:1040700017C0E5FF18C0E5FF19C0E5FF1AC0E5FF4E
:104080001BC0E5FF1CC0E5FF1DC0E5FF1EC0E5FF2E
:104090001FC0E5FF20C0E5FF21C0E5FF22C0E5FF0E
:1040A00023C0E5FF24C0E5FF25C0E5FF26C0E5FFEE
:1040B00027C0E5FF28C0E5FF29C0E5FF2AC0E5FFCE
:1040C000020EDBCF00F0030EDBCF01F0040EDBCFDE
:1040D00002F0050EDBCF03F0060EDBCF04F0070E77
:1040E000DBCF05F0080EDBCF06F0090EDBCF07F0C3
:1040F0000A0EDBCF08F00B0EDBCF09F00C0EDBCF86
:104100000AF0E56AF46A08C0E9FF09C0F3FF0A5043
:1041100052EC6FF002500D6E01500C6E00500B6EA1
:104120000D50E56E0C50E56E0B50E56EA2EC65F09F
:104130000B6E030EE1260B5003E00B504CEF24F006
:104140000050050F0B6E000E01200C6E000E0220B9
:104150000D6E0BC0E9FF0CC0F3FFEAEC6EF00E6EC3
:104160000EAE03D0020E4CEF24F00EB003D0070EBB
:104170004CEF24F000500B0F0E6E000E01200F6E5E
:10418000000E02200EC0E9FF0FC0F3FFBFEC6DF080
:104190000E6EF3CF0FF0F4CF10F0E9CF11F0005016
:1041A000070F126E000E0120136E000E0220146E17
:1041B00012C0E9FF13C0F3FFBFEC6DF0F3CF16F0B0
:1041C000F4CF17F0E9CF18F00E5E16500F5A1750C3
:1041D000105A1850115A06C015F007C016F0176A89
:1041E000186A1850115C08E11750105C05E1165070
:1041F0000F5C02E115500E5C04E20E50066E0F508B
:10420000076E0050130F0E6E000E01200F6E000E91
:104210000220106E00500F0F116E000E0120156E5F
:10422000000E0220166E0050170F176E000E0120B0
:10423000186E000E0220196E06500710D8B44BEF0E
:1042400024F012C0E9FF13C0F3FF1450BFEC6DF06F
:104250001A6EF3CF1BF0F4CF1CF0E9CF1DF01A500B
:10426000D8A45FEF23F01BB05FEF23F0D8901D3090
:10427000216A1C301B301E6E00C0E9FF01C0F3FF35
:104280000250FAEC6DF0226EF3CF23F0F4CF24F05D
:10429000020F256E000E2320266E000E242025C05E
:1042A000E9FF26C0F3FFEAEC6EF0256E25062550E7
:1042B0001E161E50D8A48DD01A501B101C101D1095
:1042C0000FE111C0E9FF15C0F3FF1650BFEC6DF010
:1042D0001A6EF3CF1BF0F4CF1CF0E9CF1DF027D0FE
:1042E0000EC0E9FF0FC0F3FF1050BFEC6DF01F6E62
:1042F000F3CF20F0F4CF21F0E9CF25F02550E56E83
:104300002150E56E2050E56E1F50E56E2450E56E9D
:104310002350E56E2250E56EACEC38F01A6EF3CF08
:104320001BF0F4CF1CF0E9CF1DF0070EE126000EC4
:104330001D5C08E1000E1C5C05E1000E1B5C02E147
:10434000020E1A5C15E20BC0E9FF0CC0F3FF0D5022
:10435000EAEC6EF01F6E1F8E1FC0E5FF0BC0E9FF79
:104360000CC0F3FF0D505FEC6FF0020E4CEF24F029
:104370001A50FF0A09E11B50FF0A06E11C50FF0A10
:1043800003E11D50FF0A01E015D00BC0E9FF0CC08E
:10439000F3FF0D50EAEC6EF01F6E1F8E1FC0E5FF9D
:1043A0000BC0E9FF0CC0F3FF0D505FEC6FF0010E86
:1043B0004CEF24F01AC0E5FF1BC0F4FF1CC0F6FF51
:1043C0001DC0F7FF0EC0E9FF0FC0F3FF1050D9EC7E
:1043D0006EF000C0E9FF01C0F3FF0250FAEC6DF08F
:1043E0001A6EF3CF1BF0F4CF1CF00EC0E9FF0FC024
:1043F000F3FF1050BFEC6DF01D6EF3CF1FF0F4CF44
:1044000020F0E9CF21F02150E56E2050E56E1F50DD
:10441000E56E1D50E56E1C50E56E1B50E56E1A50A2
:10442000E56EEEEC5FF01A6EF3CF1BF0F4CF1CF0EC
:10443000E9CF1DF0070EE1261A501B101C101D10AD
:1044400015E10BC0E9FF0CC0F3FF0D50EAEC6EF074
:104450001F6E1F8E1FC0E5FF0BC0E9FF0CC0F3FFEE
:104460000D505FEC6FF0020E4CEF24F01EC01FF0F9
:10447000206A216A226A1F501A2620501B222150CE
:104480001C2222501D2207407F0B1F6E2010D8B423
:1044900007D1216A1E50226E236A1F502226205007
:1044A000232200C0E9FF01C0F3FF0250FAEC6DF0D7
:1044B000246EF3CF25F0F4CF26F0020E2426000E52
:1044C0002522262224C0E9FF25C0F3FF2650EAEC6E
:1044D0006EF0246E24C025F0266A2350265C02E18B
:1044E0002250255C07E2226A1E50245C1F6E215078
:1044F0002258206E00C0E9FF01C0F3FF0250FAEC21
:104500006DF01E6EF3CF21F0F4CF22F01E2A02E3ED
:10451000214A222A1EC0E9FF21C0F3FF2250EAEC03
:104520006EF01E6E1F50E56E1D50E56E1C50E56E60
:104530001B50E56E1A50E56E0550E56E0450E56EB1
:104540000350E56E1E50E56EE3EC53F01E6E090E4F
:10455000E1261E5014E00BC0E9FF0CC0F3FF0D5024
:10456000EAEC6EF01E6E1E8E1EC0E5FF0BC0E9FF6A
:104570000CC0F3FF0D505FEC6FF0010E8DD100C049
:10458000E9FF01C0F3FF0250FAEC6DF01E6EF3CFAD
:1045900021F0F4CF22F0040F236E000E2120246EB0
:1045A000000E222023C0E9FF24C0F3FFEAEC6EF0E6
:1045B000236E2350D8B464D01E502E0F236E000EED
:1045C0002120246E000E222023C0E9FF24C0F3FF27
:1045D000BFEC6DF0236EF3CF24F0F4CF25F0E9CFDC
:1045E00026F01A50235E1B50245A1C50255A1D5089
:1045F000265A1FC027F020C028F0296A2A6A2A50AC
:10460000265C08E12950255C05E12850245C02E184
:104610002750235C35E22650E56E2550E56E245088
:10462000E56E2350E56EE56AE56A020EE56E000E62
:10463000E56A26EC57F0236EF3CF24F0F4CF25F093
:10464000080EE1260350232604502422055025227B
:10465000320E1E26000E21222222020EE56EE56A8F
:104660002250E56E2150E56E1E50E56E2550E56E38
:104670002450E56E2350E56EB5EC68F0080EE12697
:104680002050E56E1F50E56E020EE56E000EE56AE5
:104690002BEC6BF01E6EF3CF1FF0040EE126ABD0B7
:1046A0001AC0E5FF1BC0F4FF1CC0F6FF1DC0F7FFDA
:1046B00017C0E9FF18C0F3FF1950D9EC6EF012C013
:1046C000E9FF13C0F3FF1450BFEC6DF01A6EF3CF87
:1046D0001BF0010E1B161A5000081E6E020E1B5412
:1046E0001F6E075C02E11E50065C04E206C01EF06D
:1046F00007C01FF000C0E9FF01C0F3FF0250FAEC51
:104700006DF01A6EF3CF1BF0F4CF1CF017C0E9FF69
:1047100018C0F3FF1950BFEC6DF01D6EF3CF20F001
:10472000F4CF21F0E9CF22F02250E56E2150E56E62
:104730002050E56E1D50E56E1C50E56E1B50E56E79
:104740001A50E56E64EC5EF01A6E070EE1261A5000
:1047500014E00BC0E9FF0CC0F3FF0D50EAEC6EF063
:104760001A6E1A8E1AC0E5FF0BC0E9FF0CC0F3FFEA
:104770000D505FEC6FF0010E8FD005501C6E045091
:104780001B6E03501A6E00C0E9FF01C0F3FF025018
:10479000FAEC6DF01D6EF3CF20F0F4CF21F0320E65
:1047A0001D26000E2022212212C0E9FF13C0F3FFB4
:1047B0001450BFEC6DF0226EF3CF23F0010E2316E0
:1047C000246A22501D2623502022245021221F50CB
:1047D000E56E1E50E56E2150E56E2050E56E1D50D1
:1047E000E56E1C50E56E1B50E56E1A50E56EB5EC9B
:1047F00068F0080EE1261E5003261F500422E86AC6
:10480000052212C0E9FF13C0F3FF1450BFEC6DF096
:104810001A6EF3CF1BF0F4CF1CF0E9CF1DF01EC0D1
:1048200020F01FC021F0226A236A20501A2621504E
:104830001B2222501C2223501D221AC0E5FF1BC040
:10484000F4FF1CC0F6FF1DC0F7FF12C0E9FF13C044
:10485000F3FF1450D9EC6EF008C0E9FF09C0F3FF74
:104860000A5075EC6EF01A6EF3CF1BF01E501A262C
:104870001F501B221AC0E5FF1BC0F4FF08C0E9FF50
:1048800009C0F3FF0A5052EC6FF01E50065E1F5035
:10489000075A1CEF21F0E86AE4CF2AF0E4CF29F0B0
:1048A000E4CF28F0E4CF27F0E4CF26F0E4CF25F0E2
:1048B000E4CF24F0E4CF23F0E4CF22F0E4CF21F0E2
:1048C000E4CF20F0E4CF1FF0E4CF1EF0E4CF1DF0E2
:1048D000E4CF1CF0E4CF1BF0E4CF1AF0E4CF19F0E2
:1048E000E4CF18F0E4CF17F0E4CF16F0E4CF15F0E2
:1048F000E4CF14F0E4CF13F0E4CF12F0E4CF11F0E2
:10490000E4CF10F0E4CF0FF0E4CF0EF0E4CF0DF0E1
:10491000E4CF0CF0E4CF0BF0E4CF0AF0E4CF09F0E1
:10492000E4CF08F0E4CF07F0E4CF06F0E4CF05F0E1
:10493000E4CF04F0E4CF03F0E4CF02F0E4CF01F0E1
:10494000E4CF00F0E4CFD9FF1200D9CFE5FFE1CFEB
:10495000D9FF00C0E5FF01C0E5FF02C0E5FF03C0CD
:10496000E5FF04C0E5FF05C0E5FF06C0E5FF07C0A1
:10497000E5FF08C0E5FF09C0E5FF0AC0E5FF0BC081
:10498000E5FF0CC0E5FF0DC0E5FF0EC0E5FF0FC061
:10499000E5FF10C0E5FF11C0E5FF12C0E5FF13C041
:1049A000E5FF14C0E5FF15C0E5FF16C0E5FF17C021
:1049B000E5FF18C0E5FF19C0E5FF1AC0E5FF1BC001
:1049C000E5FF1CC0E5FF1DC0E5FF1EC0E5FF1FC0E1
:1049D000E5FF020EDBCF00F0030EDBCF01F0040E8B
:1049E000DBCF02F0050EDBCF03F0060EDBCF04F0C9
:1049F0000050050F056E000E0120066E000E02200D
:104A0000076E05C0E9FF06C0F3FF75EC6EF0086E97
:104A1000F3CF09F0084A092A085009101AE000509B
:104A20000F0F0A6E000E01200B6E000E02200C6E9E
:104A30000AC0E9FF0BC0F3FFBFEC6DF00D6EF3CFC2
:104A40000EF0F4CF0FF0E9CF10F00E100F10101091
:104A500003E1040E1CEF28F00F0E0814116E126A09
:104A60001210D8A4D5EF27F00D2A04E30E2A02E392
:104A70000F4A102A0DC0E5FF0EC0F4FF0FC0F6FF6D
:104A800010C0F7FF0AC0E9FF0BC0F3FF0C50D9ECD0
:104A90006EF000500B0F0D6E000E01200E6E000E1A
:104AA00002200F6E0DC0E9FF0EC0F3FFBFEC6DF0EA
:104AB000106EF3CF13F0F4CF14F0E9CF15F013100C
:104AC0001410151026E100C0E9FF01C0F3FF0250E9
:104AD000FAEC6DF0166EF3CF17F0F4CF18F0080E65
:104AE0001626000E1722182216C0E9FF17C0F3FF82
:104AF000185075EC6EF0166EF3CF17F01750095C76
:104B000002E11650085CD8A0D5EF27F0040E1CEF88
:104B100028F008380F0B166E0938176EF00B171AAD
:104B2000162600C0E9FF01C0F3FF0250FAEC6DF059
:104B3000186EF3CF19F0F4CF1AF0020F1B6E000EAF
:104B400019201C6E000E1A201BC0E9FF1CC0F3FFC9
:104B5000EAEC6EF01B6E1C6AFF0E1B261C221B501B
:104B600016161C50171616501710D8A4D5EF27F09C
:104B70001550E56E1450E56E1350E56E1050E56E5D
:104B80001A50E56E1950E56E1850E56EACEC38F031
:104B9000106EF3CF13F0F4CF14F0E9CF15F0070E39
:104BA000E126000E155C08E1000E145C05E1000E24
:104BB000135C02E1020E105C03E2020E1CEF28F00F
:104BC0001050FF0A0DE11350FF0A0AE11450FF0ACA
:104BD00007E11550FF0A01E003D0010E1CEF28F099
:104BE00000C0E9FF01C0F3FF0250FAEC6DF0166E51
:104BF000F3CF17F0F4CF18F0160F196E000E172030
:104C00001A6E000E182019C0E9FF1AC0F3FFBFEC9E
:104C10006DF0196EF3CF1AF0F4CF1BF0E9CF1CF052
:104C20001C50155C08E11B50145C05E11A50135C24
:104C300002E11950105CD8A075D10350041002E1B4
:104C4000040EFAD10DC0E9FF0EC0F3FF0F50BFEC08
:104C50006DF0036EF3CF04F0F4CF19F0E9CF1AF042
:104C60001A50E56E1950E56E0450E56E0350E56E7E
:104C70001850E56E1750E56E1650E56ED6EC40F014
:104C8000106EF3CF13F0F4CF14F0E9CF15F0070E48
:104C9000E126105013101410151002E1070ECCD1AC
:104CA0001050010A09E1135007E1145005E11550B5
:104CB00001E002D0020EC0D11050FF0A0CE11350E7
:104CC000FF0A09E11450FF0A06E11550FF0A01E04E
:104CD00002D0010EB1D100C0E9FF01C0F3FF0250C4
:104CE000FAEC6DF0036EF3CF04F0F4CF16F016502B
:104CF000E56E0450E56E0350E56EF8EC4CF0036E83
:104D0000030EE126035002E0010E96D100C0E9FF38
:104D100001C0F3FF0250FAEC6DF0036EF3CF04F024
:104D2000F4CF16F0320E0326000E04221622020ED5
:104D3000E56EE56AE56AE56A1650E56E0450E56ED3
:104D40000350E56E7FEC69F0070EE12600C0E9FF35
:104D500001C0F3FF0250FAEC6DF0036EF3CF04F0E4
:104D6000F4CF16F02E0F176E000E0420186E000EF2
:104D70001620196E1550E56E1450E56E1350E56E51
:104D80001050E56E1650E56E0450E56E0350E56E6A
:104D9000EEEC5FF0036EF3CF04F0F4CF16F0E9CF42
:104DA0001AF0070EE12603C0E5FF04C0F4FF16C0A9
:104DB000F6FF1AC0F7FF17C0E9FF18C0F3FF19503C
:104DC000D9EC6EF0036A046A00C0E9FF01C0F3FF8A
:104DD0000250FAEC6DF0166EF3CF17F0F4CF18F026
:104DE000020F196E000E17201A6E000E182019C03F
:104DF000E9FF1AC0F3FFEAEC6EF0045CD8B065D0AE
:104E00001650040F196E000E17201A6E000E18208F
:104E10001B6E010EE56E19C0E9FF1AC0F3FF1B50AF
:104E20005FEC6FF000C0E9FF01C0F3FF0250FAEC45
:104E30006DF0196EF3CF1AF0F4CF1BF01B50E56E36
:104E40001A50E56E1950E56EF8EC4CF0196E030E31
:104E5000E126195002E0010EEFD000C0E9FF01C0C9
:104E6000F3FF0250FAEC6DF0196EF3CF1AF0F4CFA5
:104E70001BF02E0E1926000E1A221B2219C0E9FF64
:104E80001AC0F3FF1B50BFEC6DF01C6EF3CF1DF08A
:104E9000F4CF1EF0E9CF1FF01C2A04E31D2A02E321
:104EA0001E4A1F2A1CC0E5FF1DC0F4FF1EC0F6FFEE
:104EB0001FC0F7FF19C0E9FF1AC0F3FF1B50D9EC60
:104EC0006EF0042A04C003F07FD72E0E1626000EC3
:104ED0001722182216C0E9FF17C0F3FF1850BFECC5
:104EE0006DF0046EF3CF19F0F4CF1AF0E9CF1BF098
:104EF0001C6A1D6A1E6A0350045E1C50195A1D501C
:104F00001A5A1E501B5A04C0E5FF19C0F4FF1AC0FC
:104F1000F6FF1BC0F7FF16C0E9FF17C0F3FF1850DC
:104F2000D9EC6EF010C0E5FF13C0F4FF14C0F6FF1B
:104F300015C0F7FF0DC0E9FF0EC0F3FF0F50D9EC0D
:104F40006EF000C0E9FF01C0F3FF0250FAEC6DF013
:104F5000036EF3CF04F0F4CF0DF01550E56E14504E
:104F6000E56E1350E56E1050E56E0D50E56E045081
:104F7000E56E0350E56EEEEC5FF0036EF3CF04F0E8
:104F8000F4CF0DF0E9CF0EF0070EE12603C0E5FFE8
:104F900004C0F4FF0DC0F6FF0EC0F7FF0AC0E9FF22
:104FA0000BC0F3FF0C50D9EC6EF008C0E5FF09C050
:104FB000F4FF05C0E9FF06C0F3FF075052EC6FF0A5
:104FC0000050130F036E000E0120046E000E02202D
:104FD000056E00C0E9FF01C0F3FF0250FAEC6DF06E
:104FE000006EF3CF01F0F4CF02F0320E0026000E77
:104FF000012202221250E56E1150E56EE56A200E84
:10500000E56E2BEC6BF0066EF3CF07F0040EE12695
:105010000650002607500122E86A022200C0E5FF80
:1050200001C0F4FF02C0F6FF03C0E9FF04C0F3FFB4
:1050300005501BEC6FF0E86AE4CF1FF0E4CF1EF0E0
:10504000E4CF1DF0E4CF1CF0E4CF1BF0E4CF1AF066
:10505000E4CF19F0E4CF18F0E4CF17F0E4CF16F066
:10506000E4CF15F0E4CF14F0E4CF13F0E4CF12F066
:10507000E4CF11F0E4CF10F0E4CF0FF0E4CF0EF066
:10508000E4CF0DF0E4CF0CF0E4CF0BF0E4CF0AF066
:10509000E4CF09F0E4CF08F0E4CF07F0E4CF06F066
:1050A000E4CF05F0E4CF04F0E4CF03F0E4CF02F066
:1050B000E4CF01F0E4CF00F0E4CFD9FF1200D9CF64
:1050C000E5FFE1CFD9FF00C0E5FF01C0E5FF02C069
:1050D000E5FF03C0E5FF04C0E5FF05C0E5FF06C02E
:1050E000E5FF07C0E5FF08C0E5FF09C0E5FF0AC00E
:1050F000E5FF0BC0E5FF0CC0E5FF0DC0E5FF0EC0EE
:10510000E5FF0FC0E5FF10C0E5FF11C0E5FF12C0CD
:10511000E5FF14C0E5FF15C0E5FF020EDBCF00F090
:10512000030EDBCF01F0040EDBCF02F0050EDBCF68
:10513000DCF8060EDBCFDDF8070EDBCFDEF8080E5D
:10514000DBCF03F000500110021003E1090EDFEF86
:105150002BF0E56AF46AF66A00C0E9FF01C0F3FFCC
:1051600002501BEC6FF01F0E031603500A6E0A90DC
:105170000A50E56E800EE56E000EE56EE00EE56EFF
:10518000800EE56E080EE56EDC0EE56E0EEC06F0A8
:10519000046E070EE1260450D8A4DEEF2BF06E0E4D
:1051A0000001F66F080EF76F800EF86F0801DE51F0
:1051B000E56EDD51E56EDC51E56E800EE56E000EAC
:1051C000E56EE00EE56E75EC4EF0046E060EE1261F
:1051D000F3C005F0F4C006F0F5C007F0045006E196
:1051E00005500610071002E1060E046E03501C0B5A
:1051F000D8B477D1045016E00450040A0BE1800EB5
:10520000E56E000EE56EE00EE56E30EC59F0046ED2
:10521000030EE1260386F3C005F0F4C006F0F5C0E6
:1052200007F017D005500B0F086E000E0620096E10
:10523000000E072008C0E9FF09C0F3FFEAEC6EF09A
:10524000110B03E0070E046E04D003A402D0080E75
:10525000046E0450D8A461D103A65FD16AEC6FF04C
:10526000086EF3CF09F0F4CF0AF0E9CF0BF0055048
:105270000E0F0C6E000E06200D6E000E07200E6E37
:1052800008500F6E0FC0E5FF0CC0E9FF0DC0F3FF23
:105290000E505FEC6FF005500F0F0C6E000E0620E5
:1052A0000D6E000E07200E6E09500F6E0FC0E5FF49
:1052B0000CC0E9FF0DC0F3FF0E505FEC6FF005501E
:1052C000100F0C6E000E06200D6E000E07200E6EE5
:1052D0000A500F6E0FC0E5FF0CC0E9FF0DC0F3FFD1
:1052E0000E505FEC6FF00550110F0C6E000E062093
:1052F0000D6E000E07200E6E0B500F6E0FC0E5FFF7
:105300000CC0E9FF0DC0F3FF0E505FEC6FF00550CD
:105310000B0F0C6E000E06200D6E000E0720E56AC6
:105320000CC0E9FF0DC0F3FF5FEC6FF005501C0FE0
:105330000C6E000E06200D6E000E0720E56A0CC0F4
:10534000E9FF0DC0F3FF5FEC6FF005501D0F0C6E11
:10535000000E06200D6E000E0720E56A0CC0E9FF66
:105360000DC0F3FF5FEC6FF005501E0F0C6E000ECA
:1053700006200D6E000E0720E56A0CC0E9FF0DC087
:10538000F3FF5FEC6FF005501F0F0C6E000E062050
:105390000D6E000E0720E56A0CC0E9FF0DC0F3FF9B
:1053A0005FEC6FF00750E56E0650E56E0550E56E58
:1053B0000001E251E56EE151E56EE051E56E16EC5B
:1053C00062F00C6EF3CF0DF0F4CF0EF0E9CF0FF0DA
:1053D000060EE126E56AE56AE56AE56A0750E56ECC
:1053E0000650E56E0550E56E60EC63F0070EE126B1
:1053F0000001E051040F106E000EE121116E000E4D
:10540000E221126E010EE56E10C0E9FF11C0F3FF3C
:1054100012505FEC6FF00C500D100E100F10D8B43E
:105420007CD00001E0512E0F106E000EE121116EB4
:10543000000EE22110C0E9FF11C0F3FFBFEC6DF0D8
:10544000086EF3CF09F0F4CF0AF0E9CF0BF00F505C
:10545000E56E0E50E56E0D50E56E0C50E56E0001E8
:10546000E251E56EE151E56EE051E56EEAEC4FF098
:10547000046E070EE1260450D8A44FD00001E0517D
:105480000A0F106E000EE121116E000EE221126E65
:10549000FF0E0C260D220E220F220CC0E5FF0DC0C0
:1054A000F4FF0EC0F6FF0FC0F7FF10C0E9FF11C0F8
:1054B000F3FF1250D9EC6EF00B50E56E0A50E56E1A
:1054C0000950E56E0850E56E0001E251E56EE151CC
:1054D000E56EE051E56E64EC5EF0046E070EE126C9
:1054E0001CD004501AE105500B0F086E000E062068
:1054F000096E000E072008C0E9FF09C0F3FFEAECBF
:105500006EF0086E08A803D0040E046E06D003A245
:1055100004D008A002D0070E046E0450D8A444D0D2
:1055200003B6038A00501B0F086E000E0120096E9F
:10553000000E02200A6E0001E0512E0F0B6E000ECD
:10554000E1210C6E000EE2210BC0E9FF0CC0F3FF5D
:10555000BFEC6DF00B6EF3CF0CF0F4CF0DF0E9CF94
:105560000EF00BC0E5FF0CC0F4FF0DC0F6FF0EC03F
:10557000F7FF08C0E9FF09C0F3FF0A50D9EC6EF04D
:1055800000501F0F086E000E0120096E000E022051
:1055900005C0E5FF06C0F4FF07C0F6FF08C0E9FF3D
:1055A00009C0F3FF1BEC6FF00450D8A407D10050E2
:1055B000050F086E000E0120096E000E022003C0C8
:1055C000E5FF08C0E9FF09C0F3FF5FEC6FF0005092
:1055D0000F0F036E000E0120086E000E0220096EF0
:1055E0000750E56E0650E56E0550E56E0001E2518C
:1055F000E56EE151E56EE051E56E16EC62F00A6E83
:10560000F3CF0BF0F4CF0CF0E9CF0DF0060EE1264E
:105610000AC0E5FF0BC0F4FF0CC0F6FF0DC0F7FF9A
:1056200003C0E9FF08C0F3FF0950D9EC6EF0005049
:105630000B0F036E000E0120086E000E0220096E93
:1056400005501F0F0A6E000E06200B6E000E07207D
:105650000AC0E9FF0BC0F3FFEAEC6EF0116E0E6AB0
:105660000F6A106A05501E0F0A6E000E06200B6EA0
:10567000000E07200AC0E9FF0BC0F3FFEAEC6EF052
:10568000156A146E126A12500E120F121450101274
:105690001550111205501D0F0A6E000E06200B6EDC
:1056A000000E07200AC0E9FF0BC0F3FFEAEC6EF022
:1056B0000D6E0A6A0DC00BF0126A0A500E120B50E2
:1056C0000F121250101211121C0E0526000E062287
:1056D000072205C0E9FF06C0F3FF0750EAEC6EF0B1
:1056E000066A0E1206500F12101211120EC0E5FFBC
:1056F0000FC0F4FF10C0F6FF11C0F7FF03C0E9FFB1
:1057000008C0F3FF0950D9EC6EF00050070F036E8C
:10571000000E0120056E000E0220E56AF46AF66AAA
:10572000F76A03C0E9FF05C0F3FFD9EC6EF0005043
:10573000170F036E000E0120056E000E0220E56AB1
:10574000F46AF66AF76A03C0E9FF05C0F3FFD9EC13
:105750006EF0E0C003F0E1C005F0E2C006F003C067
:10576000E5FF05C0F4FF06C0F6FF00C0E9FF01C079
:10577000F3FF02501BEC6FF0030E0026000E012217
:1057800002220001E051060F036E000EE121056EBA
:10579000000EE22103C0E9FF05C0F3FF75EC6EF0D7
:1057A000036EF3CF05F003C0E5FF05C0F4FF00C0B2
:1057B000E9FF01C0F3FF025052EC6FF00450E4CF58
:1057C00015F0E4CF14F0E4CF12F0E4CF11F0E4CF01
:1057D00010F0E4CF0FF0E4CF0EF0E4CF0DF0E4CF03
:1057E0000CF0E4CF0BF0E4CF0AF0E4CF09F0E4CF03
:1057F00008F0E4CF07F0E4CF06F0E4CF05F0E4CF03
:1058000004F0E4CF03F0E4CF02F0E4CF01F0E4CF02
:1058100000F0E4CFD9FF1200D9CFE5FFE1CFD9FFE7
:1058200000C0E5FF01C0E5FF02C0E5FF03C0E5FFE2
:1058300004C0E5FF05C0E5FF06C0E5FF07C0E5FFC2
:1058400008C0E5FF09C0E5FF0AC0E5FF0BC0E5FFA2
:105850000CC0E5FF0DC0E5FF0EC0E5FF0FC0E5FF82
:1058600010C0E5FF11C0E5FF12C0E5FF13C0E5FF62
:1058700014C0E5FF15C0E5FF16C0E5FF17C0E5FF42
:1058800018C0E5FF19C0E5FF1AC0E5FF1BC0E5FF22
:105890001CC0E5FF1DC0E5FF1EC0E5FF1FC0E5FF02
:1058A000020EDBCF00F0030EDBCF01F0040EDBCFE6
:1058B00002F0050EDBCF03F0060EDBCF04F0070E7F
:1058C000DBCF05F0080EDBCF06F0090EDBCF07F0CB
:1058D0000A0EDBCF08F00B0EDBCF09F00C0EDBCF8E
:1058E0000AF0000E065C08E1000E055C05E1000E02
:1058F000045C02E1020E035C21E30050160F0B6E04
:10590000000E01200C6E000E02200BC0E9FF0CC03F
:10591000F3FFBFEC6DF00B6EF3CF0CF0F4CF0DF096
:10592000E9CF0EF00E50065C08E10D50055C05E174
:105930000C50045C02E10B50035C04E3020E0B6E9E
:1059400035EF2FF000C0E9FF01C0F3FF0250EAEC91
:105950006EF00C6E010E0C5CD8A025EF2FF0040E3B
:105960000C5CD8B025EF2FF00C06FA6AFB6A0C34F9
:10597000FA36E834FA36FC0B880FE56E590EFA2237
:10598000000EFB22E450F96ECAEF2CF0BEEF2DF0B2
:1059900045EF2EF003500C6E04500D6ED8900D3074
:1059A0000F6E0C300C260F500D220050220F0E6E81
:1059B000000E01200F6E000E0220106E0EC0E9FFD7
:1059C0000FC0F3FFBFEC6DF0116EF3CF12F0F4CF08
:1059D00013F0E9CF14F00D407F0B166A176A186AAE
:1059E0001126165012221750132218501422145048
:1059F000E56E1350E56E1250E56E1150E56E0250E3
:105A0000E56E0150E56E0050E56E64EC5EF00B6EE5
:105A1000070EE1260B50D8A427EF2FF00050320FCD
:105A2000116E000E0120126E000E0220136E0C503B
:105A3000146E010E0D14156E166A115014261250B4
:105A4000152213501622010E0314176E186A196AD4
:105A50001A6A181019101A1010E014C0E9FF15C0C6
:105A6000F3FF1650EAEC6EF01B6E0F0E1B1607507C
:105A70001C6E1C38F00B1B1202D007501B6E1BC093
:105A8000E5FF14C0E9FF15C0F3FF16505FEC6FF09F
:105A90000C4A0D2A0050040F1B6E000E01201C6ED4
:105AA000000E02201D6E010EE56E1BC0E9FF1CC03A
:105AB000F3FF1D505FEC6FF00EC0E9FF0FC0F3FF66
:105AC0001050BFEC6DF00E6EF3CF0FF0F4CF10F06E
:105AD000E9CF1BF00D407F0B1D6A1E6A1F6A0E2660
:105AE0001D500F221E5010221F501B221B50E56E0E
:105AF0001050E56E0F50E56E0E50E56E0250E56EEB
:105B00000150E56E0050E56E64EC5EF00B6E070E22
:105B1000E1260B50D8A49BD1010E0D160C50112478
:105B2000146E0D501220156EE86A1320166E175071
:105B3000181019101A1007E007380F0B0C6E0838F0
:105B4000F00B0C2611D014C0E9FF15C0F3FF16505E
:105B5000EAEC6EF00D6EF00E0D1608500E6E0F0E84
:105B60000E160E500D100C6E0CC0E5FF14C0E9FFB0
:105B700015C0F3FF16505FEC6FF069D10050220F93
:105B80000C6E000E01200D6E000E02200CC0E9FF0D
:105B90000DC0F3FFBFEC6DF00C6EF3CF0DF0F4CF42
:105BA0000EF0E9CF0FF00450106E0550116E065044
:105BB000126E136A10500C2611500D2212500E2234
:105BC00013500F220F50E56E0E50E56E0D50E56E2E
:105BD0000C50E56E0250E56E0150E56E0050E56E2A
:105BE00064EC5EF00B6E070EE1260B50D8A42FD1AB
:105BF0000050320F0C6E000E01200D6E000E0220C0
:105C00000E6E0650E56E0550E56E0450E56E0350CD
:105C1000E56EE56AE56AE56A020EE56E26EC57F088
:105C20000F6EF3CF10F0080EE126010E1016116A68
:105C30000F500C24146E10500D20156E11500E20B4
:105C4000166E07500C6E08500D6E0C500E6E0EC086
:105C5000E5FF14C0E9FF15C0F3FF16505FEC6FF0CD
:105C60001450010F0E6E000E15200F6E000E162040
:105C7000106E0D500C6E0CC0E5FF0EC0E9FF0FC09A
:105C8000F3FF10505FEC6FF0E2D00050220F0C6E6B
:105C9000000E01200D6E000E02200E6E0CC0E9FFFA
:105CA0000DC0F3FF0E50BFEC6DF00C6EF3CF0DF096
:105CB000F4CF0EF0E9CF0FF003340434106E116A04
:105CC00011360550E844FE0B111205340634126EED
:105CD000136A133610500C2611500D2212500E224A
:105CE00013500F220F50E56E0E50E56E0D50E56E0D
:105CF0000C50E56E0250E56E0150E56E0050E56E09
:105D000064EC5EF00B6E070EE1260B50D8A49FD01A
:105D10000050320F0C6E000E01200D6E000E02209E
:105D20000E6E0650E56E0550E56E0450E56E0350AC
:105D3000E56EE56AE56AE56A040EE56E26EC57F065
:105D4000036EF3CF04F0080EE126010E0416056A77
:105D500003500C24146E04500D20156E05500E20B7
:105D6000166E1450030F036E000E1520046E000E05
:105D70001620056E03C0E9FF04C0F3FFEAEC6EF0E5
:105D8000126E1450020F066E000E15200C6E000EDF
:105D900016200D6E06C0E9FF0CC0F3FFEAEC6EF0B2
:105DA0001C6A1C5012121450010F0E6E000E1520AA
:105DB000136E000E1620176E0EC0E9FF13C0F3FF1E
:105DC000EAEC6EF01C6A1C50121214C0E9FF15C0F8
:105DD000F3FF1650EAEC6EF0196A195012120F6AAE
:105DE000F00E12160F5007120812091212500A1262
:105DF00007500F6E0FC0E5FF14C0E9FF15C0F3FF99
:105E000016505FEC6FF008500F6E0FC0E5FF0EC02C
:105E1000E9FF13C0F3FF17505FEC6FF009500E6EEF
:105E20000EC0E5FF06C0E9FF0CC0F3FF0D505FECAC
:105E30006FF00A50076E07C0E5FF03C0E9FF04C01A
:105E4000F3FF05505FEC6FF002D0020E0B6E040EF4
:105E50000026000E01220222010EE56E00C0E9FFBD
:105E600001C0F3FF02505FEC6FF00B50E4CF1FF066
:105E7000E4CF1EF0E4CF1DF0E4CF1CF0E4CF1BF024
:105E8000E4CF1AF0E4CF19F0E4CF18F0E4CF17F024
:105E9000E4CF16F0E4CF15F0E4CF14F0E4CF13F024
:105EA000E4CF12F0E4CF11F0E4CF10F0E4CF0FF024
:105EB000E4CF0EF0E4CF0DF0E4CF0CF0E4CF0BF024
:105EC000E4CF0AF0E4CF09F0E4CF08F0E4CF07F024
:105ED000E4CF06F0E4CF05F0E4CF04F0E4CF03F024
:105EE000E4CF02F0E4CF01F0E4CF00F0E4CFD9FF3B
:105EF0001200D9CFE5FFE1CFD9FF00C0E5FF01C017
:105F0000E5FF02C0E5FF03C0E5FF04C0E5FF05C0F3
:105F1000E5FF06C0E5FF07C0E5FF08C0E5FF09C0D3
:105F2000E5FF0AC0E5FF0BC0E5FF0CC0E5FF0DC0B3
:105F3000E5FF0EC0E5FF0FC0E5FF10C0E5FF11C093
:105F4000E5FF12C0E5FF13C0E5FF14C0E5FF15C073
:105F5000E5FF16C0E5FF020EDBCF00F0030EDBCF3E
:105F600001F0040EDBCF02F0050EDBCF03F0060ECE
:105F7000DBCF04F00450076E0350066E0250056E2E
:105F800005C008F006C009F007C00AF0005003E0A1
:105F9000040EA5EF32F00801E6A103D0030EA5EF31
:105FA00032F0010E006E015022E00150010A2AE099
:105FB0000150030A01E10AD101500A0A02E1F3EF9C
:105FC00031F001500B0A02E101EF32F001500C0AEE
:105FD00002E125EF32F001500D0A02E149EF32F003
:105FE00001500E0A02E176EF32F0A0EF32F047ECFA
:105FF0006EF0F3CF0BF00B10D8B4A2EF32F0006AC2
:10600000A2EF32F0E56AE56AE56AE56A090EE56E37
:1060100064EC61F0016E050EE1260150D8A4A2EFF8
:1060200032F0E56A100EE56E800EE56E080EE56E44
:10603000510EE56EF8EC63F0016EF3CF0BF0050E38
:10604000E12601500B10D8B4A2EF32F008015145FF
:10605000E844030B010A01E048D05AC801F00B6A7A
:1060600059C80CF00C500F6E0E6A01500E260B50E2
:106070000F223F0E08015815126E106A116A146A39
:106080000E5010260F501122145012221050010FE2
:10609000016E000E11200B6E000E12200C6E0450CB
:1060A000106E03500F6E02500E6E0B50136E1326BF
:1060B0000C34146ED890133614360144E844FC0BAB
:1060C000126E0150E844E844030B1312E56A12C053
:1060D000F4FF13C0F6FF14C0F7FF0EC0E9FF0FC0B6
:1060E000F3FF1050D9EC6EF06FD00F0E080156156B
:1060F0000E6E800E5B150F6E0F44010B0E26030E05
:106100005A150F6E0F44FE0B0E260E2A0E2A594505
:10611000E844030B0F6E106A58C811F0126A115050
:10612000136E13261234146ED890133614360F5093
:10613000132610501422030E57150F6E0F44E84417
:10614000FC0B126E116A1150132612501422134ABE
:10615000142A13C001F014C00BF00C6A0D6A04502D
:10616000116E0350106E02500F6E126AF70E0E265B
:10617000D8A0120601C013F00BC014F00CC015F02B
:106180000DC016F00E5011E009E6E86CD8901336F9
:10619000143615361636010FFAE307D0D8901632AA
:1061A000153214321332010FFAE313C0E5FF14C0A5
:1061B000F4FF15C0F6FF16C0F7FF0FC0E9FF10C0CF
:1061C000F3FF1150D9EC6EF0006ABCD10801E9A5CB
:1061D0005AD0E56AE56AE56AE56A8D0EE56E64EC1B
:1061E00061F0016E050EE1260150D8A4ABD1FF0E7F
:1061F000E5688BEC6EF0E652E56A100EE56E800EF7
:10620000E56E080EE56E510EE56EF8EC63F0016E7A
:10621000F3CF0BF0050EE12601500B10D8B492D14C
:10622000300E016EFF0EE5688BEC6EF0E652012E2B
:10623000F9D704500C6E03500B6E0250016E08012A
:106240005B390F0B0D6E100E0E6E0F6A106A116A1D
:106250000D5008E0E86CD8900E360F361036113627
:10626000010FFAE30EC0E5FF0FC0F4FF10C0F6FF08
:1062700011C0F7FF01C0E9FF0BC0F3FF0C50D9ECD0
:106280006EF0006A5FD1E56AE56AE56AE56A090EC3
:10629000E56E64EC61F0016E050EE1260150D8A4B4
:1062A00051D1E56A100EE56E800EE56E080EE56EC2
:1062B000510EE56EF8EC63F0016EF3CF0BF0050EB6
:1062C000E12601500B10D8B43DD10801E9A34AD012
:1062D00004500C6E03500B6E0250016E3F0E08010D
:1062E0005B150E6A0F6E0F260E34106E800E5C1555
:1062F0000D6E0E6A0D340E340D6E0E6A0E360F5092
:106300000D2610500E220D4A0E2A5E45E844030B5E
:106310000F6E106AFF0E0F2610220DC011F00EC076
:1063200012F00F500DE007E6E86CD89011361236E7
:10633000010FFCE305D0D89012321132010FFCE3BB
:1063400011C00DF012C00EF00DC0E5FF0EC0F4FF3D
:10635000F66AF76A01C0E9FF0BC0F3FF0C50D9ECF5
:106360006EF03FD07C0E08015B15016E0140E840E5
:106370003F0B016E0B6A014A0B2A030E5C150D6A76
:106380000E6E0E260D340F6ED8900E360F36D89046
:106390000E360F36E00E5C150C6E0C38E840070B1D
:1063A0000E260D500F220E4A0F2A0F50E56E0E508A
:1063B000E56E0B50E56E0150E56E2BEC6BF0016E57
:1063C000F3CF0BF0040EE12601C0E5FF0BC0F4FF94
:1063D000F66AF76A02C0E9FF03C0F3FF0450D9EC84
:1063E0006EF0006AAFD00801E951016E01C0E5FF0F
:1063F00008C0E9FF09C0F3FF0A505FEC6FF0006AC4
:10640000A1D0E56AE56AE56AE56A090EE56E64EC25
:1064100061F0016E050EE1260150D8A493D0E56A23
:10642000100EE56E0750E56E0650E56E0550E56E00
:10643000F8EC63F0016EF3CF02F0050EE126015097
:106440000210D8B47FD0006A7DD0E56AE56AE56ABB
:10645000E56A0A0EE56E64EC61F0016E050EE12658
:106460000150D8A46FD0E56A100EE56E0750E56EB6
:106470000650E56E0550E56EF8EC63F0016EF3CF63
:1064800002F0050EE12601500210D8B45BD0006A7C
:1064900059D0E56AE56AE56AE56A3A0EE56E64ECAC
:1064A00061F0016E050EE1260150D8A44BD0016ABF
:1064B00001500524026EE86A0620036EE86A072090
:1064C000046EFF0EE5688BEC6EF0086EE65208C0B5
:1064D000E5FF02C0E9FF03C0F3FF04505FEC6FF07B
:1064E000012A040E015CE4E3006A2CD00801E9A54E
:1064F00029D0E56AE56AE56AE56A8D0EE56E64EC29
:1065000061F0016E050EE12601501CE1FF0EE56809
:106510008BEC6EF0E652E56A400EE56E0750E56ED4
:106520000650E56E0550E56EF8EC63F0016EF3CFB2
:1065300002F0050EE1260150021004E0006A02D0CC
:10654000040E006E72EC6FF00050E4CF16F0E4CF52
:1065500015F0E4CF14F0E4CF13F0E4CF12F0E4CF61
:1065600011F0E4CF10F0E4CF0FF0E4CF0EF0E4CF61
:106570000DF0E4CF0CF0E4CF0BF0E4CF0AF0E4CF61
:1065800009F0E4CF08F0E4CF07F0E4CF06F0E4CF61
:1065900005F0E4CF04F0E4CF03F0E4CF02F0E4CF61
:1065A00001F0E4CF00F0E4CFD9FF120000C0E5FF16
:1065B00001C0E5FF02C0E5FF03C0E5FF04C0E5FF41
:1065C00005C0E5FF06C0E5FF07C0E5FF08C0E5FF21
:1065D00009C0E5FF0AC0E5FF0BC0E5FF0CC0E5FF01
:1065E000000EE56EC10EE56E9E0EE56E06EC6CF0DB
:1065F000030EE126800EE56EE56E040EE56E000EDC
:10660000E56EB8EC66F0040EE126040E016E000E95
:10661000006E800E026EE56A640EE56E03EC6DF0AE
:10662000E652E65200C0E9FF01C0F3FF0250EAEC77
:106630006EF0036E002A02E3014A022A0350660A42
:1066400002E0BCEF35F000C0E9FF01C0F3FF0250EB
:10665000EAEC6EF0036E002A02E3014A022A0350BC
:10666000640A01E151D10350690A0EE003506C0A3B
:1066700001E14BD003506F0A01E1B1D00350770A1A
:1066800001E1B5D1BCEF35F0800EE56E0A0EE56E86
:10669000000EE56E000EE56A46EC68F0040EE12699
:1066A0000801EA51E56EE951E56E000EE56EC10E96
:1066B000E56EA20EE56E06EC6CF0050EE126000E0E
:1066C000E56EC10EE56EB60EE56E06EC6CF0030EDF
:1066D000E126000EE56EC10EE56ED00EE56E800E71
