:020000040000FA
:06000000F86AF76A03D064
:0800080004EF04F00F0EC16EBD
:060010009298898879D264
:040018000CEF04F0F5
:02001C000000E2
:06003A00120100020000AB
:100040000040D8043C000100010200010902220026
:1000500001010080320904000001030000000921B1
:100060000101000122170007058103400001050C72
:100070000900A1020900954075088100090095401A
:1000800075089100C0040309040C03520065006761
:0500900000690073008F
:0A009600B2D8A688B9D8400EF626AD
:1000A000000EF722272FF8D71200A4D800EE68F030
:1000B0000900F5CFEEFF002FFBD79CD800EE28F00B
:1000C0000A00EECFF5FF0F00012B01BBA0D8002FD7
:1000D000F8D701679CD8120015D800EE68F0090027
:1000E000F5CFEEFF002FFBD7F86A12000BD800EE19
:1000F00028F0A6888CD8EECFF5FF0D00002FFBD797
:1001000086D8F2D7200EF86EF76AF66A080E006FEE
:10011000676F120015D800EE28F0EECFA8FF78D850
:10012000A6B2FED7A92A002FF8D7120009D800EEF0
:1001300068F0A680A8CFEEFFA92A002FFAD71200F8
:100140002451A96E2751006F676FA66A12002251D1
:1001500019E0626F23C063F0226BE84EA6D7E84E29
:10016000ACD7E84E98D7E84E0ED08A80E84E12D031
:10017000E84EB2D7E84EBAD7E84ED8D7E84ECAD73D
:10018000FF0E626F1200000E646F000E656F010EAD
:10019000666F12006D96006BE86AE82EFED7002F9E
:1001A000FBD7FF00E1CF03F0E2CF04F0D9CF05F099
:1001B000DACF06F000EE62F015EE40F0400EEFCF21
:1001C000E6FFEE6AE82EFBD703C0E1FF04C0E2FFC2
:1001D00005C0D9FF06C0DAFFA50E026B02D05A0E89
:1001E0000281A86E000EA96EA69E12D8A6B2FED7F6
:1001F000A694120027513C0B006F676F2551F76ED4
:10020000656F2451F66E646F1F0B016F1200A68E8E
:10021000A69CA684550EA76EAA0EA76EA682016B99
:100220001200140E6F6E696A080E6D6E6DBAFED7FD
:10023000686A110E696E020E096F1200686A7B0E01
:10024000696E6E6A160E706E68A602D06896FCD74C
:100250006D982EEC01F0030E096F1200000E0A6F6C
:1002600024EE00F0400EDC6E100EDC6E040EDC6E30
:1002700083E9880EDF6E84E8000EDF6E12006C509A
:10028000780B1AE110EE16F024EE10F0080EDECF17
:10029000E6FFE82EFCD724EE00F0000E6C6208D0DA
:1002A000DF503C0B340802E167D8120006D8120078
:1002B000040E6C6212000CD81200020E0A6306D003
:1002C00021D8C80EDFAC880EDF6E1200C7DF120027
:1002D00024EE04F0DFBEFED7040E096308D01851E7
:1002E0006E6EFF0BD8A4050ED8B4030E096F010E75
:1002F0000A6306D019D8C80EDFAC880E046F12004E
:10030000ADDF1200DC501E6F0D2714EE50F00FC051
:10031000EAFF0EC0E9FFE6CFEEFF1E2FFCD7E9CFC4
:100320000EF0EACF0FF01200400E0D6101D00D511A
:100330001F6FDF92DF90DC6E0D5F04EE50F014B1A2
:100340000FD01F5118E011C0E2FF10C0E1FFE6CF4F
:10035000EEFF1F2FFCD7E1CF10F0E2CF11F00BD052
:10036000F86AF76A1051F66E0900F5CFEEFF1F2FFD
:10037000FBD7F6CF10F01200000E0A6F156B0D6B55
:100380001651600BD8B404D02008D8B477D078D0F8
:10039000175117E0E84E22D0E806E84E1FD0E806D5
:1003A000E84E1DD0E84E1FD0E84E42D0E84E41D076
:1003B000E84E48D0E84E53D0E84E5AD0E84E5CD0D4
:1003C0005FD004EE50F0EE6AEE6A500E106F040E2D
:1003D000116F000E020E0D6F15814FD04ED015819A
:1003E000040E096F4AD015811951E84E0AD0E84E23
:1003F0000CD0E84E0ED0E84E16D0E84E15D0156B56
:100400003CD03A0E106F120E10D04C0E106F220E10
:100410000CD0185104E1850E106F040E03D0890E24
:10042000106F160E02D0EBD7EAD70D6F148125D0CE
:1004300024D015810B0E106F000E116F1491010E58
:100440000D6F1BD01581716A18510B6FFF0B04E003
:10045000060E096FABD802D0050E096F0ED01581BC
:100460000C0E106F000E116F1491010E0D6F05D060
:10047000158118C00CF001D000D003D0B3D804D03F
:1004800035D015B101D0FAD76D9815B101D02ED065
:1004900016AF1CD01C510D610D6F24EE04F044DF2B
:1004A000010E0A6F24EE03F0040EDD6E100EDD6EF9
:1004B000400EDD6E800EDD6E24EE07F0040EDD6E64
:1004C000500EDD6E81E9C80EDD6E0FD0020E0A6F90
:1004D00024EE05F0DD6AC80EDD6E040EDD6E500EF2
:1004E000DD6E400EDD6EC80EDD6E120024EE03F0F0
:1004F000040EDD6E100EDD6E400EDD6E840EDF6EBE
:1005000084E8DF6E6D98120092988988310ECD6E66
:100510009D8087DE15D81BDE55D8FF2F06D0772F9C
:1005200004D0770E776F100E891A9EA0F3D79E9095
:10053000292FF0D7CD6A6D6A899800EF04F0FF008B
:1005400068A405D069A403D06D92699468946DB2D3
:10055000120068A003D069A001D070DE68A809D09D
:1005600069A807D0698468986D82A19AA08A03005F
:10057000A09A68A203D069A201D0689C68AA07D09B
:1005800069AA05D070A002D069DE7090689A68A24E
:1005900003D069A201D06892020E0965120068A614
:1005A00004D069A602D06BDE689612001A0E716E36
:1005B0000401400E0E6F050E0F6F400E0C6F000110
:1005C000626B120062510DE024EE0CF0DEBE09D029
:1005D000E9DD400EDD6E400EDF16400EDF1A880E9C
:1005E000DF12120016511F0B0108D8A412001A5175
:1005F0000008D8A412001751060819E11951DF0F9D
:1006000005E0E84E09D0E84E0DD011D05E0E106F17
:10061000000E116F090E07D06E0E106F000E116FD5
:10062000170E01D021D00D6F158114811DD01651E8
:10063000600B200801E012001751E84E0BD0E84E85
:1006400013D0E84E11D0FA0F07E0E84E0DD0E84E77
:100650000BD00AD0000E05D0220E0E6F000E0F6FC9
:0A06600002D00D6F149115811200F5
:02080000FFD720
:020000040030CA
:0100000024DB
:010001004EB0
:0100020038C5
:010003001EDE
:010005008377
:01000600C138
:0100080008EF
:010009008076
:01000A000FE6
:01000B008074
:01000C000FE4
:01000D0000F2
:00000001FF
