:020000040000FA
:10000000E5EF04F00000120004EF06F000EF06F048
:020010001200DC
:080018000CEF06F000C0E5FF4B
:1000200001C0E5FF02C0E5FF03C0E5FF04C0E5FF36
:1000300005C0E5FF06C0E5FF07C0E5FF08C0E5FF16
:1000400009C0E5FF61C000F0000E026E650E016E92
:10005000800E036E8B840D010D6B64C0F8FF63C0CE
:10006000F7FF62C0F6FFA40EA66E60C004F0045055
:10007000FF0A03E15EEC04F07AD0045008E10001CD
:10008000626B050E636F040E0D010D6F70D004508E
:10009000010A23E101C005F002C006F003C007F029
:1000A00000C008F008C009F0080609500FE0090078
:1000B000F5CFE5FF05C0E9FF06C0F3FF0750DAEC16
:1000C00004F0052A02E3064A072AECD7050E0001D0
:1000D0006125056E0D010D6F4AD00450030A17E12A
:1000E00000C005F0000605500EE0A688550EA76E6C
:1000F000AA0EA76EA682A69800000F01040EF7268E
:10010000000EF822EDD7010E0D010D6F30D0045016
:10011000020A2DE1000161417F0B006E00C004F076
:100120000006045021E001C0E9FF02C0F3FF0350C4
:10013000ADEC04F0F56E012A02E3024A032A0D0039
:1001400001C0E9FF02C0F3FF0350ADEC04F0F56E0F
:10015000012A02E3024A032A0C00550EA76EAA0EDA
:10016000A76EA682F62ADAD7010E0D010D6F0D01DA
:100170000D5108E00CAD03D0880E0C6F03D0C80EF3
:100180000D010C6F400E0D01096F800E086FE4CF5A
:1001900009F0E4CF08F0E4CF07F0E4CF06F0E4CFB5
:1001A00005F0E4CF04F0E4CF03F0E4CF02F0E4CFB5
:1001B00001F0E4CF00F0120000C0E5FF01C0E5FF50
:1001C0006438E8441F0B010A05E164B48FD00EECDB
:1001D00000F08CD064B469D03C0E0D010015006EA7
:1001E0000040E8403F0B0D0A01E055D07F0E0D01A5
:1001F0000415046F7F0E0015006F0001AA6B00014B
:10020000AC6B0001A66BA76B0AEC03F00001AC51CC
:100210000BE1080E0D01016F000E026F050E036F5A
:10022000840E006F046F35D0050100AF24D006C5E1
:1002300000F007C501F00001A751015C02E1A651E1
:10024000005C04E200C0A6F001C0A7F00FEC02F0D1
:10025000020E0001AA6F080E0D01016F000E026F61
:10026000050E036F800E006F080E066F050E076FF8
:10027000C80E046F0ED0010E0001AA6F080E0D010A
:10028000016F080E026F050E036FC80E006F056B3D
:10029000046F65982BD00001AA51010A03E190EC8C
:1002A00002F024D0CDEC04F021D00F0138510CE144
:1002B0000001A851040A08E102C538FF0F013851B6
:1002C00003E1030E0001A86F0001AA51020A0CE12C
:1002D0000FEC02F00D0104AD03D0880E046F06D0C0
:1002E000C80E0D01046F02D0CDEC04F0E4CF01F094
:1002F000E4CF00F01200D9CFE5FFE1CFD9FF00C075
:10030000E5FF01C0E5FF02C0E5FF03C0E5FF04C053
:10031000E5FF05C0E5FF06C0E5FF020EDBCF00F0FC
:10032000030EDBCF01F0040EDBCF02F0050EDBCFB6
:1003300003F0005016E1000E066E080E056E260E44
:10034000046E04C0E5FF05C0F4FF06C0F6FF01C05F
:10035000E9FF02C0F3FF0350BEEC04F0F36A040EA1
:100360004DD00050010A16E1000E066E080E056E13
:100370002A0E046E04C0E5FF05C0F4FF06C0F6FFB8
:1003800001C0E9FF02C0F3FF0350BEEC04F0F36AC2
:10039000140E34D00050020A16E1000E066E080E4C
:1003A000056E3E0E046E04C0E5FF05C0F4FF06C0F6
:1003B000F6FF01C0E9FF02C0F3FF0350BEEC04F0FA
:1003C000F36A120E1BD00050030A16E1000E056EF0
:1003D000080E046E500E006E00C0E5FF04C0F4FF6E
:1003E00005C0F6FF01C0E9FF02C0F3FF0350BEECF9
:1003F00004F0F36A120E02D0F368E868E4CF06F066
:10040000E4CF05F0E4CF04F0E4CF03F0E4CF02F052
:10041000E4CF01F0E4CF00F0E4CFD9FF120000C038
:10042000E5FF01C0E5FF02C0E5FF03C0E5FF04C032
:10043000E5FF05C0E5FF06C0E5FF07C0E5FF000ECC
:100440000001A75D02E1080EA65D05E2A6C000F06E
:10045000A7C001F003D0080E006E016A0050000131
:10046000A65F0150A75BFC0E0D010415046F030E7F
:100470000114026E045102120250046F0050026E09
:10048000056F080E066F050E076F0001A16F080EBD
:10049000A06F800EA26F00C002F001C003F0FF0E3B
:1004A00000260122025003102AE0A0C002F0A1C0E1
:1004B00003F0A2C004F0A3C005F0A4C006F0A5C0DC
:1004C00007F005C0E9FF06C0F3FF0750ADEC04F0EC
:1004D000056E0001A32B03E3A43F01D0A52B05C0AB
:1004E000E5FF02C0E9FF03C0F3FF0450DAEC04F0BB
:1004F0000001A02BD0E3A13F01D0A22BCCD7E4CFA9
:1005000007F0E4CF06F0E4CF05F0E4CF04F0E4CF49
:1005100003F0E4CF02F0E4CF01F0E4CF00F01200EA
:1005200000C0E5FF01C0E5FF02C0E5FF03C0E5FF35
:1005300004C0E5FF05C0E5FF06C0E5FF07C0E5FF15
:10054000030E0D010015016A036E026A01CD00F071
:10055000005002120150031202500001A62703505E
:10056000A723050E0001A46F080EA36F800EA56FD0
:1005700002C000F003C001F000C002F001C003F0AF
:10058000FF0E00260122025003102AE0A0C002F054
:10059000A1C003F0A2C004F0A3C005F0A4C006F0FF
:1005A000A5C007F005C0E9FF06C0F3FF0750ADEC9A
:1005B00004F0056E0001A32B03E3A43F01D0A52B9B
:1005C00005C0E5FF02C0E9FF03C0F3FF0450DAEC09
:1005D00004F00001A02BD0E3A13F01D0A22BCCD787
:1005E0000D0100AD03D0880E006F03D0C80E0D01C1
:1005F000006FE4CF07F0E4CF06F0E4CF05F0E4CFDE
:1006000004F0E4CF03F0E4CF02F0E4CF01F0E4CF54
:1006100000F0120000C0E5FF05010051600BD8A4F6
:1006200059D001C500F00050050A09E1010E000192
:10063000AC6F040E0001A86F02C5A9F04BD00050AA
:10064000060A03E16DEC03F045D00050090A1DE1F4
:10065000010E0001AC6F02C5ABF00001AB5104E12B
:10066000040E0001A86F36D01E0E0F01276F400E3A
:100670000D010C6F096F600E0A6F000E0B6F880E74
:10068000086F050E0001A86F25D00050080A0FE181
:10069000010E0001AC6F000E0001A46FAB0EA36F42
:1006A000800EA56F010E0001A66FA76B13D000503E
:1006B0000A0A10E1010E0001AC6F0501086B050E7E
:1006C0000001A46F080EA36F800EA56F010E00013C
:1006D000A66FA76BE4CF00F0120000C0E5FF050194
:1006E0000051800A01E045D003C500F00050010A26
:1006F0000FE1010E0001AC6F000E0001A56F070EA7
:10070000A46FF40EA36F120E0001A66FA76B31D079
:100710000050020A17E1010E0001AC6F000E00014B
:10072000A56F080EA46F060EA36F080EF66E080ED6
:10073000F76E000EF86E0900F5CFA6F00900F5CFB0
:10074000A7F017D00050030A14E1010E0001AC6FAE
:10075000800EE56E000EE56EA30EE56E05010251FA
:10076000E56E7BEC01F00001A66FF3CFA7F0040E5D
:10077000E126E4CF00F012009B8C580E006E020EB2
:10078000016E00C002F001C003F0FF0E002601223E
:1007900002500310F6E10F0148691F0E0F01496F67
:1007A00094948B849584D0A21FD0D0A01DD0D0BEAD
:1007B0001BD083B419D0140E0F01396F600E0D01D8
:1007C0000E6F000E0F6F0001AB6B0001A86BCE6ABD
:1007D000CF6A310ECD6E9BEC04F031EC04F09EA09C
:1007E000FAD79E908B74F7D7D082D080D08E06EC4B
:1007F00000F0120012010002FFFFFF08D804AAFE59
:1008000000050102030109022000010100A07D0989
:1008100004000002FFFFFF0007050102400000077F
:10082000058102400000040309041403530065001D
:1008300061004900630065004C0061006200120322
:10084000500069006E006700750069006E006F005F
:100850001203310038004600340037004A003500EA
:100860003300020E0001A85D28E362A405D0659262
:1008700062A402D06294FCD765A201D01ED062A00F
:1008800003D081EC04F0629062A801D0629862AC5F
:1008900001D0629C62AA08D00F0126A104D0CDEC41
:1008A00004F00F012691629A030E0001A85D05E392
:1008B00062A603D0DCEC00F06296120000C0E5FFF7
:1008C00001C0E5FF02C0E5FF03C0E5FFCD6A659208
:1008D00065960068016800C002F001C003F0FF0ED9
:1008E0000026012202500310F6E18B9406EC00F082
:1008F000E4CF03F0E4CF02F0E4CF01F0E4CF00F066
:1009000012000F01366B626A0F01376B636A0F01C9
:10091000386B160E0F01266F658C659C62A602D09F
:100920006296FCD76598CDEC04F00001AB6B030E2A
:100930000001A86F120065B605D0656A6586010ED4
:100940000001A86F0001A851010A06E165BA04D0B0
:10095000626A020E0001A86F1200E8AE04D0F3CF65
:10096000EAFFEE501200E8BC03EF00F0E9CFF6FF1B
:10097000F3CFF7FFF86E0900F5501200E8AE09D08A
:10098000F3CFEAFFE4CFEEFFF4CFEEFFF6CFEEFFBA
:100990001200E8BC03EF00F012000001AA6B080E81
:1009A0000D01016F000E026F050E036F880E006FC0
:1009B000046B1200E8AE05D0F3CFEAFFE4CFEEFF00
:1009C0001200E8BC03EF00F0120011EEFEF021EE81
:1009D000FEF0BCEC03F0FFD7010004000000A8000B
:0609E00000000100000010
:020000040001F9
:08FFF800A6F79DFF62F880F1FD
:00000001FF
