:020000040000FA
:100C00002AEF1FF0689C120099EF21F00F0EC16EC1
:100C1000070EB46E12000000D4EF21F0D9CFE5FF2B
:100C2000E1CFD9FF00C0E5FF01C0E5FF02C0E5FF4D
:100C300003C0E5FF04C0E5FF05C0E5FF06C0E5FF12
:100C400007C0E5FF08C0E5FF09C0E5FF0AC0E5FFF2
:100C50000BC0E5FF0CC0E5FF0DC0E5FF0EC0E5FFD2
:100C60000FC0E5FF10C0E5FF11C0E5FF12C0E5FFB2
:100C700013C0E5FF14C0E5FF15C0E5FF16C0E5FF92
:100C800017C0E5FF18C0E5FF19C0E5FF020EDBCF76
:100C900000F0030EDBCF01F0040EDBCF02F0050EF7
:100CA000DBCF03F0060EDBCF04F0070EDBCF05F041
:100CB000080EDBCF06F0090EDBCF07F00A0EDBCF04
:100CC00008F0096A020E0A6E03C0E9FF04C0F3FFD0
:100CD000055094EC24F00B6E0B5002E1D4EF0AF0B7
:100CE0000C6A0B50250A02E0BBEF0AF00B6A0D6A92
:100CF000032A02E3044A052A03C0E9FF04C0F3FF04
:100D0000055094EC24F00E6E0E50D8B4D4EF0AF0D7
:100D10000E50250A02E1BBEF0AF00E502D0A06E143
:100D2000032A02E3044A052A010E0B6E03C00EF0EB
:100D300004C00FF005C010F00EC0E9FF0FC0F3FFB4
:100D4000105094EC24F0300A06E10E2A02E30F4A18
:100D5000102A0B82F1D70EC0E9FF0FC0F3FF10502D
:100D600094EC24F0116E300E115C13E33A0E115C1A
:100D700010E20D500A0DF3CF0DF0D00E11260D50DC
:100D8000126E115012240D6E0E2A02E30F4A102A21
:100D9000E2D70EC003F00FC004F010C005F00EC083
:100DA000E9FF0FC0F3FF105094EC24F02E0A34E159
:100DB0000E50010F036E000E0F20046E000E102067
:100DC000056E0A6A03C00EF004C00FF005C010F0F3
:100DD0000EC0E9FF0FC0F3FF105094EC24F0116E29
:100DE000300E115C13E33A0E115C10E20A500A0D4A
:100DF000F3CF0AF0D00E11260A50126E11501224B1
:100E00000A6E0E2A02E30F4A102AE2D70EC003F040
:100E10000FC004F010C005F003C0E9FF04C0F3FFE9
:100E2000055094EC24F00E6E660A01E040D00650A6
:100E3000040F0F6E000E0720106E000E0820116EBA
:100E40000FC006F010C007F011C008F0FC0E0F260E
:100E5000FF0E102211220FC0E9FF10C0F3FF115046
:100E600095EC23F00F6EF3CF10F0F4CF11F0E9CF33
:100E700012F00A50E56EE56A0B50E56E0D50E56E16
:100E80001250E56E1150E56E1050E56E0F50E56E94
:100E90000250E56E0150E56E0050E56ED8EC0EF0A4
:100EA0000F6E0B0EE1260F500926CEEF0AF00E5002
:100EB000730A01E045D00650030F0F6E000E0720A5
:100EC000106E000E0820116E0FC006F010C007F063
:100ED00011C008F0FD0E0F26FF0E102211220FC0C8
:100EE000E9FF10C0F3FF1150B5EC23F00F6EF3CF04
:100EF00010F0F4CF11F01010111006E1000E116E79
:100F00003C0E106E300E0F6E0B50E56E0D50E56E00
:100F10001150E56E1050E56E0F50E56E0250E56E13
:100F20000150E56E0050E56E9FEC16F00F6E080E56
:100F3000E1260950106E0F501024096ECEEF0AF012
:100F40000E506C0A06E1032A02E3044A052A010E48
:100F50000C6E03C0E9FF04C0F3FF055094EC24F0CD
:100F60000E6E750A01E06CD00C5023E00650040FA1
:100F70000F6E000E0720106E000E0820116E0FC0BD
:100F800006F010C007F011C008F0FC0E0F26FF0E8F
:100F9000102211220FC0E9FF10C0F3FF115095EC91
:100FA00023F00F6EF3CF10F0F4CF11F0E9CF12F071
:100FB00024D00650020F136E000E0720146E000E90
:100FC0000820156E13C006F014C007F015C008F015
:100FD000FE0E1326FF0E1422152213C0E9FF14C0C3
:100FE000F3FF155047EC24F0136EF3CF14F013C049
:100FF0000FF014C010F0116A126A610EE56EE56A16
:101000000B50E56E0D50E56EE56A0A0EE56E0C506C
:10101000E56E1250E56E1150E56E1050E56E0F5002
:10102000E56E0250E56E0150E56E0050E56EADECE8
:1010300011F0136E0E0EE12613500926CEEF0AF0C2
:101040000E50640A04E00E50690A01E075D00C509D
:1010500023E00650040F136E000E0720146E000EDE
:101060000820156E13C006F014C007F015C008F074
:10107000FC0E1326FF0E1422152213C0E9FF14C024
:10108000F3FF155095EC23F0136EF3CF14F0F4CF6B
:1010900015F0E9CF16F024D00650020F176E000E9F
:1010A0000720186E000E0820196E17C006F018C031
:1010B00007F019C008F0FE0E1726FF0E182219229D
:1010C00017C0E9FF18C0F3FF195047EC24F0176E62
:1010D000F3CF18F017C013F018C014F0156A166A91
:1010E00013C00FF014C010F015C011F016C012F0AC
:1010F000610EE56EE56A0B50E56E0D50E56E010E72
:10110000E56E0A0EE56E0C50E56E1250E56E11505C
:10111000E56E1050E56E0F50E56E0250E56E015021
:10112000E56E0050E56EADEC11F0136E0E0EE1268B
:1011300013500926CEEF0AF00E50780A04E00E5044
:10114000700A01E073D00C5023E00650040F136EB8
:10115000000E0720146E000E0820156E13C006F056
:1011600014C007F015C008F0FC0E1326FF0E142261
:10117000152213C0E9FF14C0F3FF155095EC23F0BE
:10118000136EF3CF14F0F4CF15F0E9CF16F024D09E
:101190000650020F176E000E0720186E000E082072
:1011A000196E17C006F018C007F019C008F0FE0E3F
:1011B0001726FF0E1822192217C0E9FF18C0F3FFE7
:1011C000195047EC24F0176EF3CF18F017C013F046
:1011D00018C014F0156A166A13C00FF014C010F08E
:1011E00015C011F016C012F0610EE56EE56A0B50E5
:1011F000E56E0D50E56EE56A100EE56E0C50E56E7D
:101200001250E56E1150E56E1050E56E0F50E56E10
:101210000250E56E0150E56E0050E56EADEC11F048
:10122000136E0E0EE12613500926B8D10E50580A3F
:1012300004E00E50500A01E073D00C5023E0065039
:10124000040F136E000E0720146E000E0820156E9A
:1012500013C006F014C007F015C008F0FC0E1326EA
:10126000FF0E1422152213C0E9FF14C0F3FF15501E
:1012700095EC23F0136EF3CF14F0F4CF15F0E9CF13
:1012800016F024D00650020F176E000E0720186EBD
:10129000000E0820196E17C006F018C007F019C01C
:1012A00008F0FE0E1726FF0E1822192217C0E9FFBC
:1012B00018C0F3FF195047EC24F0176EF3CF18F065
:1012C00017C013F018C014F0156A166A13C00FF097
:1012D00014C010F015C011F016C012F0410EE56EEA
:1012E000E56A0B50E56E0D50E56EE56A100EE56E91
:1012F0000C50E56E1250E56E1150E56E1050E56E23
:101300000F50E56E0250E56E0150E56E0050E56E3F
:10131000ADEC11F0136E0E0EE126135009263ED1EE
:101320000E50620A01E073D00C5023E00650040F07
:10133000136E000E0720146E000E0820156E13C0E9
:1013400006F014C007F015C008F0FC0E1326FF0EBF
:101350001422152213C0E9FF14C0F3FF155095ECB9
:1013600023F0136EF3CF14F0F4CF15F0E9CF16F09D
:1013700024D00650020F176E000E0720186E000EC4
:101380000820196E17C006F018C007F019C008F041
:10139000FE0E1726FF0E1822192217C0E9FF18C0EB
:1013A000F3FF195047EC24F0176EF3CF18F017C075
:1013B00013F018C014F0156A166A13C00FF014C0A9
:1013C00010F015C011F016C012F0610EE56EE56A5E
:1013D0000B50E56E0D50E56EE56A020EE56E0C50A1
:1013E000E56E1250E56E1150E56E1050E56E0F502F
:1013F000E56E0250E56E0150E56E0050E56EADEC15
:1014000011F0136E0E0EE12613500926C7D00E50B0
:101410006F0A01E073D00C5023E00650040F136EE6
:10142000000E0720146E000E0820156E13C006F083
:1014300014C007F015C008F0FC0E1326FF0E14228E
:10144000152213C0E9FF14C0F3FF155095EC23F0EB
:10145000136EF3CF14F0F4CF15F0E9CF16F024D0CB
:101460000650020F176E000E0720186E000E08209F
:10147000196E17C006F018C007F019C008F0FE0E6C
:101480001726FF0E1822192217C0E9FF18C0F3FF14
:10149000195047EC24F0176EF3CF18F017C013F073
:1014A00018C014F0156A166A13C00FF014C010F0BB
:1014B00015C011F016C012F0610EE56EE56A0B5012
:1014C000E56E0D50E56EE56A080EE56E0C50E56EB2
:1014D0001250E56E1150E56E1050E56E0F50E56E3E
:1014E0000250E56E0150E56E0050E56EADEC11F076
:1014F0000C6E0E0EE1260C50092650D00E50630AD9
:1015000001E04CD00650020F0C6E000E07200E6E4C
:10151000000E08200F6E0CC006F00EC007F00FC0C2
:1015200008F0FE0E0C26FF0E0E220F220CC0E9FF63
:101530000EC0F3FF0F5047EC24F00101366F376BFC
:101540000B50E56E0D50E56E800EE56E010EE56EFA
:10155000360EE56E0250E56E0150E56E0050E56E08
:101560009FEC16F00B6E080EE12609500C6E0B5026
:101570000C24096E13D003C0E9FF04C0F3FF05502B
:1015800094EC24F0E56E0250E56E0150E56E0050DB
:10159000E56E68EC1DF0040EE126092A032A02E339
:1015A000044A052A64EF06F000500110021014E00E
:1015B00000C0E9FF01C0F3FF0250B5EC23F0006E5C
:1015C000F3CF01F0F4CF02F0E56A00C0E9FF01C0FB
:1015D000F3FF02500CEC25F00950E4CF19F0E4CFF2
:1015E00018F0E4CF17F0E4CF16F0E4CF15F0E4CF15
:1015F00014F0E4CF13F0E4CF12F0E4CF11F0E4CF15
:1016000010F0E4CF0FF0E4CF0EF0E4CF0DF0E4CF14
:101610000CF0E4CF0BF0E4CF0AF0E4CF09F0E4CF14
:1016200008F0E4CF07F0E4CF06F0E4CF05F0E4CF14
:1016300004F0E4CF03F0E4CF02F0E4CF01F0E4CF14
:1016400000F0E4CFD9FF120000C0E5FF01C0E5FFC4
:1016500002C0E5FF03C0E5FF04C0E5FF05C0E5FFEC
:1016600006C0E5FF07C0E5FF08C0E5FF09C0E5FFCC
:101670000AC0E5FF500E006E480E016E430E026E6A
:101680004D0E036E0101476B800EE56E040EE56E94
:10169000C00EE56E02EC23F00101476F030EE12658
:1016A0004751F2E0C1C404F0C2C405F0E56A060E79
:1016B000E56E90EC14F0E652E652030EE56EE80E8D
:1016C000E56ED7EC22F0E652E652010EE56E050E0D
:1016D000E56E90EC14F0E652E6520401C0516A0A3D
:1016E00001E066D0020EE56E000EE56E3C0EE56E82
:1016F000740EE56E76EC22F0040EE126010EE56E26
:10170000030EE56E90EC14F0E652E652000EE56E24
:10171000040EE56E2AEC23F0E652E652000EE56E6A
:10172000030EE56E90EC14F0E652E652066A010EE6
:10173000E56EE56E90EC14F0E652E652010E0014F0
:10174000076E086A096A0A6A0750010A06E108502A
:1017500004E1095002E10A5001E009D0010EE56EF2
:10176000020EE56E90EC14F0E652E65208D0000E40
:10177000E56E020EE56E90EC14F0E652E652000EB5
:10178000E56E010EE56E90EC14F0E652E652D8904C
:101790000332023201320032062A200E065CC7E311
:1017A000010EE56E030EE56E90EC14F0E652E65283
:1017B0000401C0516E0A29E1020EE56E000EE56ECD
:1017C0003C0EE56E740EE56E76EC22F0040EE1261A
:1017D000E56A010EE56E90EC14F0E652E652E56A19
:1017E000020EE56E90EC14F0E652E652010EE56E44
:1017F000030EE56E90EC14F0E652E652E56A040E34
:10180000E56E2AEC23F0E652E652C0C400F0005028
:10181000010A01E055D00E0EE56E3F0EE56E000E9A
:10182000E56A3CEC18F0030EE1266E0EE56EF80E4C
:10183000E56E000EE56A3CEC18F0030EE1260E0E94
:10184000E56EE568000EE56A3CEC18F0030EE12653
:101850006E0EE56EF70EE56E000EE56A3CEC18F0D4
:10186000030EE1260E0EE56EFE0EE56E000EE56A35
:101870003CEC18F0030EE1266E0EE56EF60EE56EFA
:10188000000EE56A3CEC18F0030EE126E56AE56A15
:10189000090EE56E3CEC18F0030EE126A7EC22F0F1
:1018A00001013F6FE56AE56A090EE56E3CEC18F050
:1018B000030EE126A7EC22F00101486FAFEF0EF016
:1018C0000050030A01E0ACD0010148514C0A04E089
:1018D00001014851580A05E1010E016E800E026EA9
:1018E00004D03F0E016E8F0E026E0E0EE56E3C0EA2
:1018F000E56E000EE56A3CEC18F0030EE1266E0E74
:10190000E56EF80EE56E000EE56A3CEC18F0030E8D
:10191000E1260E0EE56E000EE56AE56A3CEC18F075
:10192000030EE1266E0EE56EF70EE56E000EE56A1B
:101930003CEC18F0030EE1260E0EE56E050EE56E8A
:10194000000EE56A3CEC18F0030EE1266E0EE56E23
:10195000F60EE56E000EE56A3CEC18F0030EE1268B
:101960000150E56E0150E56E0C0EE56E3CEC18F092
:10197000030EE1260E0EE56E3C0EE56E000EE56AE6
:101980003CEC18F0030EE1266E0EE56EF80EE56EE7
:10199000000EE56A3CEC18F0030EE1260E0EE56E33
:1019A000000EE56AE56A3CEC18F0030EE1266E0EC7
:1019B000E56EF70EE56E000EE56A3CEC18F0030EDE
:1019C000E1260E0EE56E040EE56E000EE56A3CECB7
:1019D00018F0030EE1266E0EE56EF60EE56E000EB3
:1019E000E56A3CEC18F0030EE1260250E56E025069
:1019F000E56E0C0EE56E3CEC18F0030EE126000ED1
:101A0000E56AE56AE56A3CEC18F0030EE126000E93
:101A1000E56AE56AE56A3CEC18F0030EE1269FD121
:101A20000050020A01E0D4D0010148514C0A04E000
:101A300001014851580A0BE1840EE56EA60EE56ED1
:101A4000000EE56A3CEC18F0030EE12614D08E0E71
:101A5000E56EA60EE56E000EE56A3CEC18F0030E8E
:101A6000E1269C0EE56EA60EE56E000EE56A3CECE6
:101A700018F0030EE1260E0EE56E000EE56AE56A2B
:101A80003CEC18F0030EE1266E0EE56EF80EE56EE6
:101A9000000EE56A3CEC18F0030EE1260E0EE56E32
:101AA000000EE56AE56A3CEC18F0030EE1266E0EC6
:101AB000E56EF70EE56E000EE56A3CEC18F0030EDD
:101AC000E1260E0EE56E000EE56AE56A3CEC18F0C4
:101AD000030EE1266E0EE56EF60EE56E000EE56A6B
:101AE0003CEC18F0030EE126016A04C002F0036A20
:101AF000FE0E0226D8A0030601C006F0076A0750B2
:101B0000800FF36E0350800FF35C02E10250065C1D
:101B100029E2050E0124026E036AC00E0226040E9D
:101B2000032202C0E9FF03C0EAFFEFCF02F0060E76
:101B30000124036E066AC00E0326040E062203C0AB
:101B4000E9FF06C0EAFFEFCF03F00350E56E025055
:101B5000E56E0D0EE56E3CEC18F0030EE126012A51
:101B6000012AC3D7030E0424016E026AC00E0126A7
:101B7000040E022201C0E9FF02C0EAFFEFCF01F02C
:101B8000040E0424026E036AC00E0226040E032211
:101B900002C0E9FF03C0EAFFEFCF02F00250E56E9A
:101BA0000150E56E0F0EE56E3CEC18F0030EE126D9
:101BB000000EE56AE56AE56A3CEC18F0030EE126E2
:101BC00074EC20F0050EE56E74EC23F0E652C7D0FD
:101BD0000050070A01E0C3D0010EE56E050EE56E68
:101BE00090EC14F0E652E652010148514C0A04E030
:101BF00001014851580A27E1840EE56EA60EE56EF4
:101C0000000EE56A3CEC18F0030EE126880EE56E46
:101C1000A60EE56E000EE56A3CEC18F0030EE12618
:101C2000820EE56EA60EE56E000EE56A3CEC18F03D
:101C3000030EE126000EE56AE56AE56A3CEC18F061
:101C4000030EE12614D08E0EE56EA60EE56E000E94
:101C5000E56A3CEC18F0030EE1268C0EE56EA60E4C
:101C6000E56E000EE56A3CEC18F0030EE1260E0E60
:101C7000E56E300EE56E000EE56A3CEC18F0030EE2
:101C8000E1266E0EE56EF80EE56E000EE56A3CECA0
:101C900018F0030EE1260E0EE56E000EE56AE56A09
:101CA0003CEC18F0030EE1266E0EE56EF70EE56EC5
:101CB000000EE56A3CEC18F0030EE1260E0EE56E10
:101CC000000EE56AE56A3CEC18F0030EE1266E0EA4
:101CD000E56EF60EE56E000EE56A3CEC18F0030EBC
:101CE000E126006A0450005C3AE2050E0024016E11
:101CF000026AC00E0126040E022201C0E9FF02C0E2
:101D0000EAFFEFCF01F00150E56EE56E0F0EE56ED4
:101D10003CEC18F0030EE126000EE56AE56AE56A80
:101D20003CEC18F0030EE12674EC20F00050052482
:101D3000016E0E0EE56E0150E56E000EE56A3CEC9C
:101D400018F0030EE1266E0EE56EF60EE56E000E3F
:101D5000E56A3CEC18F0030EE126002AC3D7010126
:101D600048514C0A04E001014851580A0AE1940E16
:101D7000E56EA60EE56E000EE56A3CEC18F0030E6B
:101D8000E126E4CF0AF0E4CF09F0E4CF08F0E4CF95
:101D900007F0E4CF06F0E4CF05F0E4CF04F0E4CFA1
:101DA00003F0E4CF02F0E4CF01F0E4CF00F0120042
:101DB000D9CFE5FFE1CFD9FF00C0E5FF01C0E5FFC6
:101DC00002C0E5FF03C0E5FF04C0E5FF05C0E5FF75
:101DD00006C0E5FF07C0E5FF08C0E5FF09C0E5FF55
:101DE0000AC0E5FF0BC0E5FF0CC0E5FF0DC0E5FF35
:101DF0000EC0E5FF0FC0E5FF10C0E5FF11C0E5FF15
:101E000012C0E5FF13C0E5FF14C0E5FF15C0E5FFF4
:101E100016C0E5FF17C0E5FF18C0E5FF19C0E5FFD4
:101E20001AC0E5FF1BC0E5FF1CC0E5FF1DC0E5FFB4
:101E30001EC0E5FF1FC0E5FF20C0E5FF020EDBCF9F
:101E400000F0030EDBCF01F0040EDBCF02F0050E35
:101E5000DBCF03F0060EDBCF04F0070EDBCF05F07F
:101E6000080EDBCF06F0090EDBCF07F00A0EDBCF42
:101E700008F00C0EDBCF09F00A6A0B6A0C6A0D6AD7
:101E80000E6A0F6A106A116A010E136E0C0E126E42
:101E9000800E146E010E166E180E156E800E176EE3
:101EA000186A0B0E196E03500101246F0450256F40
:101EB0000550266F0650276FD88027AFD89023E3B0
:101EC000075012E008A210D02D0EE56E0250E56E0C
:101ED0000150E56E0050E56E68EC1DF0040EE12641
:101EE000010E186E07060FD02D0EE56E12C0E9FF29
:101EF00013C0F3FF14500CEC25F0122A02E3134A2E
:101F0000142A0A0E196E010126352735036E046A5C
:101F1000810E03262451046E2551056E7F0E261571
:101F2000066E1A6A068E0350800F610F04E203509A
:101F3000800F970F1FE2690E01010C6F6E0E0D6F7F
:101F4000660E0E6F0F6B0850E56E0750E56E800E43
:101F5000E56E010EE56E0C0EE56E0250E56E015069
:101F6000E56E0050E56E9FEC16F01B6E080EE12644
:101F70001B50AED10350800F690F25E303C01BF047
:101F80001C6A03BE1C68E90E1B26D8A01C0604C0F0
:101F90000AF005C00BF006C00CF01AC00DF01B5083
:101FA00011E009E6E86CD8900A360B360C360D368F
:101FB000010FFAE37CD0D8900D320C320B320A328A
:101FC000010FFAE374D0D88003AED890D8B04AD0CD
:101FD00003C01BF01C6A03BE1C681B5017081D6E53
:101FE000000E1C5404C00AF005C00BF006C00CF033
:101FF0001AC00DF01D5011E009E6E86CD8900D32C2
:102000000C320B320A32010FFAE307D0D8900A36AD
:102010000B360C360D36010FFAE31B4A1C2A04C09E
:102020001DF005C01EF006C01FF01AC020F01B50A6
:1020300011E009E6E86CD8901D361E361F362036B2
:10204000010FFAE307D0D89020321F321E321D3222
:10205000010FFAE31D500E6E1E500F6E1F50106ED2
:10206000116A25D01A6A1B6A03BE1B68034A1B2A21
:102070001B1E036CD8B41B2A04C00EF005C00FF061
:1020800006C010F01AC011F0035011E009E6E86C28
:10209000D890113210320F320E32010FFAE307D00E
:1020A000D8900E360F3610361136010FFAE30A506B
:1020B0000B100C100D100FE1300EE56E12C0E9FF91
:1020C00013C0F3FF14500CEC25F0122A02E3134A5C
:1020D000142A190678D015C003F016C004F017C0F2
:1020E00005F0066A19C015F00A500B100C100D10FF
:1020F000D8B43CD0E56AE56AE56A0A0EE56E0D5093
:10210000E56E0C50E56E0B50E56E0A50E56EEBEC9B
:1021100018F0166E080EE126300E162616C0E5FFE2
:1021200003C0E9FF04C0F3FF05500CEC25F0032ABF
:1021300002E3044A052AE56AE56AE56A0A0EE56EE5
:102140000D50E56E0C50E56E0B50E56E0A50E56ED5
:10215000BEEC1AF00A6EF3CF0BF0F4CF0CF0E9CF1F
:102160000DF0080EE126062A1506BED715C019F097
:1021700012C00AF013C00BF014C00CF006C00DF032
:1021800006060D501AE0FF0E03260422052203C0A6
:10219000E9FF04C0F3FF055094EC24F00D6E0DC070
:1021A000E5FF0AC0E9FF0BC0F3FF0C500CEC25F073
:1021B0000A2AE4E30B4A0C2AE1D70AC012F00BC04A
:1021C00013F00CC014F0070E095C02E3060E096E52
:1021D0000950195CD8A019C009F0010E095CD8A0FB
:1021E00057D02E0EE56E12C0E9FF13C0F3FF145056
:1021F0000CEC25F0122A02E3134A142A12C003F051
:1022000013C004F014C005F0066A0950065C3AE2F7
:102210000E500E240A6E0F340B6E10340C6E1134F7
:102220000D6E0A500A260B360C360D360A500A2659
:102230000B360C360D360E500E24156E0F34166EFE
:102240001034176E1134196E15500A240E6E165084
:102250000B200F6E17500C20106E19500D200A6EB7
:10226000300E0A260AC0E5FF03C0E9FF04C0F3FFF1
:1022700005500CEC25F0032A02E3044A052A116AF2
:10228000062AC3D703C012F004C013F005C014F02F
:10229000E56A12C0E9FF13C0F3FF14500CEC25F0FF
:1022A0000850E56E0750E56E800EE56E010EE56E96
:1022B0000C0EE56E0250E56E0150E56E0050E56EC5
:1022C0009FEC16F0006E080EE12618500026005014
:1022D000E4CF20F0E4CF1FF0E4CF1EF0E4CF1DF0F8
:1022E000E4CF1CF0E4CF1BF0E4CF1AF0E4CF19F0F8
:1022F000E4CF18F0E4CF17F0E4CF16F0E4CF15F0F8
:10230000E4CF14F0E4CF13F0E4CF12F0E4CF11F0F7
:10231000E4CF10F0E4CF0FF0E4CF0EF0E4CF0DF0F7
:10232000E4CF0CF0E4CF0BF0E4CF0AF0E4CF09F0F7
:10233000E4CF08F0E4CF07F0E4CF06F0E4CF05F0F7
:10234000E4CF04F0E4CF03F0E4CF02F0E4CF01F0F7
:10235000E4CF00F0E4CFD9FF1200D9CFE5FFE1CF01
:10236000D9FF00C0E5FF01C0E5FF02C0E5FF03C0E3
:10237000E5FF04C0E5FF05C0E5FF06C0E5FF07C0B7
:10238000E5FF08C0E5FF09C0E5FF0AC0E5FF0BC097
:10239000E5FF0CC0E5FF0DC0E5FF0EC0E5FF0FC077
:1023A000E5FF10C0E5FF11C0E5FF12C0E5FF13C057
:1023B000E5FF14C0E5FF15C0E5FF16C0E5FF17C037
:1023C000E5FF18C0E5FF19C0E5FF1AC0E5FF1BC017
:1023D000E5FF020EDBCF00F0030EDBCF01F0040EB1
:1023E000DBCF02F0050EDBCF03F0060EDBCF04F0EF
:1023F000070EDBCF05F0080EDBCF06F0090EDBCFB2
:1024000007F00A0EDBCF08F00B0EDBCF09F00C0E45
:10241000DBCF0AF00D0EDBCF0BF00F0EDBCF0CF095
:102420000D6A0E6A03C00FF004C010F005C011F071
:1024300006C012F003500410051006101BE1300E08
:102440000101006F016B0B50E56E0A50E56E800EC6
:10245000E56E010EE56E000EE56E0250E56E015070
:10246000E56E0050E56E9FEC16F0136E080EE12647
:102470001350ECD0095036E008500A0A33E10750F7
:102480001CE00350096E0450136E0550146E065084
:10249000156ED88015AED89010E3010E0D6E151C88
:1024A000126E141C116E131C106E091C0F6E0F2A75
:1024B00004E1102A02E1114A122A075013E1D880E0
:1024C00004AED8900FE3010E0D6E041E036CD8B459
:1024D000042A03C00FF004C010F0E86A04BEFF0E27
:1024E000116E126E010E046E0B0E036E800E056EE1
:1024F000E56A03C0E9FF04C0F3FF0CEC25F003C05C
:1025000006F004C007F005C009F00F5010101110BC
:102510001210D8B45AD008C013F0146A156A166A9B
:10252000E56AE56AE56A1350E56E1250E56E1150F2
:10253000E56E1050E56E0F50E56EEBEC18F0176E7F
:10254000F3CF18F0F4CF19F0E9CF1AF0080EE12616
:10255000000E1A5C08E1000E195C05E1000E185C23
:1025600002E10A0E175C06E30CC01BF0C60E1B2628
:102570001B501726FF0E062607220922300E1726AB
:1025800017C0E5FF06C0E9FF07C0F3FF09500CECD8
:1025900025F01650E56E1550E56E1450E56E13509B
:1025A000E56E1250E56E1150E56E1050E56E0F505D
:1025B000E56EBEEC1AF00F6EF3CF10F0F4CF11F011
:1025C000E9CF12F0080EE126A0D706C003F007C03D
:1025D00004F009C005F00D5021E00A5012E00BA2F2
:1025E00010D02D0EE56E0250E56E0150E56E0050E4
:1025F000E56E68EC1DF0040EE126010E0E6E0A0673
:102600000DD0FF0E0326042205222D0EE56E03C019
:10261000E9FF04C0F3FF05500CEC25F00B50E56E0C
:102620000A50E56E0550E56E0450E56E0350E56E08
:102630000250E56E0150E56E0050E56E9FEC16F01D
:10264000006E080EE1260E5000260050E4CF1BF06D
:10265000E4CF1AF0E4CF19F0E4CF18F0E4CF17F08C
:10266000E4CF16F0E4CF15F0E4CF14F0E4CF13F08C
:10267000E4CF12F0E4CF11F0E4CF10F0E4CF0FF08C
:10268000E4CF0EF0E4CF0DF0E4CF0CF0E4CF0BF08C
:10269000E4CF0AF0E4CF09F0E4CF08F0E4CF07F08C
:1026A000E4CF06F0E4CF05F0E4CF04F0E4CF03F08C
:1026B000E4CF02F0E4CF01F0E4CF00F0E4CFD9FFA3
:1026C0001200D9CFE5FFE1CFD9FF00C0E5FF01C07F
:1026D000E5FF02C0E5FF03C0E5FF04C0E5FF020E11
:1026E000DBCF00F0030EDBCF01F0560E0024026EAC
:1026F000036A3C0E0322046A000E042202C0F6FFA5
:1027000003C0F7FF04C0F8FF0900F5CF02F0050E83
:10271000025CD8B0F8D0FA6AFB6A0234FA36E834C0
:10272000FA36FC0B340FE56E270EFA22000EFB2260
:10273000E450F96EA4EF13F0D1EF13F0FEEF13F0B5
:102740002BEF14F058EF14F0015015E0380E002470
:10275000026E036A3C0E0322046A000E042202C0C9
:10276000F6FF03C0F7FF04C0F8FF0900F5CF02F041
:1027700002509212C8D0380E0024026E036A3C0E3A
:102780000322046A000E042202C0F6FF03C0F7FF12
:1027900004C0F8FF0900F5CF02F00250FF089216BE
:1027A000B2D0015015E0380E0024026E036A3C0ED0
:1027B0000322046A000E042202C0F6FF03C0F7FFE2
:1027C00004C0F8FF0900F5CF02F0025093129BD02D
:1027D000380E0024026E036A3C0E0322046A000EC7
:1027E000042202C0F6FF03C0F7FF04C0F8FF09008F
:1027F000F5CF02F00250FF08931685D0015015E086
:10280000380E0024026E036A3C0E0322046A000E96
:10281000042202C0F6FF03C0F7FF04C0F8FF09005E
:10282000F5CF02F0025094126ED0380E0024026EE2
:10283000036A3C0E0322046A000E042202C0F6FF63
:1028400003C0F7FF04C0F8FF0900F5CF02F0025003
:10285000FF08941658D0015015E0380E0024026E7F
:10286000036A3C0E0322046A000E042202C0F6FF33
:1028700003C0F7FF04C0F8FF0900F5CF02F00250D3
:10288000951241D0380E0024026E036A3C0E0322DA
:10289000046A000E042202C0F6FF03C0F7FF04C062
:1028A000F8FF0900F5CF02F00250FF0895162BD073
:1028B000015015E0380E0024016E026A3C0E02221F
:1028C000036A000E032201C0F6FF02C0F7FF03C037
:1028D000F8FF0900F5CF01F00150961214D0016AFB
:1028E000026A380E00263C0E0122000E022200C0B1
:1028F000F6FF01C0F7FF02C0F8FF0900F5CF00F0B6
:102900000050FF089616E4CF04F0E4CF03F0E4CFC4
:1029100002F0E4CF01F0E4CF00F0E4CFD9FF1200E1
:10292000D9CFE5FFE1CFD9FF00C0E5FF01C0E5FF4A
:1029300002C0E5FF03C0E5FF04C0E5FF020EDBCFE8
:1029400000F0030EDBCF01F0560E0024026E036A86
:102950003C0E0322046A000E042202C0F6FF03C0EC
:10296000F7FF04C0F8FF0900F5CF02F0050E025C86
:10297000D8B0F8D0FA6AFB6A0234FA36E834FA368C
:10298000FC0B920FE56E290EFA22000EFB22E4509A
:10299000F96ED3EF14F000EF15F02DEF15F05AEFAC
:1029A00015F087EF15F0015015E0380E0024026E87
:1029B000036A3C0E0322046A000E042202C0F6FFE2
:1029C00003C0F7FF04C0F8FF0900F5CF02F0025082
:1029D0008912C8D0380E0024026E036A3C0E03220E
:1029E000046A000E042202C0F6FF03C0F7FF04C011
:1029F000F8FF0900F5CF02F00250FF088916B2D0A7
:102A0000015015E0380E0024026E036A3C0E0322CA
:102A1000046A000E042202C0F6FF03C0F7FF04C0E0
:102A2000F8FF0900F5CF02F002508A129BD0380E51
:102A30000024026E036A3C0E0322046A000E042284
:102A400002C0F6FF03C0F7FF04C0F8FF0900F5CF8E
:102A500002F00250FF088A1685D0015015E0380EAA
:102A60000024026E036A3C0E0322046A000E042254
:102A700002C0F6FF03C0F7FF04C0F8FF0900F5CF5E
:102A800002F002508B126ED0380E0024026E036AE0
:102A90003C0E0322046A000E042202C0F6FF03C0AB
:102AA000F7FF04C0F8FF0900F5CF02F00250FF085D
:102AB0008B1658D0015015E0380E0024026E036AC0
:102AC0003C0E0322046A000E042202C0F6FF03C07B
:102AD000F7FF04C0F8FF0900F5CF02F002508C1296
:102AE00041D0380E0024026E036A3C0E0322046AB1
:102AF000000E042202C0F6FF03C0F7FF04C0F8FF77
:102B00000900F5CF02F00250FF088C162BD00150BF
:102B100015E0380E0024016E026A3C0E0222036AA0
:102B2000000E032201C0F6FF02C0F7FF03C0F8FF4A
:102B30000900F5CF01F001508D1214D0016A026A2C
:102B4000380E00263C0E0122000E022200C0F6FFC5
:102B500001C0F7FF02C0F8FF0900F5CF00F00050F8
:102B6000FF088D16E4CF04F0E4CF03F0E4CF02F0C9
:102B7000E4CF01F0E4CF00F0E4CFD9FF1200D9CFC9
:102B8000E5FFE1CFD9FF00C0E5FF01C0E5FF02C0CE
:102B9000E5FF03C0E5FF04C0E5FF05C0E5FF06C093
:102BA000E5FF07C0E5FF08C0E5FF020EDBCF00F040
:102BB000000E0101355D02E1400E345D05E234C1D5
:102BC00001F035C102F003D0400E016E026A0044EC
:102BD000FE0B036E0328040DF450036EF3CF00F0D8
:102BE000000E0024046E040E0320056E000E002467
:102BF000066E040E0320076E06C0E9FF07C0EAFF59
:102C0000EFCF06F0FC0E061604C0E9FF05C0EAFF90
:102C100006C0EFFF000E0024046E040E0320056EB4
:102C2000000E0024066E040E0320076E06C0E9FFA6
:102C300007C0EAFFEFCF06F0030E0214061204C02D
:102C4000E9FF05C0EAFF06C0EFFF000E0024046E96
:102C5000040E0320056E044A052A0150066E04C0C6
:102C6000E9FF05C0EAFF06C0EFFF000E0026040ED4
:102C70000322020E0026D8B0032A400E046E050E71
:102C8000056E00C0E9FF03C0EAFF04C0EEFF05C007
:102C9000EFFF01500101345F0250355B050E010169
:102CA0002F6F400E2E6F800E306F006A00C003F051
:102CB000046A0250045C02E10150035C2BE22EC165
:102CC00003F02FC104F030C105F02BC106F02CC178
:102CD00007F02DC108F006C0E9FF07C0F3FF085058
:102CE00094EC24F0066E01012B2B03E32C3F01D062
:102CF0002D2B06C0E5FF03C0E9FF04C0F3FF05501C
:102D00000CEC25F001012E2B03E32F3F01D0302BDB
:102D1000002ACCD7E4CF08F0E4CF07F0E4CF06F0E8
:102D2000E4CF05F0E4CF04F0E4CF03F0E4CF02F009
:102D3000E4CF01F0E4CF00F0E4CFD9FF1200D9CF07
:102D4000E5FFE1CFD9FF00C0E5FF01C0E5FF02C00C
:102D5000E5FF03C0E5FF04C0E5FF05C0E5FF06C0D1
:102D6000E5FF07C0E5FF08C0E5FF09C0E5FF0AC0B1
:102D7000E5FF0BC0E5FF0CC0E5FF0DC0E5FF0EC091
:102D8000E5FF020EDBCF00F0030EDBCF01F0040EF7
:102D9000DBCF02F0050EDBCF03F0060EDBCF04F035
:102DA000070EDBCF05F0080EDBCF06F0090EDBCFF8
:102DB00007F0086A200E096E065022E00A6A03C076
:102DC0000BF004C00CF005C00DF00BC0E9FF0CC007
:102DD000F3FF0D5094EC24F00E6E0E5006E00A2A1C
:102DE0000B2AF3E30C4A0D2AF0D706500A5C02E3E3
:102DF000066A02D00A50065E07A202D0300E096EA3
:102E000007B019D0076A06C00AF00A5005E107C0EA
:102E100008F00AC006F00FD00950E56E0250E56ECA
:102E20000150E56E0050E56E68EC1DF0040EE126E1
:102E3000072A0A06EAD708C007F003C0E9FF04C062
:102E4000F3FF055094EC24F0086E085012E008508F
:102E5000E56E0250E56E0150E56E0050E56E68ECDF
:102E60001DF0040EE126072A032AE7E3044A052A97
:102E7000E4D707C003F006C004F004500FE0095087
:102E8000E56E0250E56E0150E56E0050E56E68ECAF
:102E90001DF0040EE126032A0406EFD7F36A03505F
:102EA000E4CF0EF0E4CF0DF0E4CF0CF0E4CF0BF064
:102EB000E4CF0AF0E4CF09F0E4CF08F0E4CF07F064
:102EC000E4CF06F0E4CF05F0E4CF04F0E4CF03F064
:102ED000E4CF02F0E4CF01F0E4CF00F0E4CFD9FF7B
:102EE0001200D9CFE5FFE1CFD9FF00C0E5FF01C057
:102EF000E5FF02C0E5FF03C0E5FF020EDBCF00F0F7
:102F0000560E0024016E026A3C0E0222036A000E75
:102F1000032201C0F6FF02C0F7FF03C0F8FF09005B
:102F2000F5CF01F0050E015CD8B09AD0FA6AFB6AC1
:102F30000134FA36E834FA36FC0B4A0FE56E2F0EF0
:102F4000FA22000EFB22E450F96EAFEF17F0C9EF42
:102F500017F0E3EF17F0FDEF17F017EF18F0380E4A
:102F60000024016E026A3C0E0222036A000E032254
:102F700001C0F6FF02C0F7FF03C0F8FF0900F5CF5C
:102F800001F080500116015002E0010E6AD0E86A9B
:102F900068D0380E0024016E026A3C0E0222036AD9
:102FA000000E032201C0F6FF02C0F7FF03C0F8FFC6
:102FB0000900F5CF01F081500116015002E0010E29
:102FC00050D0E86A4ED0380E0024016E026A3C0EE2
:102FD0000222036A000E032201C0F6FF02C0F7FFBF
:102FE00003C0F8FF0900F5CF01F08250011601502F
:102FF00002E0010E36D0E86A34D0380E0024016EAB
:10300000026A3C0E0222036A000E032201C0F6FF90
:1030100002C0F7FF03C0F8FF0900F5CF01F08350AD
:103020000116015002E0010E1CD0E86A1AD0016AB4
:10303000026A380E00263C0E0122000E022200C059
:10304000F6FF01C0F7FF02C0F8FF0900F5CF00F05E
:1030500084500016005002E0010E03D0E86A01D04F
:10306000E86AE4CF03F0E4CF02F0E4CF01F0E4CF6C
:1030700000F0E4CFD9FF1200D9CFE5FFE1CFD9FFAF
:1030800000C0E5FF01C0E5FF02C0E5FF03C0E5FFAA
:10309000020EDBCF00F0030EDBCF01F0040EDBCF1E
:1030A00002F0036A010EE56EE56E90EC14F0E65254
:1030B000E652010E0014010A09E1010EE56E020E4E
:1030C000E56E90EC14F0E652E65208D0000EE56E84
:1030D000020EE56E90EC14F0E652E652000EE56E3C
:1030E000010EE56E90EC14F0E652E652D8900032F4
:1030F000032A040E035CD6E3006A010EE56EE56E5A
:1031000090EC14F0E652E652010E0114010A09E1B6
:10311000010EE56E020EE56E90EC14F0E652E652FA
:1031200008D0000EE56E020EE56E90EC14F0E6524B
:10313000E652000EE56E010EE56E90EC14F0E652DC
:10314000E652D8900132002A080E005CD6E3006AED
:10315000010EE56EE56E90EC14F0E652E652010EBB
:103160000214010A09E1010EE56E020EE56E90EC13
:1031700014F0E652E65208D0000EE56E020EE56E3F
:1031800090EC14F0E652E652000EE56E010EE56E8C
:1031900090EC14F0E652E652D8900232002A080E63
:1031A000005CD6E3E56A010EE56E90EC14F0E652A1
:1031B000E652E56A020EE56E90EC14F0E652E65235
:1031C000E4CF03F0E4CF02F0E4CF01F0E4CF00F06D
:1031D000E4CFD9FF1200D9CFE5FFE1CFD9FF00C07E
:1031E000E5FF01C0E5FF02C0E5FF03C0E5FF04C045
:1031F000E5FF05C0E5FF06C0E5FF07C0E5FF08C025
:10320000E5FF09C0E5FF0AC0E5FF020EDBCF00F0D5
:10321000030EDBCF01F0040EDBCF02F0050EDBCF97
:1032200003F0060EDBCF04F0070EDBCF05F0080E2F
:10323000DBCF06F0090EDBCF07F0086A045005105B
:103240000610071005E1E968F468F368E86847D0FC
:10325000096A0750800BE8440A6E0A501BE10450CB
:1032600004260536063607360750035C08E106508B
:10327000025C05E10550015C02E10450005C06E2DD
:10328000D890073206320532043204D0092A09C028
:1032900008F0DFD70750035C08E10650025C05E147
:1032A0000550015C02E10450005C08E30450005E3C
:1032B0000550015A0650025A0750035AD890073257
:1032C00006320532043208C009F008060950E2E16E
:1032D00003C0E9FF02C0F4FF01C0F3FF0050E4CFD8
:1032E0000AF0E4CF09F0E4CF08F0E4CF07F0E4CF30
:1032F00006F0E4CF05F0E4CF04F0E4CF03F0E4CF30
:1033000002F0E4CF01F0E4CF00F0E4CFD9FF1200E7
:10331000D9CFE5FFE1CFD9FF00C0E5FF01C0E5FF50
:1033200002C0E5FF03C0E5FF04C0E5FF05C0E5FFFF
:1033300006C0E5FF07C0E5FF08C0E5FF09C0E5FFDF
:10334000020EDBCF00F00044FE0B040DF450026EC1
:10335000F3CF00F0000E0024016E040E0220036E75
:1033600001C0E9FF03C0EAFFEFCF01F0030E011631
:103370000150056E046A000E0026040E0222004A67
:10338000022A00C0E9FF02C0EAFFEFCF00F0016AA5
:103390000450001205500112005001013427015061
:1033A0003523050E01012C6F400E2B6F800E2D6F03
:1033B000026A036A0150035C02E10050025C2CE2E5
:1033C0002EC104F02FC105F030C106F02BC107F06B
:1033D0002CC108F02DC109F007C0E9FF08C0F3FFB8
:1033E000095094EC24F0076E01012B2B03E32C3FD2
:1033F00001D02D2B07C0E5FF04C0E9FF05C0F3FF96
:1034000006500CEC25F001012E2B03E32F3F01D0D9
:10341000302B024A032ACED7E4CF09F0E4CF08F0DC
:10342000E4CF07F0E4CF06F0E4CF05F0E4CF04F0FA
:10343000E4CF03F0E4CF02F0E4CF01F0E4CF00F0FA
:10344000E4CFD9FF120000C0E5FF01C0E5FF02C0D4
:10345000E5FF03C0E5FF04C0E5FF05C0E5FF1F0E63
:1034600005010015006E02C501F0005012E1015087
:10347000010A01E076D0010E0101406F0501015102
:10348000030A04E1010E0101426F6BD00101426B9E
:1034900068D00050020A01E064D00F0E0501041547
:1034A000006E800E0415026E0150D8A45AD0005050
:1034B000D8B457D0010E0101406F040E036E000E08
:1034C000016E800E046E0050080DF450056EF3CFAF
:1034D00000F00050012401012E6F055003202F6FD2
:1034E000E86A05BEE8680420306F025005E0040E6B
:1034F0002E27000E2F23302305010151030A10E16E
:103500002EC100F02FC101F030C103F0840EE56E32
:1035100000C0E9FF01C0F3FF03500CEC25F021D0FF
:103520000250010A0FE12EC100F02FC101F030C19D
:1035300002F0E56A00C0E9FF01C0F3FF02500CECA5
:1035400025F00FD02EC100F02FC101F030C102F0E4
:10355000880EE56E00C0E9FF01C0F3FF02500CECDD
:1035600025F0E4CF05F0E4CF04F0E4CF03F0E4CF9E
:1035700002F0E4CF01F0E4CF00F01200D9CFE5FF74
:10358000E1CFD9FF00C0E5FF01C0E5FF02C0E5FFC4
:1035900003C0E5FF04C0E5FF05C0E5FF06C0E5FF89
:1035A00007C0E5FF08C0E5FF09C0E5FF0AC0E5FF69
:1035B0000BC0E5FF0CC0E5FF0DC0E5FF020EDBCF41
:1035C00000F0030EDBCF01F0040EDBCF02F0050E9E
:1035D000DBCF03F0060EDBCF04F0070EDBCF05F0E8
:1035E000080EDBCF06F0090EDBCF07F0086A096A88
:1035F0000A6A0B6A200E0C6E0350800BE8440D6EB5
:1036000000500026013602360336085008260936D7
:103610000A360B360D50D8A4088007500B5C08E121
:1036200006500A5C05E10550095C02E10450085CA3
:1036300009E30450085E0550095A06500A5A07501B
:103640000B5A00800C2ED8D703C0E9FF02C0F4FF4C
:1036500001C0F3FF0050E4CF0DF0E4CF0CF0E4CF55
:103660000BF0E4CF0AF0E4CF09F0E4CF08F0E4CFA8
:1036700007F0E4CF06F0E4CF05F0E4CF04F0E4CFA8
:1036800003F0E4CF02F0E4CF01F0E4CF00F0E4CFA8
:10369000D9FF1200D9CFE5FFE1CFD9FF00C0E5FF88
:1036A00001C0E5FF02C0E5FF03C0E5FF04C0E5FF80
:1036B00005C0E5FF06C0E5FF07C0E5FF08C0E5FF60
:1036C00009C0E5FF020EDBCF00F0030EDBCF01F0F7
:1036D000040EDBCF02F0036A01014351050A02E048
:1036E000E86A4BD0040108BF47D0400E095DD8A05E
:1036F00009C4E8FF046A04010951045C20E2045093
:103700000024056EE86A0120066EE86A0220076E52
:10371000800E0424086E096A050E092208C0E9FF1C
:1037200009C0EAFFEFCF08F008C0E5FF05C0E9FFD8
:1037300006C0F3FF07500CEC25F0042ADCD704C0C8
:1037400003F0400E04010815086F006A08BD002A46
:103750000050D880E866D890006A00360050010B0F
:10376000E840E840F46E0851BF0BF410086F400EBB
:10377000096F880E0811086F0350E4CF09F0E4CFF9
:1037800008F0E4CF07F0E4CF06F0E4CF05F0E4CF93
:1037900004F0E4CF03F0E4CF02F0E4CF01F0E4CF93
:1037A00000F0E4CFD9FF120000C0E5FF01C0E5FF43
:1037B00002C0E5FF03C0E5FF04C0E5FF05C0E5FF6B
:1037C0001F0E05010015006E0501406B416B005096
:1037D00013E1010E0101406F0101415104E0010EAE
:1037E00005014011406F01014251D8B44CD0020E86
:1037F00005014011406F47D00050010A04E1010E5D
:103800000101406F40D00050020A01E03CD00F0E91
:1038100005010415006E800E0415016E010E0101F4
:10382000406F040E036E000E026E800E046E005098
:10383000080DF450056EF3CF00F000500224010192
:103840002E6F055003202F6FE86A05BEE86804203C
:10385000306F015005E0040E2E27000E2F23302379
:103860002EC100F02FC101F030C102F000C0E9FF0D
:1038700001C0F3FF025094EC24F0006E00A403D0CA
:10388000010E0501406F010140510BE0050E0101E1
:103890002C6F400E2B6F800E2D6F020E0101346FC6
:1038A000356BE4CF05F0E4CF04F0E4CF03F0E4CFD0
:1038B00002F0E4CF01F0E4CF00F01200D9CFE5FF31
:1038C000E1CFD9FF00C0E5FF01C0E5FF02C0E5FF81
:1038D00003C0E5FF04C0E5FF05C0E5FF06C0E5FF46
:1038E00007C0E5FF08C0E5FF09C0E5FF020EDBCF1A
:1038F00000F0030EDBCF01F0040EDBCF02F0050E6B
:10390000DBCF03F0046A01014351050A02E0E86AD3
:1039100047D004010CBF43D0410E035C02E3400ECC
:10392000036E056A0350055C1DE2C00E0524066E99
:10393000076A050E072205500024086EE86A012078
:10394000096EE86A022008C0E9FF09C0F3FF94ECA1
:1039500024F0086E06C0E9FF07C0EAFF08C0EFFFC9
:10396000052AE0D705C004F0055004010D6F400E94
:103970000C150C6F006A0CBD002A0050D880E86658
:10398000D890006A00360050010BE840E840F46E21
:103990000C51BF0BF4100C6F880E0C110C6F0450FF
:1039A000E4CF09F0E4CF08F0E4CF07F0E4CF06F06D
:1039B000E4CF05F0E4CF04F0E4CF03F0E4CF02F06D
:1039C000E4CF01F0E4CF00F0E4CFD9FF120000C053
:1039D000E5FF01C0E5FF02C0E5FF03C0E5FF05010B
:1039E0000051800A01E06BD003C500F002C501F070
:1039F0000050010A0FE1010E0101406F000E0101AC
:103A00002D6F3B0E2C6FC80E2B6F120E0101346F01
:103A1000356B55D00050020A17E1010E0101406FCD
:103A2000000E01012D6F3B0E2C6FDA0E2B6FDC0E9A
:103A3000F66E3B0EF76E000EF86E0900F5CF34F10E
:103A40000900F5CF35F13BD00050030A32E1010EF9
:103A50000101406F0150030DF450026EF3CF01F0ED
:103A6000036A260E01263C0E0222000E032201C02C
:103A7000F6FF02C0F7FF03C0F8FF0900F5CF2BF1F6
:103A80000900F5CF2CF10900F5CF2DF12BC101F084
:103A90002CC102F02DC103F001C0E9FF02C0F3FF09
:103AA000035094EC24F0016E01C034F10101356B38
:103AB00006D00050060A03E1010E0101406FE4CF79
:103AC00003F0E4CF02F0E4CF01F0E4CF00F0120005
:103AD000D9CFE5FFE1CFD9FF00C0E5FF01C0E5FF89
:103AE00002C0E5FF03C0E5FF04C0E5FF05C0E5FF38
:103AF00006C0E5FF020EDBCF00F0030EDBCF01F0C6
:103B0000040EDBCF02F0050EDBCF03F000500110F6
:103B1000021033E000C0E9FF01C0F3FF0250B5EC32
:103B200023F0046EF3CF05F0F4CF06F003C0E5FFF9
:103B300004C0E9FF05C0F3FF06500CEC25F000C0FF
:103B4000E9FF01C0F3FF0250B5EC23F0046EF3CFA0
:103B500005F0F4CF06F0042A02E3054A062A04C061
:103B6000E5FF05C0F4FF06C0F6FF00C0E9FF01C095
:103B7000F3FF0250E4EC24F016D00350E56EF2CFD0
:103B8000E5FFF29E0500A40EFD6E3B0EFE6E000EDC
:103B9000FF6EE4BEF28E2AC1FBFF29C1FAFF0101CC
:103BA0002851F96EE652E4CF06F0E4CF05F0E4CFF9
:103BB00004F0E4CF03F0E4CF02F0E4CF01F0E4CF6F
:103BC00000F0E4CFD9FF120012010002FF00FF4015
:103BD000D804AAFE00000001000109022000010132
:103BE00000C0140904000002FFFFFF0007050102E6
:103BF0004000000705810240000004030904160389
:103C00004A00500020004D0041004E0044004F008B
:103C10004E0020001203500069006E00670075001E
:103C200069006E006F00FA3B00FE3B00143C000090
:103C3000286E756C6C290000010204081020408079
:103C40004080010204010204082001020401020470
:103C50000810204080100101010101010101020250
:103C60000202020000000000040404030303030333
:103C7000030303004F4B0000E806E56E630E4FECB4
:103C80001EF0E4500BE000D0E56E630E4FEC1EF02A
:103C900000D000D00000E450E82EF6D71200E8066D
:103CA0000000E85007E000D000D000D000D00000B5
:103CB000E82EFAD7120000C0E5FF01C500F00501AB
:103CC0000051600BD8A461D00050050A09E1010E33
:103CD0000101406F040E0101436F02C539F155D057
:103CE0000050060A03E1E7EC1CF04FD00050090A2F
:103CF00012E1010E0101406F02C544F1010144517E
:103D000004E1040E0101436F40D0050E0101436F31
:103D100071EC24F03AD00050080A0FE1010E0101C5
:103D2000406F010E01012C6F440E2B6F800E2D6F22
:103D3000010E0101346F356B28D0005003E1D4EC43
:103D40001BF023D00050010A03E00050030A03E1F6
:103D500023EC1AF01AD000500A0A11E1010E0101F9
:103D6000406F0501406B050E01012C6F400E2B6F5B
:103D7000800E2D6F010E0101346F356B06D000509F
:103D80000B0A03E1010E0101406FE4CF00F01200C5
:103D900000C0E5FF04010451006E009E0050046F56
:103DA0000051006E009E0050006F0101456B010143
:103DB000406B01013A6B0101346B356B5BEC1EF01B
:103DC000010140510BE1400E0401016F000E026F32
:103DD000050E036F840E006F046F38D0050100AF2D
:103DE00026D0010135510501075D04E1010134517F
:103DF0000501065D04E206C534F107C535F1000E84
:103E0000E56ABFEC15F0E652020E0101456F400E67
:103E10000401016F000E026F050E036F800E006F2C
:103E2000400E066F050E076FC80E046F0FD0010E0F
:103E30000101456F0401056BC80E046F400E016F50
:103E4000400E026F050E036FC80E006F6D98E4CF31
:103E500000F0120017EEFFF027EEFFF0F86AA68ED2
:103E6000A69CBF0EE96E0E0EEA6E0068ED6A005069
:103E7000FDE1500EF66E4A0EF76E000EF86E090068
:103E8000F5CF05F00900F5CF06F034D00900F5CFE5
:103E900000F00900F5CF01F00900F5CF02F00900AC
:103EA0000900F5CFE9FF0900F5CFEAFF0900090095
:103EB0000900F5CF03F00900F5CF04F0090009006F
:103EC000F6CF07F0F7CF08F0F8CF09F000C0F6FF03
:103ED00001C0F7FF02C0F8FF03D00900F5CFEEFFE5
:103EE0000306FBE20406F9E207C0F6FF08C0F7FF8D
:103EF00009C0F8FF0506CAE20606C8E2D0EC23F0C6
:103F0000FFD7D9CFE5FFE1CFD9FF00C0E5FF01C062
:103F1000E5FF02C0E5FF03C0E5FF04C0E5FF05C003
:103F2000E5FF020EDBCF31F1030EDBCF32F1040EE1
:103F3000DBCF33F1050EDBCF00F0060EDBCF01F057
:103F4000070EDBCF02F0080EDBCF03F0090EDBCF4C
:103F500004F00A0EDBCF05F00550E56E0450E56E67
:103F60000350E56E0250E56E0150E56E0050E56EBF
:103F7000800EE56E010EE56E310EE56E0EEC06F07C
:103F8000006E090EE1260050E4CF05F0E4CF04F006
:103F9000E4CF03F0E4CF02F0E4CF01F0E4CF00F08F
:103FA000E4CFD9FF120000C0E5FF6CB422D03C0E74
:103FB00004010015006E0040E8403F0B0D0A03E1CC
:103FC000C8EC1EF03ED001014551010A0FE1000E80
:103FD000E56A88EC19F0E652040100AD03D0880EC2
:103FE000006F2FD0C80E0401006F2BD0F3EC24F02B
:103FF00028D0006A6CB4002A0050010A22E16E50F9
:104000000BE101014351040A07E102C56EFF6E5046
:1040100003E1030E0101436F01014551020A0FE163
:10402000000EE56ABFEC15F0E652040104AD03D0C2
:10403000880E046F06D0C80E0401046F02D0F3ECA2
:1040400024F0E4CF00F01200D9CFE5FFE1CFD9FF93
:1040500000C0E5FF01C0E5FF02C0E5FF03C0E5FFCA
:1040600004C0E5FF05C0E5FF020EDBCF28F1030E1B
:10407000DBCF29F1040EDBCF2AF1050EDBCF00F0F8
:10408000060EDBCF01F0070EDBCF02F0080EDBCF10
:1040900003F0090EDBCF04F00A0EDBCF05F005506C
:1040A000E56E0450E56E0350E56E0250E56E01507A
:1040B000E56E0050E56E000EE56AE56AE56A0EEC15
:1040C00006F0006E090EE1260050E4CF05F0E4CFC3
:1040D00004F0E4CF03F0E4CF02F0E4CF01F0E4CF4A
:1040E00000F0E4CFD9FF120000C0E5FFE56A020E40
:1040F000E56E90EC14F0E652E652006A010EE56EB1
:10410000E56E90EC14F0E652E652E56A010EE56EBB
:1041100090EC14F0E652E652002A030E005CEEE347
:10412000010EE56EE56E90EC14F0E652E652E56A9B
:10413000010EE56ED7EC22F0E652E652E56A010E7A
:10414000E56E90EC14F0E652E652E56A640EE56E18
:104150002AEC23F0E652E652006A010EE56EE56EA7
:1041600090EC14F0E652E652E56A010EE56E90EC32
:1041700014F0E652E652002A100E005CEEE3E4CFA3
:1041800000F01200D9CFE5FFE1CFD9FF00C0E5FF75
:1041900001C0E5FF02C0E5FF03C0E5FF04C0E5FF85
:1041A000050ED924006E000EDA20016E800E026E1C
:1041B000030E0026000E01220222020ED924036EF5
:1041C000000EDA20046E0250E56E0150E56E0050DC
:1041D000E56E070EDBCFE5FF060EDBCFE5FF050E34
:1041E000DBCFE5FF800EE56E0450E56E0350E56E13
:1041F0000EEC06F0006E090EE1260050E4CF04F04C
:10420000E4CF03F0E4CF02F0E4CF01F0E4CF00F01C
:10421000E4CFD9FF1200E56A010EE56E61EC13F000
:10422000E652E652E56A020EE56E61EC13F0E652E4
:10423000E652E56A030EE56E61EC13F0E652E652D3
:10424000E56A060EE56E61EC13F0E652E652E56AA9
:10425000050EE56E61EC13F0E652E652E56A010EDA
:10426000E56E90EC14F0E652E652E56A020EE56E59
:1042700090EC14F0E652E652E56A030EE56E90EC1F
:1042800014F0E652E652010EE56E060EE56E90EC75
:1042900014F0E652E652E56A050EE56E90EC14F075
:1042A000E652E6521200D9CFE5FFE1CFD9FF00C0B8
:1042B000E5FF01C0E5FF02C0E5FF020ED924006E54
:1042C000000EDA20016E800E026E030E0026000E34
:1042D000012202220250E56E0150E56E0050E56EAB
:1042E000040EDBCFE5FF030EDBCFE5FF020EDBCFD5
:1042F000E5FF800EE56E040EE56E800EE56E81EC46
:104300001FF0006E090EE1260050E56E800EE56E8E
:10431000040EE56E800EE56E5EEC1CF0040EE126E8
:10432000E4CF02F0E4CF01F0E4CF00F0E4CFD9FF16
:104330001200D8CFE5FFE0CFE5FFE56EF3CFE5FF54
:10434000F4CFE5FFE9CFE5FFEACFE5FFFACFE5FFE0
:10435000FBCFE5FFD9CFE5FFE1CFD9FFF6CFE5FFF2
:10436000F7CFE5FFF8CFE5FFF5CFE5FF17EC25F038
:10437000E4CFF5FFE4CFF8FFE4CFF7FFE4CFF6FF9B
:10438000E4CFD9FFE4CFFBFFE4CFFAFFE4CFEAFFAD
:10439000E4CFE9FFE4CFF4FFE4CFF3FFE450E4CF50
:1043A000E0FFE4CFD8FF1000D8CFE5FFE0CFE5FF76
:1043B000E56EF3CFE5FFF4CFE5FFE9CFE5FFEACF08
:1043C000E5FFFACFE5FFFBCFE5FFD9CFE5FFE1CF72
:1043D000D9FFF6CFE5FFF7CFE5FFF8CFE5FFF5CF43
:1043E000E5FFE4CFF5FFE4CFF8FFE4CFF7FFE4CF3C
:1043F000F6FFE4CFD9FFE4CFFBFFE4CFFAFFE4CF31
:10440000EAFFE4CFE9FFE4CFF4FFE4CFF3FFE450A9
:10441000E4CFE0FFE4CFD8FF100000C0E5FF0101CA
:1044200043512EE068A403D069B42FEC25F0006A54
:104430006DB2002A0050010A23E068A003D069B0E1
:1044400052EC23F068A803D069B883EC24F068AC80
:1044500003D069BC02EC06F068AA03D069BAD5ECB7
:1044600024F068A202D069B26892030E0101435D94
:1044700007E368A605D069A603D0D3EC1FF06896C1
:10448000E4CF00F01200F29EF29C6D6A6F6A706ACF
:10449000716A726A736A746A756A766A776A786A28
:1044A000796A7A6A7B6A7C6A7D6A7E6A7F6A070EAD
:1044B000E56ED00EE56ED7EC22F0E652E652140E11
:1044C0006F6E0101436B0101426B0101446B0101FD
:1044D0004351050A05E031EC24F00DEC22F0F7D74A
:1044E000A19AA08AA28AF28EF28C1200D9CFE5FF9F
:1044F000E1CFD9FF00C0E5FF01C0E5FF02C0E5FF45
:1045000003C0E5FF020EDBCF00F0030EDBCF01F0AE
:10451000040EDBCF02F0050EDBCF03F00350E56E97
:104520000250E56E0150E56E0050E56E5EEC1CF049
:10453000006E040EE1260050E4CF03F0E4CF02F059
:10454000E4CF01F0E4CF00F0E4CFD9FF120000C0C7
:10455000E5FF01C0E5FF006A020EE56E71EC17F0A1
:10456000016EE65201500DE0010E016E005005E0B3
:10457000E86CD8900136010FFDE3015001014613AC
:104580000DD0010E016E005005E0E86CD8900136A8
:10459000010FFDE3011E015001014617002A080E1C
:1045A000005CDAE3E4CF01F0E4CF00F01200D9CFF1
:1045B000E5FFE1CFD9FF00C0E5FF01C0E5FF02C084
:1045C000E5FF03C0E5FF020EDBCF00F0030EDBCFFB
:1045D00001F0026A036A0150035C02E10050025CD0
:1045E00006E20C0E3CEC1EF0024A032AF4D7E4CF9C
:1045F00003F0E4CF02F0E4CF01F0E4CF00F0E4CF29
:10460000D9FF1200D9CFE5FFE1CFD9FF00C0E5FF08
:1046100001C0E5FF02C0E5FF020EDBCF00F0030E94
:10462000DBCF01F0040EDBCF02F00250E56E01504B
:10463000E56E0050E56E4AEC1BF0006E030EE126BD
:104640000050E4CF02F0E4CF01F0E4CF00F0E4CF7B
:10465000D9FF1200D9CFE5FFE1CFD9FF00C0E5FFB8
:1046600001C0E5FF02C0E5FF03C0E5FF020EDBCF9E
:1046700000F0030EDBCF01F0026A036A0150035C15
:1046800002E10050025C03E2024A032AF7D7E4CFBA
:1046900003F0E4CF02F0E4CF01F0E4CF00F0E4CF88
:1046A000D9FF120000C0E5FF6A6A686A9F0E6B6E50
:1046B0007B0E696E6E6A160E706E006A68B6002A0E
:1046C0000050010A02E16896F8D76D98F3EC24F0E7
:1046D0000101426B0101416B0101446B030E0101B9
:1046E000436FE4CF00F01200D9CFE5FFE1CFD9FF4F
:1046F00000C0E5FF01C0E5FF020EDBCF00F0005077
:10470000E56E71EC17F0016EE65201700150E56E36
:104710000050E56E90EC14F0E652E652E4CF01F062
:10472000E4CF00F0E4CFD9FF1200E8AE0AD0F3CF17
:10473000EAFFEE50EECFF3FFEECFF4FFEECFE9FF4E
:104740001200E8BC3CEF25F0E9CFF6FFF3CFF7FF0E
:10475000F86E0900F5500900F5CFF3FF0900F5CF19
:10476000F4FF0900F5CFE9FF1200E8AE08D0F3CF5F
:10477000EAFFEE50EECFF3FFEECFF4FF1200E8BCFD
:104780003AEF25F0E9CFF6FFF3CFF7FFF86E090017
:10479000F5500900F5CFF3FF0900F5CFF4FF120043
:1047A000D0B202D0930ED012D350030B800F7D0FE6
:1047B00002E3D3A4FED7F29EF29CA5EC24F006EC13
:1047C00006F043EC22F00BEC21F024EC0BF0FDD7CB
:1047D000120000C0E5FF006A040108BF002A005073
:1047E000D880E866D890006A0036005002E009518F
:1047F00002E1006A02D0010E006E0050E4CF00F02A
:104800001200F2CFEAFFF29EA69EA69CA684E9CFF4
:10481000A9FFE4CFA8FF20EC25F0F4CFA8FF20ECFF
:1048200025F0F6CFA8FF20EC25F0A694EABEF28E84
:104830001200F2CFF6FFF29EA69EA69CE9CFA9FF3A
:10484000A680A850A92AA680A8CFF3FFA92AA680EF
:10485000A8CFF4FFA92AA680A8CFEAFFF6BEF28E61
:1048600012006DB606D06D6A696A6D86010E01018F
:10487000436F01014351010A09E16DBA07D0686A2B
:10488000696A69806988020E0101436F1200E8AE0F
:1048900006D0F3CFEAFFEE50EECFF3FF1200E8BCF4
:1048A00038EF25F0E9CFF6FFF3CFF7FFF86E0900F8
:1048B000F5500900F5CFF3FF1200F2CFF6FFF29E9C
:1048C000A69EA69CE9CFA9FFA680A850A92AA680EB
:1048D000A8CFF3FFA92AA680A8CFF4FFF6BEF28ED8
:1048E00012001E0E716E400E0401096F800E0A6FD9
:1048F000050E0B6F880E086FC00E0E6F050E0F6F42
:10490000400E0C6F1200D9CFE5FFE1CFD9FF6984CB
:1049100068986D82A19AF290A08AF2860300A09A0C
:10492000F296E4CFD9FF1200E8AE04D0F3CFEAFF4D
:10493000EE501200E8BC36EF25F0E9CFF6FFF3CFDA
:10494000F7FFF86E0900F5501200896A8A6A400E76
:104950008B6E8C6A8D6A926A936A94909492949406
:10496000949C949E956A966A1200F2CFEAFFF29E9A
:10497000A69EA69CA684E9CFA9FFE4CFA8FF20ECC1
:1049800025F0A694EABEF28E1200F2CFF6FFF29E58
:10499000A69EA69CE9CFA9FFA680A850A92AA6801A
:1049A000A8CFF3FFF6BEF28E120000C0E5FF006A4A
:1049B00070B0002A0050010A03E1F3EC24F070907B
:1049C000689AE4CF00F01200E8AE09D0F3CFEAFF16
:1049D000E4CFEEFFF4CFEEFFF6CFEEFF1200E8BC1F
:1049E00040EF25F012000101456B400E0401016FFC
:1049F000000E026F050E036F880E006F046B12002D
:104A0000F2CFF6FFF29EA69EA69CE9CFA9FFA68054
:104A1000A850F6BEF28E1200E8AE05D0F3CFEAFF42
:104A2000E4CFEEFF1200E8BC3EEF25F01200A1AA91
:104A300006D0A19A0DEC22F0689C68906A6A120078
:104A4000550EA76EAA0EA76EA682A6B2FED7A94AD9
:104A50000100160C000038010000010000006D92FA
:104A6000699468941200E9EC23F0120000EF25F03D
:104A7000C5EF24F05DEF24F019EF24F0B5EF24F03A
:044A800001EF24F02E
:00000001FF
